{
  "_format": "hh-sol-artifact-1",
  "contractName": "CircleFi",
  "sourceName": "contracts/CircleFi.sol",
  "abi": [
    {
      "inputs": [],
      "stateMutability": "nonpayable",
      "type": "constructor"
    },
    {
      "inputs": [],
      "name": "EnforcedPause",
      "type": "error"
    },
    {
      "inputs": [],
      "name": "ExpectedPause",
      "type": "error"
    },
    {
      "inputs": [
        {
          "internalType": "address",
          "name": "owner",
          "type": "address"
        }
      ],
      "name": "OwnableInvalidOwner",
      "type": "error"
    },
    {
      "inputs": [
        {
          "internalType": "address",
          "name": "account",
          "type": "address"
        }
      ],
      "name": "OwnableUnauthorizedAccount",
      "type": "error"
    },
    {
      "inputs": [],
      "name": "ReentrancyGuardReentrantCall",
      "type": "error"
    },
    {
      "anonymous": false,
      "inputs": [
        {
          "indexed": true,
          "internalType": "uint256",
          "name": "groupId",
          "type": "uint256"
        },
        {
          "indexed": false,
          "internalType": "uint256",
          "name": "month",
          "type": "uint256"
        },
        {
          "indexed": true,
          "internalType": "address",
          "name": "bidder",
          "type": "address"
        },
        {
          "indexed": false,
          "internalType": "uint256",
          "name": "amount",
          "type": "uint256"
        }
      ],
      "name": "BidRevealed",
      "type": "event"
    },
    {
      "anonymous": false,
      "inputs": [
        {
          "indexed": true,
          "internalType": "uint256",
          "name": "groupId",
          "type": "uint256"
        },
        {
          "indexed": false,
          "internalType": "uint256",
          "name": "month",
          "type": "uint256"
        },
        {
          "indexed": true,
          "internalType": "address",
          "name": "bidder",
          "type": "address"
        }
      ],
      "name": "BidSubmitted",
      "type": "event"
    },
    {
      "anonymous": false,
      "inputs": [
        {
          "indexed": true,
          "internalType": "uint256",
          "name": "groupId",
          "type": "uint256"
        },
        {
          "indexed": true,
          "internalType": "address",
          "name": "member",
          "type": "address"
        },
        {
          "indexed": false,
          "internalType": "uint256",
          "name": "amount",
          "type": "uint256"
        }
      ],
      "name": "ContributionReceived",
      "type": "event"
    },
    {
      "anonymous": false,
      "inputs": [
        {
          "indexed": true,
          "internalType": "uint256",
          "name": "groupId",
          "type": "uint256"
        },
        {
          "indexed": true,
          "internalType": "address",
          "name": "member",
          "type": "address"
        },
        {
          "indexed": false,
          "internalType": "uint256",
          "name": "amount",
          "type": "uint256"
        }
      ],
      "name": "DividendPaid",
      "type": "event"
    },
    {
      "anonymous": false,
      "inputs": [
        {
          "indexed": true,
          "internalType": "uint256",
          "name": "groupId",
          "type": "uint256"
        },
        {
          "indexed": false,
          "internalType": "uint256",
          "name": "memberCount",
          "type": "uint256"
        },
        {
          "indexed": false,
          "internalType": "uint256",
          "name": "monthlyContribution",
          "type": "uint256"
        },
        {
          "indexed": false,
          "internalType": "uint256",
          "name": "duration",
          "type": "uint256"
        },
        {
          "indexed": true,
          "internalType": "address",
          "name": "creator",
          "type": "address"
        }
      ],
      "name": "GroupCreated",
      "type": "event"
    },
    {
      "anonymous": false,
      "inputs": [
        {
          "indexed": true,
          "internalType": "uint256",
          "name": "groupId",
          "type": "uint256"
        },
        {
          "indexed": true,
          "internalType": "address",
          "name": "member",
          "type": "address"
        }
      ],
      "name": "MemberJoined",
      "type": "event"
    },
    {
      "anonymous": false,
      "inputs": [
        {
          "indexed": true,
          "internalType": "address",
          "name": "previousOwner",
          "type": "address"
        },
        {
          "indexed": true,
          "internalType": "address",
          "name": "newOwner",
          "type": "address"
        }
      ],
      "name": "OwnershipTransferred",
      "type": "event"
    },
    {
      "anonymous": false,
      "inputs": [
        {
          "indexed": false,
          "internalType": "address",
          "name": "account",
          "type": "address"
        }
      ],
      "name": "Paused",
      "type": "event"
    },
    {
      "anonymous": false,
      "inputs": [
        {
          "indexed": true,
          "internalType": "uint256",
          "name": "groupId",
          "type": "uint256"
        },
        {
          "indexed": true,
          "internalType": "address",
          "name": "winner",
          "type": "address"
        },
        {
          "indexed": false,
          "internalType": "uint256",
          "name": "amount",
          "type": "uint256"
        }
      ],
      "name": "PotDistributed",
      "type": "event"
    },
    {
      "anonymous": false,
      "inputs": [
        {
          "indexed": true,
          "internalType": "address",
          "name": "member",
          "type": "address"
        },
        {
          "indexed": false,
          "internalType": "uint256",
          "name": "newScore",
          "type": "uint256"
        }
      ],
      "name": "ReputationUpdated",
      "type": "event"
    },
    {
      "anonymous": false,
      "inputs": [
        {
          "indexed": false,
          "internalType": "address",
          "name": "account",
          "type": "address"
        }
      ],
      "name": "Unpaused",
      "type": "event"
    },
    {
      "anonymous": false,
      "inputs": [
        {
          "indexed": true,
          "internalType": "uint256",
          "name": "groupId",
          "type": "uint256"
        },
        {
          "indexed": false,
          "internalType": "uint256",
          "name": "month",
          "type": "uint256"
        },
        {
          "indexed": true,
          "internalType": "address",
          "name": "winner",
          "type": "address"
        },
        {
          "indexed": false,
          "internalType": "uint256",
          "name": "winningAmount",
          "type": "uint256"
        }
      ],
      "name": "WinnerSelected",
      "type": "event"
    },
    {
      "inputs": [],
      "name": "AUCTION_DEADLINE",
      "outputs": [
        {
          "internalType": "uint256",
          "name": "",
          "type": "uint256"
        }
      ],
      "stateMutability": "view",
      "type": "function"
    },
    {
      "inputs": [],
      "name": "MIN_REPUTATION_SCORE",
      "outputs": [
        {
          "internalType": "uint256",
          "name": "",
          "type": "uint256"
        }
      ],
      "stateMutability": "view",
      "type": "function"
    },
    {
      "inputs": [
        {
          "internalType": "uint256",
          "name": "",
          "type": "uint256"
        }
      ],
      "name": "chitGroups",
      "outputs": [
        {
          "internalType": "uint256",
          "name": "groupId",
          "type": "uint256"
        },
        {
          "internalType": "uint256",
          "name": "memberCount",
          "type": "uint256"
        },
        {
          "internalType": "uint256",
          "name": "monthlyContribution",
          "type": "uint256"
        },
        {
          "internalType": "uint256",
          "name": "duration",
          "type": "uint256"
        },
        {
          "internalType": "uint256",
          "name": "totalPot",
          "type": "uint256"
        },
        {
          "internalType": "uint256",
          "name": "currentMonth",
          "type": "uint256"
        },
        {
          "internalType": "bool",
          "name": "isActive",
          "type": "bool"
        },
        {
          "internalType": "address",
          "name": "admin",
          "type": "address"
        }
      ],
      "stateMutability": "view",
      "type": "function"
    },
    {
      "inputs": [
        {
          "internalType": "uint256",
          "name": "_groupId",
          "type": "uint256"
        }
      ],
      "name": "contribute",
      "outputs": [],
      "stateMutability": "payable",
      "type": "function"
    },
    {
      "inputs": [
        {
          "internalType": "uint256",
          "name": "_memberCount",
          "type": "uint256"
        },
        {
          "internalType": "uint256",
          "name": "_monthlyContribution",
          "type": "uint256"
        },
        {
          "internalType": "uint256",
          "name": "_duration",
          "type": "uint256"
        }
      ],
      "name": "createChitGroup",
      "outputs": [
        {
          "internalType": "uint256",
          "name": "",
          "type": "uint256"
        }
      ],
      "stateMutability": "nonpayable",
      "type": "function"
    },
    {
      "inputs": [
        {
          "internalType": "uint256",
          "name": "_groupId",
          "type": "uint256"
        }
      ],
      "name": "getCurrentMonth",
      "outputs": [
        {
          "internalType": "uint256",
          "name": "",
          "type": "uint256"
        }
      ],
      "stateMutability": "view",
      "type": "function"
    },
    {
      "inputs": [
        {
          "internalType": "uint256",
          "name": "_groupId",
          "type": "uint256"
        }
      ],
      "name": "getCurrentPot",
      "outputs": [
        {
          "internalType": "uint256",
          "name": "",
          "type": "uint256"
        }
      ],
      "stateMutability": "view",
      "type": "function"
    },
    {
      "inputs": [
        {
          "internalType": "uint256",
          "name": "_groupId",
          "type": "uint256"
        }
      ],
      "name": "getMembers",
      "outputs": [
        {
          "internalType": "address[]",
          "name": "",
          "type": "address[]"
        }
      ],
      "stateMutability": "view",
      "type": "function"
    },
    {
      "inputs": [
        {
          "internalType": "address",
          "name": "_member",
          "type": "address"
        }
      ],
      "name": "getReputationScore",
      "outputs": [
        {
          "internalType": "uint256",
          "name": "",
          "type": "uint256"
        }
      ],
      "stateMutability": "view",
      "type": "function"
    },
    {
      "inputs": [],
      "name": "groupCounter",
      "outputs": [
        {
          "internalType": "uint256",
          "name": "",
          "type": "uint256"
        }
      ],
      "stateMutability": "view",
      "type": "function"
    },
    {
      "inputs": [
        {
          "internalType": "uint256",
          "name": "_groupId",
          "type": "uint256"
        }
      ],
      "name": "joinChitGroup",
      "outputs": [],
      "stateMutability": "nonpayable",
      "type": "function"
    },
    {
      "inputs": [],
      "name": "owner",
      "outputs": [
        {
          "internalType": "address",
          "name": "",
          "type": "address"
        }
      ],
      "stateMutability": "view",
      "type": "function"
    },
    {
      "inputs": [],
      "name": "pause",
      "outputs": [],
      "stateMutability": "nonpayable",
      "type": "function"
    },
    {
      "inputs": [],
      "name": "paused",
      "outputs": [
        {
          "internalType": "bool",
          "name": "",
          "type": "bool"
        }
      ],
      "stateMutability": "view",
      "type": "function"
    },
    {
      "inputs": [],
      "name": "renounceOwnership",
      "outputs": [],
      "stateMutability": "nonpayable",
      "type": "function"
    },
    {
      "inputs": [
        {
          "internalType": "uint256",
          "name": "_groupId",
          "type": "uint256"
        },
        {
          "internalType": "uint256",
          "name": "_bidAmount",
          "type": "uint256"
        },
        {
          "internalType": "bytes32",
          "name": "_salt",
          "type": "bytes32"
        }
      ],
      "name": "revealBid",
      "outputs": [],
      "stateMutability": "nonpayable",
      "type": "function"
    },
    {
      "inputs": [
        {
          "internalType": "uint256",
          "name": "_groupId",
          "type": "uint256"
        }
      ],
      "name": "selectWinner",
      "outputs": [],
      "stateMutability": "nonpayable",
      "type": "function"
    },
    {
      "inputs": [
        {
          "internalType": "uint256",
          "name": "_groupId",
          "type": "uint256"
        },
        {
          "internalType": "bytes32",
          "name": "_sealedBidHash",
          "type": "bytes32"
        }
      ],
      "name": "submitBid",
      "outputs": [],
      "stateMutability": "nonpayable",
      "type": "function"
    },
    {
      "inputs": [
        {
          "internalType": "address",
          "name": "newOwner",
          "type": "address"
        }
      ],
      "name": "transferOwnership",
      "outputs": [],
      "stateMutability": "nonpayable",
      "type": "function"
    },
    {
      "inputs": [],
      "name": "unpause",
      "outputs": [],
      "stateMutability": "nonpayable",
      "type": "function"
    },
    {
      "inputs": [
        {
          "internalType": "uint256",
          "name": "_groupId",
          "type": "uint256"
        }
      ],
      "name": "withdrawDividend",
      "outputs": [],
      "stateMutability": "nonpayable",
      "type": "function"
    }
  ],
  "bytecode": "0x60806040523480156200001157600080fd5b503360016200003562000029620000c960201b60201c565b620000f460201b60201c565b60000181905550600073ffffffffffffffffffffffffffffffffffffffff168173ffffffffffffffffffffffffffffffffffffffff1603620000b15760006040517f1e4fbdf7000000000000000000000000000000000000000000000000000000008152600401620000a8919062000207565b60405180910390fd5b620000c281620000fe60201b60201c565b5062000224565b60007f9b779b17422d0df92223018b32b4d1fa46e071723d6817e2486d003becc55f0060001b905090565b6000819050919050565b60008060009054906101000a900473ffffffffffffffffffffffffffffffffffffffff169050816000806101000a81548173ffffffffffffffffffffffffffffffffffffffff021916908373ffffffffffffffffffffffffffffffffffffffff1602179055508173ffffffffffffffffffffffffffffffffffffffff168173ffffffffffffffffffffffffffffffffffffffff167f8be0079c531659141344cd1fd0a4f28419497f9722a3daafe3b4186f6b6457e060405160405180910390a35050565b600073ffffffffffffffffffffffffffffffffffffffff82169050919050565b6000620001ef82620001c2565b9050919050565b6200020181620001e2565b82525050565b60006020820190506200021e6000830184620001f6565b92915050565b6133b580620002346000396000f3fe60806040526004361061012a5760003560e01c80638456cb59116100ab578063c77943c01161006f578063c77943c0146103b0578063cff0d4b7146103db578063d24924fe14610418578063ea47b3d414610443578063f2fde38b14610480578063f71440f1146104a95761012a565b80638456cb59146102ea5780638da5cb5b14610301578063a213de5c1461032c578063c1cbbca714610357578063c477ecab146103735761012a565b80634d380a0d116100f25780634d380a0d146102195780635c975abb146102425780635d9bd8b21461026d578063715018a61461029657806375a67d5c146102ad5761012a565b80630f45ccf21461012f57806319fcfab11461016c5780633f4ba83a146101955780634018b1de146101ac5780634c524be4146101f0575b600080fd5b34801561013b57600080fd5b506101566004803603810190610151919061239c565b6104d2565b60405161016391906123d8565b60405180910390f35b34801561017857600080fd5b50610193600480360381019061018e9190612429565b6104f2565b005b3480156101a157600080fd5b506101aa61085b565b005b3480156101b857600080fd5b506101d360048036038101906101ce919061239c565b61086d565b6040516101e79897969594939291906124c5565b60405180910390f35b3480156101fc57600080fd5b506102176004803603810190610212919061239c565b6108e2565b005b34801561022557600080fd5b50610240600480360381019061023b9190612543565b610f14565b005b34801561024e57600080fd5b5061025761125a565b6040516102649190612596565b60405180910390f35b34801561027957600080fd5b50610294600480360381019061028f919061239c565b611270565b005b3480156102a257600080fd5b506102ab6114af565b005b3480156102b957600080fd5b506102d460048036038101906102cf91906125dd565b6114c3565b6040516102e191906123d8565b60405180910390f35b3480156102f657600080fd5b506102ff611520565b005b34801561030d57600080fd5b50610316611532565b604051610323919061260a565b60405180910390f35b34801561033857600080fd5b5061034161155b565b60405161034e91906123d8565b60405180910390f35b610371600480360381019061036c919061239c565b611562565b005b34801561037f57600080fd5b5061039a6004803603810190610395919061239c565b6117ba565b6040516103a791906126e3565b60405180910390f35b3480156103bc57600080fd5b506103c561185e565b6040516103d291906123d8565b60405180910390f35b3480156103e757600080fd5b5061040260048036038101906103fd9190612705565b611863565b60405161040f91906123d8565b60405180910390f35b34801561042457600080fd5b5061042d611a5f565b60405161043a91906123d8565b60405180910390f35b34801561044f57600080fd5b5061046a6004803603810190610465919061239c565b611a65565b60405161047791906123d8565b60405180910390f35b34801561048c57600080fd5b506104a760048036038101906104a291906125dd565b611a85565b005b3480156104b557600080fd5b506104d060048036038101906104cb919061239c565b611b0b565b005b600060016000838152602001908152602001600020600401549050919050565b6104fa611df3565b610502611e34565b60006001600084815260200190815260200160002090508060070160003373ffffffffffffffffffffffffffffffffffffffff1673ffffffffffffffffffffffffffffffffffffffff16815260200190815260200160002060009054906101000a900460ff166105a7576040517f08c379a000000000000000000000000000000000000000000000000000000000815260040161059e906127b5565b60405180910390fd5b8060080160003373ffffffffffffffffffffffffffffffffffffffff1673ffffffffffffffffffffffffffffffffffffffff16815260200190815260200160002060009054906101000a900460ff1615610636576040517f08c379a000000000000000000000000000000000000000000000000000000000815260040161062d90612821565b60405180910390fd5b8060030154816005015410610680576040517f08c379a00000000000000000000000000000000000000000000000000000000081526004016106779061288d565b60405180910390fd5b806006018054905081600a0160008360050154815260200190815260200160002080549050106106e5576040517f08c379a00000000000000000000000000000000000000000000000000000000081526004016106dc906128f9565b60405180910390fd5b60006040518060a001604052803373ffffffffffffffffffffffffffffffffffffffff1681526020018460001c81526020016000801b81526020016000151581526020016000815250905081600a0160008360050154815260200190815260200160002081908060018154018082558091505060019003906000526020600020906005020160009091909190915060008201518160000160006101000a81548173ffffffffffffffffffffffffffffffffffffffff021916908373ffffffffffffffffffffffffffffffffffffffff160217905550602082015181600101556040820151816002015560608201518160030160006101000a81548160ff0219169083151502179055506080820151816004015550503373ffffffffffffffffffffffffffffffffffffffff16847f2eef226398f000ec33af3b3be58878356d5c7b195bff89de5067bbfe7d2ee4a3846005015460405161084591906123d8565b60405180910390a35050610857611e57565b5050565b610863611e72565b61086b611ef9565b565b600160205280600052604060002060009150905080600001549080600101549080600201549080600301549080600401549080600501549080600d0160009054906101000a900460ff169080600d0160019054906101000a900473ffffffffffffffffffffffffffffffffffffffff16905088565b6108ea611df3565b6108f2611e34565b600060016000838152602001908152602001600020905080600d0160019054906101000a900473ffffffffffffffffffffffffffffffffffffffff1673ffffffffffffffffffffffffffffffffffffffff163373ffffffffffffffffffffffffffffffffffffffff161461099b576040517f08c379a000000000000000000000000000000000000000000000000000000000815260040161099290612965565b60405180910390fd5b80600301548160050154106109e5576040517f08c379a00000000000000000000000000000000000000000000000000000000081526004016109dc9061288d565b60405180910390fd5b600081600a0160008360050154815260200190815260200160002090508160060180549050818054905014610a4f576040517f08c379a0000000000000000000000000000000000000000000000000000000008152600401610a46906129d1565b60405180910390fd5b60007fffffffffffffffffffffffffffffffffffffffffffffffffffffffffffffffff905060008060005b8480549050811015610b7157848181548110610a9957610a986129f1565b5b906000526020600020906005020160030160009054906101000a900460ff168015610ae7575083858281548110610ad357610ad26129f1565b5b906000526020600020906005020160040154105b15610b5e57848181548110610aff57610afe6129f1565b5b9060005260206000209060050201600401549350848181548110610b2657610b256129f1565b5b906000526020600020906005020160000160009054906101000a900473ffffffffffffffffffffffffffffffffffffffff1692508091505b8080610b6990612a4f565b915050610a7a565b50600073ffffffffffffffffffffffffffffffffffffffff168273ffffffffffffffffffffffffffffffffffffffff1603610be1576040517f08c379a0000000000000000000000000000000000000000000000000000000008152600401610bd890612ae3565b60405180910390fd5b8460040154831115610c28576040517f08c379a0000000000000000000000000000000000000000000000000000000008152600401610c1f90612b4f565b60405180910390fd5b60018560080160008473ffffffffffffffffffffffffffffffffffffffff1673ffffffffffffffffffffffffffffffffffffffff16815260200190815260200160002060006101000a81548160ff02191690831515021790555060008560040154905060008660040181905550610ca083600a611f5b565b6000600187600601805490501115610df55760006064600987610cc39190612b6f565b610ccd9190612be0565b905060018860060180549050610ce39190612c11565b81610cee9190612be0565b915060005b8860060180549050811015610df2576000896006018281548110610d1a57610d196129f1565b5b9060005260206000200160009054906101000a900473ffffffffffffffffffffffffffffffffffffffff1690508673ffffffffffffffffffffffffffffffffffffffff168173ffffffffffffffffffffffffffffffffffffffff1614610dde57838a600b0160008373ffffffffffffffffffffffffffffffffffffffff1673ffffffffffffffffffffffffffffffffffffffff1681526020019081526020016000206000828254610dcb9190612c45565b92505081905550610ddd816005611f5b565b5b508080610dea90612a4f565b915050610cf3565b50505b8373ffffffffffffffffffffffffffffffffffffffff16887fb8639d96359347ee9c2450fb169ec40a1539570d38bca935b1e2a6fed3e694e4896005015488604051610e42929190612c79565b60405180910390a38373ffffffffffffffffffffffffffffffffffffffff16887f3ab4f323fd531c422d25e49d15ba3d99aefe451f3659533320df5c88255f8a5384604051610e9191906123d8565b60405180910390a38373ffffffffffffffffffffffffffffffffffffffff16887f18516bc2ff7ae42f7fa874a7eec9cc3721e46f3fae984459d0b02475b50d8e5b83604051610ee091906123d8565b60405180910390a3866005016000815480929190610efd90612a4f565b919050555050505050505050610f11611e57565b50565b610f1c611df3565b610f24611e34565b60006001600085815260200190815260200160002090508060070160003373ffffffffffffffffffffffffffffffffffffffff1673ffffffffffffffffffffffffffffffffffffffff16815260200190815260200160002060009054906101000a900460ff16610fc9576040517f08c379a0000000000000000000000000000000000000000000000000000000008152600401610fc0906127b5565b60405180910390fd5b60008383604051602001610fde929190612ce4565b604051602081830303815290604052805190602001209050600082600a0160008460050154815260200190815260200160002090506000805b82805490508110156111b3573373ffffffffffffffffffffffffffffffffffffffff1683828154811061104d5761104c6129f1565b5b906000526020600020906005020160000160009054906101000a900473ffffffffffffffffffffffffffffffffffffffff1673ffffffffffffffffffffffffffffffffffffffff161480156110d157508281815481106110b0576110af6129f1565b5b906000526020600020906005020160030160009054906101000a900460ff16155b801561110357508360001c8382815481106110ef576110ee6129f1565b5b906000526020600020906005020160010154145b156111a057600183828154811061111d5761111c6129f1565b5b906000526020600020906005020160030160006101000a81548160ff02191690831515021790555086838281548110611159576111586129f1565b5b90600052602060002090600502016004018190555085838281548110611182576111816129f1565b5b906000526020600020906005020160020181905550600191506111b3565b80806111ab90612a4f565b915050611017565b50806111f4576040517f08c379a00000000000000000000000000000000000000000000000000000000081526004016111eb90612d82565b60405180910390fd5b3373ffffffffffffffffffffffffffffffffffffffff16877fba834bd29b9c83bed0d9d44ea4d24baaf635bead31040df74304eccaec08a928866005015489604051611241929190612c79565b60405180910390a350505050611255611e57565b505050565b60008060149054906101000a900460ff16905090565b611278611df3565b611280611e34565b60006001600083815260200190815260200160002090508060070160003373ffffffffffffffffffffffffffffffffffffffff1673ffffffffffffffffffffffffffffffffffffffff16815260200190815260200160002060009054906101000a900460ff16611325576040517f08c379a000000000000000000000000000000000000000000000000000000000815260040161131c906127b5565b60405180910390fd5b600081600b0160003373ffffffffffffffffffffffffffffffffffffffff1673ffffffffffffffffffffffffffffffffffffffff168152602001908152602001600020549050600081116113ae576040517f08c379a00000000000000000000000000000000000000000000000000000000081526004016113a590612dee565b60405180910390fd5b600082600b0160003373ffffffffffffffffffffffffffffffffffffffff1673ffffffffffffffffffffffffffffffffffffffff1681526020019081526020016000208190555060003373ffffffffffffffffffffffffffffffffffffffff168260405161141b90612e3f565b60006040518083038185875af1925050503d8060008114611458576040519150601f19603f3d011682016040523d82523d6000602084013e61145d565b606091505b50509050806114a1576040517f08c379a000000000000000000000000000000000000000000000000000000000815260040161149890612ea0565b60405180910390fd5b5050506114ac611e57565b50565b6114b7611e72565b6114c1600061215e565b565b600060016000808152602001908152602001600020600c0160008373ffffffffffffffffffffffffffffffffffffffff1673ffffffffffffffffffffffffffffffffffffffff168152602001908152602001600020549050919050565b611528611e72565b611530612222565b565b60008060009054906101000a900473ffffffffffffffffffffffffffffffffffffffff16905090565b6201518081565b61156a611df3565b611572611e34565b60006001600083815260200190815260200160002090508060070160003373ffffffffffffffffffffffffffffffffffffffff1673ffffffffffffffffffffffffffffffffffffffff16815260200190815260200160002060009054906101000a900460ff16611617576040517f08c379a000000000000000000000000000000000000000000000000000000000815260040161160e906127b5565b60405180910390fd5b8060080160003373ffffffffffffffffffffffffffffffffffffffff1673ffffffffffffffffffffffffffffffffffffffff16815260200190815260200160002060009054906101000a900460ff16156116a6576040517f08c379a000000000000000000000000000000000000000000000000000000000815260040161169d90612f0c565b60405180910390fd5b806002015434146116ec576040517f08c379a00000000000000000000000000000000000000000000000000000000081526004016116e390612f78565b60405180910390fd5b348160090160003373ffffffffffffffffffffffffffffffffffffffff1673ffffffffffffffffffffffffffffffffffffffff168152602001908152602001600020600082825461173d9190612c45565b92505081905550348160040160008282546117589190612c45565b925050819055503373ffffffffffffffffffffffffffffffffffffffff16827f865c884d49c8cecaef108efb20f7d282f26c0f9b0d24dd48e5592d4e02ec658d346040516117a691906123d8565b60405180910390a3506117b7611e57565b50565b60606001600083815260200190815260200160002060060180548060200260200160405190810160405280929190818152602001828054801561185257602002820191906000526020600020905b8160009054906101000a900473ffffffffffffffffffffffffffffffffffffffff1673ffffffffffffffffffffffffffffffffffffffff1681526020019060010190808311611808575b50505050509050919050565b603281565b600061186d611e72565b600184116118b0576040517f08c379a00000000000000000000000000000000000000000000000000000000081526004016118a790612fe4565b60405180910390fd5b600083116118f3576040517f08c379a00000000000000000000000000000000000000000000000000000000081526004016118ea90613076565b60405180910390fd5b60008211611936576040517f08c379a000000000000000000000000000000000000000000000000000000000815260040161192d906130e2565b60405180910390fd5b60006002600081548092919061194b90612a4f565b91905055905060006001600083815260200190815260200160002090508181600001819055508581600101819055508481600201819055508381600301819055506000816004018190555060008160050181905550600181600d0160006101000a81548160ff0219169083151502179055503381600d0160016101000a81548173ffffffffffffffffffffffffffffffffffffffff021916908373ffffffffffffffffffffffffffffffffffffffff1602179055503373ffffffffffffffffffffffffffffffffffffffff16827fdd48c6c19a510fa11b39bd93062ceb47b77965666d93eff740bcb9415b96087f888888604051611a4b93929190613102565b60405180910390a381925050509392505050565b60025481565b600060016000838152602001908152602001600020600501549050919050565b611a8d611e72565b600073ffffffffffffffffffffffffffffffffffffffff168173ffffffffffffffffffffffffffffffffffffffff1603611aff5760006040517f1e4fbdf7000000000000000000000000000000000000000000000000000000008152600401611af6919061260a565b60405180910390fd5b611b088161215e565b50565b611b13611df3565b611b1b611e34565b600060016000838152602001908152602001600020905080600d0160009054906101000a900460ff16611b83576040517f08c379a0000000000000000000000000000000000000000000000000000000008152600401611b7a90613185565b60405180910390fd5b8060070160003373ffffffffffffffffffffffffffffffffffffffff1673ffffffffffffffffffffffffffffffffffffffff16815260200190815260200160002060009054906101000a900460ff1615611c12576040517f08c379a0000000000000000000000000000000000000000000000000000000008152600401611c09906131f1565b60405180910390fd5b8060010154816006018054905010611c5f576040517f08c379a0000000000000000000000000000000000000000000000000000000008152600401611c569061325d565b60405180910390fd5b603281600c0160003373ffffffffffffffffffffffffffffffffffffffff1673ffffffffffffffffffffffffffffffffffffffff168152602001908152602001600020541015611ce4576040517f08c379a0000000000000000000000000000000000000000000000000000000008152600401611cdb906132c9565b60405180910390fd5b80600601339080600181540180825580915050600190039060005260206000200160009091909190916101000a81548173ffffffffffffffffffffffffffffffffffffffff021916908373ffffffffffffffffffffffffffffffffffffffff16021790555060018160070160003373ffffffffffffffffffffffffffffffffffffffff1673ffffffffffffffffffffffffffffffffffffffff16815260200190815260200160002060006101000a81548160ff0219169083151502179055503373ffffffffffffffffffffffffffffffffffffffff16827f78da64a590c3052953ad9e0a5546bbf12bb68ae7634e3fb2a774e22a8c6557c160405160405180910390a350611df0611e57565b50565b611dfb61125a565b15611e32576040517fd93c066500000000000000000000000000000000000000000000000000000000815260040160405180910390fd5b565b611e3c612285565b6002611e4e611e496122c6565b6122f1565b60000181905550565b6001611e69611e646122c6565b6122f1565b60000181905550565b611e7a6122fb565b73ffffffffffffffffffffffffffffffffffffffff16611e98611532565b73ffffffffffffffffffffffffffffffffffffffff1614611ef757611ebb6122fb565b6040517f118cdaa7000000000000000000000000000000000000000000000000000000008152600401611eee919061260a565b60405180910390fd5b565b611f01612303565b60008060146101000a81548160ff0219169083151502179055507f5db9ee0a495bf2e6ff9c91a7834c1ba4fdd244a5e8aa4e537bd38aeae4b073aa611f446122fb565b604051611f51919061260a565b60405180910390a1565b60008082121561203e5781611f6f906132f3565b60016000808152602001908152602001600020600c0160008573ffffffffffffffffffffffffffffffffffffffff1673ffffffffffffffffffffffffffffffffffffffff168152602001908152602001600020541015611fd0576000612039565b81611fda906132f3565b60016000808152602001908152602001600020600c0160008573ffffffffffffffffffffffffffffffffffffffff1673ffffffffffffffffffffffffffffffffffffffff168152602001908152602001600020546120389190612c11565b5b61209e565b8160016000808152602001908152602001600020600c0160008573ffffffffffffffffffffffffffffffffffffffff1673ffffffffffffffffffffffffffffffffffffffff1681526020019081526020016000205461209d919061333b565b5b9050606481116120ae57806120b1565b60645b90508060016000808152602001908152602001600020600c0160008573ffffffffffffffffffffffffffffffffffffffff1673ffffffffffffffffffffffffffffffffffffffff168152602001908152602001600020819055508273ffffffffffffffffffffffffffffffffffffffff167ffc577563f1b9a0461e24abef1e1fcc0d33d3d881f20b5df6dda59de4aae2c8218260405161215191906123d8565b60405180910390a2505050565b60008060009054906101000a900473ffffffffffffffffffffffffffffffffffffffff169050816000806101000a81548173ffffffffffffffffffffffffffffffffffffffff021916908373ffffffffffffffffffffffffffffffffffffffff1602179055508173ffffffffffffffffffffffffffffffffffffffff168173ffffffffffffffffffffffffffffffffffffffff167f8be0079c531659141344cd1fd0a4f28419497f9722a3daafe3b4186f6b6457e060405160405180910390a35050565b61222a611df3565b6001600060146101000a81548160ff0219169083151502179055507f62e78cea01bee320cd4e420270b5ea74000d11b0c9f74754ebdbfc544b05a25861226e6122fb565b60405161227b919061260a565b60405180910390a1565b61228d612343565b156122c4576040517f3ee5aeb500000000000000000000000000000000000000000000000000000000815260040160405180910390fd5b565b60007f9b779b17422d0df92223018b32b4d1fa46e071723d6817e2486d003becc55f0060001b905090565b6000819050919050565b600033905090565b61230b61125a565b612341576040517f8dfc202b00000000000000000000000000000000000000000000000000000000815260040160405180910390fd5b565b600060026123576123526122c6565b6122f1565b6000015414905090565b600080fd5b6000819050919050565b61237981612366565b811461238457600080fd5b50565b60008135905061239681612370565b92915050565b6000602082840312156123b2576123b1612361565b5b60006123c084828501612387565b91505092915050565b6123d281612366565b82525050565b60006020820190506123ed60008301846123c9565b92915050565b6000819050919050565b612406816123f3565b811461241157600080fd5b50565b600081359050612423816123fd565b92915050565b600080604083850312156124405761243f612361565b5b600061244e85828601612387565b925050602061245f85828601612414565b9150509250929050565b60008115159050919050565b61247e81612469565b82525050565b600073ffffffffffffffffffffffffffffffffffffffff82169050919050565b60006124af82612484565b9050919050565b6124bf816124a4565b82525050565b6000610100820190506124db600083018b6123c9565b6124e8602083018a6123c9565b6124f560408301896123c9565b61250260608301886123c9565b61250f60808301876123c9565b61251c60a08301866123c9565b61252960c0830185612475565b61253660e08301846124b6565b9998505050505050505050565b60008060006060848603121561255c5761255b612361565b5b600061256a86828701612387565b935050602061257b86828701612387565b925050604061258c86828701612414565b9150509250925092565b60006020820190506125ab6000830184612475565b92915050565b6125ba816124a4565b81146125c557600080fd5b50565b6000813590506125d7816125b1565b92915050565b6000602082840312156125f3576125f2612361565b5b6000612601848285016125c8565b91505092915050565b600060208201905061261f60008301846124b6565b92915050565b600081519050919050565b600082825260208201905092915050565b6000819050602082019050919050565b61265a816124a4565b82525050565b600061266c8383612651565b60208301905092915050565b6000602082019050919050565b600061269082612625565b61269a8185612630565b93506126a583612641565b8060005b838110156126d65781516126bd8882612660565b97506126c883612678565b9250506001810190506126a9565b5085935050505092915050565b600060208201905081810360008301526126fd8184612685565b905092915050565b60008060006060848603121561271e5761271d612361565b5b600061272c86828701612387565b935050602061273d86828701612387565b925050604061274e86828701612387565b9150509250925092565b600082825260208201905092915050565b7f4e6f742061206d656d626572206f6620746869732067726f7570000000000000600082015250565b600061279f601a83612758565b91506127aa82612769565b602082019050919050565b600060208201905081810360008301526127ce81612792565b9050919050565b7f57696e6e65722063616e6e6f742062696420616761696e000000000000000000600082015250565b600061280b601783612758565b9150612816826127d5565b602082019050919050565b6000602082019050818103600083015261283a816127fe565b9050919050565b7f47726f7570206475726174696f6e20656e646564000000000000000000000000600082015250565b6000612877601483612758565b915061288282612841565b602082019050919050565b600060208201905081810360008301526128a68161286a565b9050919050565b7f416c6c206269647320726563656976656420666f722074686973206d6f6e7468600082015250565b60006128e3602083612758565b91506128ee826128ad565b602082019050919050565b60006020820190508181036000830152612912816128d6565b9050919050565b7f4f6e6c792061646d696e2063616e2073656c6563742077696e6e657200000000600082015250565b600061294f601c83612758565b915061295a82612919565b602082019050919050565b6000602082019050818103600083015261297e81612942565b9050919050565b7f416c6c206d656d62657273206d757374207375626d6974206269647300000000600082015250565b60006129bb601c83612758565b91506129c682612985565b602082019050919050565b600060208201905081810360008301526129ea816129ae565b9050919050565b7f4e487b7100000000000000000000000000000000000000000000000000000000600052603260045260246000fd5b7f4e487b7100000000000000000000000000000000000000000000000000000000600052601160045260246000fd5b6000612a5a82612366565b91507fffffffffffffffffffffffffffffffffffffffffffffffffffffffffffffffff8203612a8c57612a8b612a20565b5b600182019050919050565b7f4e6f2076616c6964206269647320666f756e6400000000000000000000000000600082015250565b6000612acd601383612758565b9150612ad882612a97565b602082019050919050565b60006020820190508181036000830152612afc81612ac0565b9050919050565b7f57696e6e696e6720626964206578636565647320706f74000000000000000000600082015250565b6000612b39601783612758565b9150612b4482612b03565b602082019050919050565b60006020820190508181036000830152612b6881612b2c565b9050919050565b6000612b7a82612366565b9150612b8583612366565b9250828202612b9381612366565b91508282048414831517612baa57612ba9612a20565b5b5092915050565b7f4e487b7100000000000000000000000000000000000000000000000000000000600052601260045260246000fd5b6000612beb82612366565b9150612bf683612366565b925082612c0657612c05612bb1565b5b828204905092915050565b6000612c1c82612366565b9150612c2783612366565b9250828203905081811115612c3f57612c3e612a20565b5b92915050565b6000612c5082612366565b9150612c5b83612366565b9250828201905080821115612c7357612c72612a20565b5b92915050565b6000604082019050612c8e60008301856123c9565b612c9b60208301846123c9565b9392505050565b6000819050919050565b612cbd612cb882612366565b612ca2565b82525050565b6000819050919050565b612cde612cd9826123f3565b612cc3565b82525050565b6000612cf08285612cac565b602082019150612d008284612ccd565b6020820191508190509392505050565b7f426964206e6f7420666f756e64206f7220616c72656164792072657665616c6560008201527f6400000000000000000000000000000000000000000000000000000000000000602082015250565b6000612d6c602183612758565b9150612d7782612d10565b604082019050919050565b60006020820190508181036000830152612d9b81612d5f565b9050919050565b7f4e6f206469766964656e647320746f2077697468647261770000000000000000600082015250565b6000612dd8601883612758565b9150612de382612da2565b602082019050919050565b60006020820190508181036000830152612e0781612dcb565b9050919050565b600081905092915050565b50565b6000612e29600083612e0e565b9150612e3482612e19565b600082019050919050565b6000612e4a82612e1c565b9150819050919050565b7f5472616e73666572206661696c65640000000000000000000000000000000000600082015250565b6000612e8a600f83612758565b9150612e9582612e54565b602082019050919050565b60006020820190508181036000830152612eb981612e7d565b9050919050565b7f57696e6e65722063616e6e6f7420636f6e747269627574652066757274686572600082015250565b6000612ef6602083612758565b9150612f0182612ec0565b602082019050919050565b60006020820190508181036000830152612f2581612ee9565b9050919050565b7f496e636f727265637420636f6e747269627574696f6e20616d6f756e74000000600082015250565b6000612f62601d83612758565b9150612f6d82612f2c565b602082019050919050565b60006020820190508181036000830152612f9181612f55565b9050919050565b7f4d7573742068617665206174206c656173742032206d656d6265727300000000600082015250565b6000612fce601c83612758565b9150612fd982612f98565b602082019050919050565b60006020820190508181036000830152612ffd81612fc1565b9050919050565b7f436f6e747269627574696f6e206d75737420626520677265617465722074686160008201527f6e20300000000000000000000000000000000000000000000000000000000000602082015250565b6000613060602383612758565b915061306b82613004565b604082019050919050565b6000602082019050818103600083015261308f81613053565b9050919050565b7f4475726174696f6e206d7573742062652067726561746572207468616e203000600082015250565b60006130cc601f83612758565b91506130d782613096565b602082019050919050565b600060208201905081810360008301526130fb816130bf565b9050919050565b600060608201905061311760008301866123c9565b61312460208301856123c9565b61313160408301846123c9565b949350505050565b7f47726f7570206973206e6f742061637469766500000000000000000000000000600082015250565b600061316f601383612758565b915061317a82613139565b602082019050919050565b6000602082019050818103600083015261319e81613162565b9050919050565b7f416c7265616479206a6f696e656420746869732067726f757000000000000000600082015250565b60006131db601983612758565b91506131e6826131a5565b602082019050919050565b6000602082019050818103600083015261320a816131ce565b9050919050565b7f47726f75702069732066756c6c00000000000000000000000000000000000000600082015250565b6000613247600d83612758565b915061325282613211565b602082019050919050565b600060208201905081810360008301526132768161323a565b9050919050565b7f496e73756666696369656e742072657075746174696f6e2073636f7265000000600082015250565b60006132b3601d83612758565b91506132be8261327d565b602082019050919050565b600060208201905081810360008301526132e2816132a6565b9050919050565b6000819050919050565b60006132fe826132e9565b91507f800000000000000000000000000000000000000000000000000000000000000082036133305761332f612a20565b5b816000039050919050565b6000613346826132e9565b9150613351836132e9565b92508282019050828112156000831216838212600084121516171561337957613378612a20565b5b9291505056fea26469706673582212209f66ca4d9e44f9b6e313c6f4e4327fc329e26c1248d6f2fe590794dc1eac0d1964736f6c63430008140033",
  "linkReferences": {},
  "deployedLinkReferences": {}
}