{
  "_format": "hh-sol-artifact-1",
  "contractName": "CircleFi",
  "sourceName": "contracts/CircleFi.sol",
  "abi": [
    {
      "inputs": [],
      "stateMutability": "nonpayable",
      "type": "constructor"
    },
    {
      "inputs": [],
      "name": "EnforcedPause",
      "type": "error"
    },
    {
      "inputs": [],
      "name": "ExpectedPause",
      "type": "error"
    },
    {
      "inputs": [
        {
          "internalType": "address",
          "name": "owner",
          "type": "address"
        }
      ],
      "name": "OwnableInvalidOwner",
      "type": "error"
    },
    {
      "inputs": [
        {
          "internalType": "address",
          "name": "account",
          "type": "address"
        }
      ],
      "name": "OwnableUnauthorizedAccount",
      "type": "error"
    },
    {
      "inputs": [],
      "name": "ReentrancyGuardReentrantCall",
      "type": "error"
    },
    {
      "anonymous": false,
      "inputs": [
        {
          "indexed": true,
          "internalType": "uint256",
          "name": "groupId",
          "type": "uint256"
        },
        {
          "indexed": false,
          "internalType": "uint256",
          "name": "month",
          "type": "uint256"
        },
        {
          "indexed": true,
          "internalType": "address",
          "name": "bidder",
          "type": "address"
        },
        {
          "indexed": false,
          "internalType": "uint256",
          "name": "amount",
          "type": "uint256"
        }
      ],
      "name": "BidRevealed",
      "type": "event"
    },
    {
      "anonymous": false,
      "inputs": [
        {
          "indexed": true,
          "internalType": "uint256",
          "name": "groupId",
          "type": "uint256"
        },
        {
          "indexed": false,
          "internalType": "uint256",
          "name": "month",
          "type": "uint256"
        },
        {
          "indexed": true,
          "internalType": "address",
          "name": "bidder",
          "type": "address"
        }
      ],
      "name": "BidSubmitted",
      "type": "event"
    },
    {
      "anonymous": false,
      "inputs": [
        {
          "indexed": true,
          "internalType": "uint256",
          "name": "groupId",
          "type": "uint256"
        },
        {
          "indexed": true,
          "internalType": "address",
          "name": "member",
          "type": "address"
        },
        {
          "indexed": false,
          "internalType": "uint256",
          "name": "amount",
          "type": "uint256"
        }
      ],
      "name": "ContributionReceived",
      "type": "event"
    },
    {
      "anonymous": false,
      "inputs": [
        {
          "indexed": true,
          "internalType": "uint256",
          "name": "groupId",
          "type": "uint256"
        },
        {
          "indexed": true,
          "internalType": "address",
          "name": "member",
          "type": "address"
        },
        {
          "indexed": false,
          "internalType": "uint256",
          "name": "amount",
          "type": "uint256"
        }
      ],
      "name": "DividendPaid",
      "type": "event"
    },
    {
      "anonymous": false,
      "inputs": [
        {
          "indexed": true,
          "internalType": "uint256",
          "name": "groupId",
          "type": "uint256"
        },
        {
          "indexed": false,
          "internalType": "uint256",
          "name": "memberCount",
          "type": "uint256"
        },
        {
          "indexed": false,
          "internalType": "uint256",
          "name": "monthlyContribution",
          "type": "uint256"
        },
        {
          "indexed": false,
          "internalType": "uint256",
          "name": "duration",
          "type": "uint256"
        },
        {
          "indexed": true,
          "internalType": "address",
          "name": "creator",
          "type": "address"
        }
      ],
      "name": "GroupCreated",
      "type": "event"
    },
    {
      "anonymous": false,
      "inputs": [
        {
          "indexed": true,
          "internalType": "uint256",
          "name": "groupId",
          "type": "uint256"
        },
        {
          "indexed": true,
          "internalType": "address",
          "name": "member",
          "type": "address"
        }
      ],
      "name": "MemberJoined",
      "type": "event"
    },
    {
      "anonymous": false,
      "inputs": [
        {
          "indexed": true,
          "internalType": "address",
          "name": "previousOwner",
          "type": "address"
        },
        {
          "indexed": true,
          "internalType": "address",
          "name": "newOwner",
          "type": "address"
        }
      ],
      "name": "OwnershipTransferred",
      "type": "event"
    },
    {
      "anonymous": false,
      "inputs": [
        {
          "indexed": false,
          "internalType": "address",
          "name": "account",
          "type": "address"
        }
      ],
      "name": "Paused",
      "type": "event"
    },
    {
      "anonymous": false,
      "inputs": [
        {
          "indexed": true,
          "internalType": "uint256",
          "name": "groupId",
          "type": "uint256"
        },
        {
          "indexed": true,
          "internalType": "address",
          "name": "winner",
          "type": "address"
        },
        {
          "indexed": false,
          "internalType": "uint256",
          "name": "amount",
          "type": "uint256"
        }
      ],
      "name": "PotDistributed",
      "type": "event"
    },
    {
      "anonymous": false,
      "inputs": [
        {
          "indexed": true,
          "internalType": "uint256",
          "name": "groupId",
          "type": "uint256"
        },
        {
          "indexed": true,
          "internalType": "uint256",
          "name": "proposalId",
          "type": "uint256"
        },
        {
          "indexed": false,
          "internalType": "address",
          "name": "proposer",
          "type": "address"
        },
        {
          "indexed": false,
          "internalType": "enum CircleFi.ProposalType",
          "name": "proposalType",
          "type": "uint8"
        }
      ],
      "name": "ProposalCreated",
      "type": "event"
    },
    {
      "anonymous": false,
      "inputs": [
        {
          "indexed": true,
          "internalType": "uint256",
          "name": "groupId",
          "type": "uint256"
        },
        {
          "indexed": true,
          "internalType": "uint256",
          "name": "proposalId",
          "type": "uint256"
        },
        {
          "indexed": false,
          "internalType": "enum CircleFi.ProposalStatus",
          "name": "status",
          "type": "uint8"
        }
      ],
      "name": "ProposalExecuted",
      "type": "event"
    },
    {
      "anonymous": false,
      "inputs": [
        {
          "indexed": true,
          "internalType": "address",
          "name": "member",
          "type": "address"
        },
        {
          "indexed": false,
          "internalType": "uint256",
          "name": "newScore",
          "type": "uint256"
        }
      ],
      "name": "ReputationUpdated",
      "type": "event"
    },
    {
      "anonymous": false,
      "inputs": [
        {
          "indexed": false,
          "internalType": "address",
          "name": "account",
          "type": "address"
        }
      ],
      "name": "Unpaused",
      "type": "event"
    },
    {
      "anonymous": false,
      "inputs": [
        {
          "indexed": true,
          "internalType": "uint256",
          "name": "groupId",
          "type": "uint256"
        },
        {
          "indexed": true,
          "internalType": "uint256",
          "name": "proposalId",
          "type": "uint256"
        },
        {
          "indexed": false,
          "internalType": "address",
          "name": "voter",
          "type": "address"
        },
        {
          "indexed": false,
          "internalType": "bool",
          "name": "support",
          "type": "bool"
        }
      ],
      "name": "VoteCast",
      "type": "event"
    },
    {
      "anonymous": false,
      "inputs": [
        {
          "indexed": true,
          "internalType": "uint256",
          "name": "groupId",
          "type": "uint256"
        },
        {
          "indexed": false,
          "internalType": "uint256",
          "name": "month",
          "type": "uint256"
        },
        {
          "indexed": true,
          "internalType": "address",
          "name": "winner",
          "type": "address"
        },
        {
          "indexed": false,
          "internalType": "uint256",
          "name": "winningAmount",
          "type": "uint256"
        }
      ],
      "name": "WinnerSelected",
      "type": "event"
    },
    {
      "inputs": [],
      "name": "AUCTION_DEADLINE",
      "outputs": [
        {
          "internalType": "uint256",
          "name": "",
          "type": "uint256"
        }
      ],
      "stateMutability": "view",
      "type": "function"
    },
    {
      "inputs": [],
      "name": "EXIT_PENALTY_BPS",
      "outputs": [
        {
          "internalType": "uint256",
          "name": "",
          "type": "uint256"
        }
      ],
      "stateMutability": "view",
      "type": "function"
    },
    {
      "inputs": [],
      "name": "MIN_REPUTATION_SCORE",
      "outputs": [
        {
          "internalType": "uint256",
          "name": "",
          "type": "uint256"
        }
      ],
      "stateMutability": "view",
      "type": "function"
    },
    {
      "inputs": [
        {
          "internalType": "uint256",
          "name": "",
          "type": "uint256"
        }
      ],
      "name": "chitGroups",
      "outputs": [
        {
          "internalType": "uint256",
          "name": "groupId",
          "type": "uint256"
        },
        {
          "internalType": "string",
          "name": "groupName",
          "type": "string"
        },
        {
          "internalType": "uint256",
          "name": "memberCount",
          "type": "uint256"
        },
        {
          "internalType": "uint256",
          "name": "monthlyContribution",
          "type": "uint256"
        },
        {
          "internalType": "uint256",
          "name": "duration",
          "type": "uint256"
        },
        {
          "internalType": "uint256",
          "name": "totalPot",
          "type": "uint256"
        },
        {
          "internalType": "uint256",
          "name": "currentMonth",
          "type": "uint256"
        },
        {
          "internalType": "bool",
          "name": "isActive",
          "type": "bool"
        },
        {
          "internalType": "address",
          "name": "admin",
          "type": "address"
        }
      ],
      "stateMutability": "view",
      "type": "function"
    },
    {
      "inputs": [
        {
          "internalType": "uint256",
          "name": "_groupId",
          "type": "uint256"
        }
      ],
      "name": "contribute",
      "outputs": [],
      "stateMutability": "payable",
      "type": "function"
    },
    {
      "inputs": [
        {
          "internalType": "string",
          "name": "_groupName",
          "type": "string"
        },
        {
          "internalType": "uint256",
          "name": "_memberCount",
          "type": "uint256"
        },
        {
          "internalType": "uint256",
          "name": "_monthlyContribution",
          "type": "uint256"
        },
        {
          "internalType": "uint256",
          "name": "_duration",
          "type": "uint256"
        }
      ],
      "name": "createChitGroup",
      "outputs": [
        {
          "internalType": "uint256",
          "name": "",
          "type": "uint256"
        }
      ],
      "stateMutability": "nonpayable",
      "type": "function"
    },
    {
      "inputs": [
        {
          "internalType": "uint256",
          "name": "_groupId",
          "type": "uint256"
        },
        {
          "internalType": "enum CircleFi.ProposalType",
          "name": "_proposalType",
          "type": "uint8"
        },
        {
          "internalType": "string",
          "name": "_description",
          "type": "string"
        },
        {
          "internalType": "uint256",
          "name": "_value",
          "type": "uint256"
        },
        {
          "internalType": "address",
          "name": "_targetMember",
          "type": "address"
        },
        {
          "internalType": "uint256",
          "name": "_durationDays",
          "type": "uint256"
        }
      ],
      "name": "createProposal",
      "outputs": [
        {
          "internalType": "uint256",
          "name": "",
          "type": "uint256"
        }
      ],
      "stateMutability": "nonpayable",
      "type": "function"
    },
    {
      "inputs": [
        {
          "internalType": "uint256",
          "name": "_groupId",
          "type": "uint256"
        },
        {
          "internalType": "uint256",
          "name": "_proposalId",
          "type": "uint256"
        }
      ],
      "name": "executeProposal",
      "outputs": [],
      "stateMutability": "nonpayable",
      "type": "function"
    },
    {
      "inputs": [
        {
          "internalType": "uint256",
          "name": "_groupId",
          "type": "uint256"
        }
      ],
      "name": "exitGroup",
      "outputs": [],
      "stateMutability": "nonpayable",
      "type": "function"
    },
    {
      "inputs": [
        {
          "internalType": "uint256",
          "name": "_groupId",
          "type": "uint256"
        }
      ],
      "name": "getCurrentMonth",
      "outputs": [
        {
          "internalType": "uint256",
          "name": "",
          "type": "uint256"
        }
      ],
      "stateMutability": "view",
      "type": "function"
    },
    {
      "inputs": [
        {
          "internalType": "uint256",
          "name": "_groupId",
          "type": "uint256"
        }
      ],
      "name": "getCurrentPot",
      "outputs": [
        {
          "internalType": "uint256",
          "name": "",
          "type": "uint256"
        }
      ],
      "stateMutability": "view",
      "type": "function"
    },
    {
      "inputs": [
        {
          "internalType": "uint256",
          "name": "_groupId",
          "type": "uint256"
        }
      ],
      "name": "getMembers",
      "outputs": [
        {
          "internalType": "address[]",
          "name": "",
          "type": "address[]"
        }
      ],
      "stateMutability": "view",
      "type": "function"
    },
    {
      "inputs": [
        {
          "internalType": "uint256",
          "name": "_groupId",
          "type": "uint256"
        }
      ],
      "name": "getName",
      "outputs": [
        {
          "internalType": "string",
          "name": "",
          "type": "string"
        }
      ],
      "stateMutability": "view",
      "type": "function"
    },
    {
      "inputs": [
        {
          "internalType": "uint256",
          "name": "_groupId",
          "type": "uint256"
        },
        {
          "internalType": "uint256",
          "name": "_proposalId",
          "type": "uint256"
        }
      ],
      "name": "getProposal",
      "outputs": [
        {
          "internalType": "uint256",
          "name": "proposalId",
          "type": "uint256"
        },
        {
          "internalType": "address",
          "name": "proposer",
          "type": "address"
        },
        {
          "internalType": "uint8",
          "name": "proposalType",
          "type": "uint8"
        },
        {
          "internalType": "string",
          "name": "description",
          "type": "string"
        },
        {
          "internalType": "uint256",
          "name": "value",
          "type": "uint256"
        },
        {
          "internalType": "address",
          "name": "targetMember",
          "type": "address"
        },
        {
          "internalType": "uint256",
          "name": "yesVotes",
          "type": "uint256"
        },
        {
          "internalType": "uint256",
          "name": "noVotes",
          "type": "uint256"
        },
        {
          "internalType": "uint256",
          "name": "deadline",
          "type": "uint256"
        },
        {
          "internalType": "uint8",
          "name": "status",
          "type": "uint8"
        }
      ],
      "stateMutability": "view",
      "type": "function"
    },
    {
      "inputs": [
        {
          "internalType": "uint256",
          "name": "_groupId",
          "type": "uint256"
        }
      ],
      "name": "getProposalCount",
      "outputs": [
        {
          "internalType": "uint256",
          "name": "",
          "type": "uint256"
        }
      ],
      "stateMutability": "view",
      "type": "function"
    },
    {
      "inputs": [
        {
          "internalType": "address",
          "name": "_member",
          "type": "address"
        }
      ],
      "name": "getReputationScore",
      "outputs": [
        {
          "internalType": "uint256",
          "name": "",
          "type": "uint256"
        }
      ],
      "stateMutability": "view",
      "type": "function"
    },
    {
      "inputs": [],
      "name": "groupCounter",
      "outputs": [
        {
          "internalType": "uint256",
          "name": "",
          "type": "uint256"
        }
      ],
      "stateMutability": "view",
      "type": "function"
    },
    {
      "inputs": [
        {
          "internalType": "uint256",
          "name": "_groupId",
          "type": "uint256"
        },
        {
          "internalType": "uint256",
          "name": "_proposalId",
          "type": "uint256"
        },
        {
          "internalType": "address",
          "name": "_voter",
          "type": "address"
        }
      ],
      "name": "hasVotedOnProposal",
      "outputs": [
        {
          "internalType": "bool",
          "name": "",
          "type": "bool"
        }
      ],
      "stateMutability": "view",
      "type": "function"
    },
    {
      "inputs": [
        {
          "internalType": "uint256",
          "name": "_groupId",
          "type": "uint256"
        }
      ],
      "name": "joinChitGroup",
      "outputs": [],
      "stateMutability": "nonpayable",
      "type": "function"
    },
    {
      "inputs": [],
      "name": "owner",
      "outputs": [
        {
          "internalType": "address",
          "name": "",
          "type": "address"
        }
      ],
      "stateMutability": "view",
      "type": "function"
    },
    {
      "inputs": [],
      "name": "pause",
      "outputs": [],
      "stateMutability": "nonpayable",
      "type": "function"
    },
    {
      "inputs": [],
      "name": "paused",
      "outputs": [
        {
          "internalType": "bool",
          "name": "",
          "type": "bool"
        }
      ],
      "stateMutability": "view",
      "type": "function"
    },
    {
      "inputs": [
        {
          "internalType": "uint256",
          "name": "",
          "type": "uint256"
        }
      ],
      "name": "proposalCounter",
      "outputs": [
        {
          "internalType": "uint256",
          "name": "",
          "type": "uint256"
        }
      ],
      "stateMutability": "view",
      "type": "function"
    },
    {
      "inputs": [
        {
          "internalType": "uint256",
          "name": "",
          "type": "uint256"
        },
        {
          "internalType": "uint256",
          "name": "",
          "type": "uint256"
        }
      ],
      "name": "proposals",
      "outputs": [
        {
          "internalType": "uint256",
          "name": "proposalId",
          "type": "uint256"
        },
        {
          "internalType": "uint256",
          "name": "groupId",
          "type": "uint256"
        },
        {
          "internalType": "address",
          "name": "proposer",
          "type": "address"
        },
        {
          "internalType": "enum CircleFi.ProposalType",
          "name": "proposalType",
          "type": "uint8"
        },
        {
          "internalType": "string",
          "name": "description",
          "type": "string"
        },
        {
          "internalType": "uint256",
          "name": "value",
          "type": "uint256"
        },
        {
          "internalType": "address",
          "name": "targetMember",
          "type": "address"
        },
        {
          "internalType": "uint256",
          "name": "yesVotes",
          "type": "uint256"
        },
        {
          "internalType": "uint256",
          "name": "noVotes",
          "type": "uint256"
        },
        {
          "internalType": "uint256",
          "name": "deadline",
          "type": "uint256"
        },
        {
          "internalType": "enum CircleFi.ProposalStatus",
          "name": "status",
          "type": "uint8"
        }
      ],
      "stateMutability": "view",
      "type": "function"
    },
    {
      "inputs": [],
      "name": "renounceOwnership",
      "outputs": [],
      "stateMutability": "nonpayable",
      "type": "function"
    },
    {
      "inputs": [
        {
          "internalType": "uint256",
          "name": "_groupId",
          "type": "uint256"
        },
        {
          "internalType": "uint256",
          "name": "_bidAmount",
          "type": "uint256"
        },
        {
          "internalType": "bytes32",
          "name": "_salt",
          "type": "bytes32"
        }
      ],
      "name": "revealBid",
      "outputs": [],
      "stateMutability": "nonpayable",
      "type": "function"
    },
    {
      "inputs": [
        {
          "internalType": "uint256",
          "name": "_groupId",
          "type": "uint256"
        }
      ],
      "name": "selectWinner",
      "outputs": [],
      "stateMutability": "nonpayable",
      "type": "function"
    },
    {
      "inputs": [
        {
          "internalType": "uint256",
          "name": "_groupId",
          "type": "uint256"
        },
        {
          "internalType": "bytes32",
          "name": "_sealedBidHash",
          "type": "bytes32"
        }
      ],
      "name": "submitBid",
      "outputs": [],
      "stateMutability": "nonpayable",
      "type": "function"
    },
    {
      "inputs": [
        {
          "internalType": "address",
          "name": "newOwner",
          "type": "address"
        }
      ],
      "name": "transferOwnership",
      "outputs": [],
      "stateMutability": "nonpayable",
      "type": "function"
    },
    {
      "inputs": [],
      "name": "unpause",
      "outputs": [],
      "stateMutability": "nonpayable",
      "type": "function"
    },
    {
      "inputs": [
        {
          "internalType": "uint256",
          "name": "_groupId",
          "type": "uint256"
        },
        {
          "internalType": "uint256",
          "name": "_proposalId",
          "type": "uint256"
        },
        {
          "internalType": "bool",
          "name": "_support",
          "type": "bool"
        }
      ],
      "name": "vote",
      "outputs": [],
      "stateMutability": "nonpayable",
      "type": "function"
    },
    {
      "inputs": [
        {
          "internalType": "uint256",
          "name": "_groupId",
          "type": "uint256"
        }
      ],
      "name": "withdrawDividend",
      "outputs": [],
      "stateMutability": "nonpayable",
      "type": "function"
    }
  ],
  "bytecode": "0x60806040523480156200001157600080fd5b503360016200003562000029620000c960201b60201c565b620000f460201b60201c565b60000181905550600073ffffffffffffffffffffffffffffffffffffffff168173ffffffffffffffffffffffffffffffffffffffff1603620000b15760006040517f1e4fbdf7000000000000000000000000000000000000000000000000000000008152600401620000a8919062000207565b60405180910390fd5b620000c281620000fe60201b60201c565b5062000224565b60007f9b779b17422d0df92223018b32b4d1fa46e071723d6817e2486d003becc55f0060001b905090565b6000819050919050565b60008060009054906101000a900473ffffffffffffffffffffffffffffffffffffffff169050816000806101000a81548173ffffffffffffffffffffffffffffffffffffffff021916908373ffffffffffffffffffffffffffffffffffffffff1602179055508173ffffffffffffffffffffffffffffffffffffffff168173ffffffffffffffffffffffffffffffffffffffff167f8be0079c531659141344cd1fd0a4f28419497f9722a3daafe3b4186f6b6457e060405160405180910390a35050565b600073ffffffffffffffffffffffffffffffffffffffff82169050919050565b6000620001ef82620001c2565b9050919050565b6200020181620001e2565b82525050565b60006020820190506200021e6000830184620001f6565b92915050565b615af980620002346000396000f3fe6080604052600436106101e35760003560e01c8063715018a611610102578063c477ecab11610095578063ea47b3d411610064578063ea47b3d414610736578063f2fde38b14610773578063f3eff07b1461079c578063f71440f1146107c7576101e3565b8063c477ecab14610666578063c77943c0146106a3578063d24924fe146106ce578063e9dd0f88146106f9576101e3565b8063a213de5c116100d1578063a213de5c14610592578063aba21009146105bd578063c1cbbca714610603578063c2cfee271461061f576101e3565b8063715018a6146104fc57806375a67d5c146105135780638456cb59146105505780638da5cb5b14610567576101e3565b80634018b1de1161017a5780635c975abb116101495780635c975abb146104425780635d9bd8b21461046d5780636a18ff7a146104965780636b8ff574146104bf576101e3565b80634018b1de1461036e5780634936c0f6146103b35780634c524be4146103f05780634d380a0d14610419576101e3565b80631c5efd88116101b65780631c5efd88146102a057806332b8461d146102dd57806333884cac1461031a5780633f4ba83a14610357576101e3565b80630ba0c922146101e85780630f45ccf21461021157806319fcfab11461024e5780631ab7671214610277575b600080fd5b3480156101f457600080fd5b5061020f600480360381019061020a9190613d02565b6107f0565b005b34801561021d57600080fd5b5061023860048036038101906102339190613d02565b610cd7565b6040516102459190613d3e565b60405180910390f35b34801561025a57600080fd5b5061027560048036038101906102709190613d8f565b610cf7565b005b34801561028357600080fd5b5061029e60048036038101906102999190613dcf565b611060565b005b3480156102ac57600080fd5b506102c760048036038101906102c29190613fd8565b61171e565b6040516102d49190613d3e565b60405180910390f35b3480156102e957600080fd5b5061030460048036038101906102ff9190614081565b611a4f565b60405161031191906140ef565b60405180910390f35b34801561032657600080fd5b50610341600480360381019061033c919061410a565b611acc565b60405161034e9190613d3e565b60405180910390f35b34801561036357600080fd5b5061036c611cd3565b005b34801561037a57600080fd5b5061039560048036038101906103909190613d02565b611ce5565b6040516103aa9998979695949392919061421b565b60405180910390f35b3480156103bf57600080fd5b506103da60048036038101906103d59190613d02565b611de8565b6040516103e79190613d3e565b60405180910390f35b3480156103fc57600080fd5b5061041760048036038101906104129190613d02565b611e05565b005b34801561042557600080fd5b50610440600480360381019061043b91906142af565b612437565b005b34801561044e57600080fd5b5061045761277d565b60405161046491906140ef565b60405180910390f35b34801561047957600080fd5b50610494600480360381019061048f9190613d02565b612793565b005b3480156104a257600080fd5b506104bd60048036038101906104b8919061432e565b6129d2565b005b3480156104cb57600080fd5b506104e660048036038101906104e19190613d02565b612ce1565b6040516104f39190614381565b60405180910390f35b34801561050857600080fd5b50610511612d89565b005b34801561051f57600080fd5b5061053a600480360381019061053591906143a3565b612d9d565b6040516105479190613d3e565b60405180910390f35b34801561055c57600080fd5b50610565612dfa565b005b34801561057357600080fd5b5061057c612e0c565b60405161058991906143d0565b60405180910390f35b34801561059e57600080fd5b506105a7612e35565b6040516105b49190613d3e565b60405180910390f35b3480156105c957600080fd5b506105e460048036038101906105df9190613dcf565b612e3c565b6040516105fa9a99989796959493929190614407565b60405180910390f35b61061d60048036038101906106189190613d02565b612fd3565b005b34801561062b57600080fd5b5061064660048036038101906106419190613dcf565b61322b565b60405161065d9b9a99989796959493929190614569565b60405180910390f35b34801561067257600080fd5b5061068d60048036038101906106889190613d02565b613374565b60405161069a91906146d9565b60405180910390f35b3480156106af57600080fd5b506106b8613418565b6040516106c59190613d3e565b60405180910390f35b3480156106da57600080fd5b506106e361341d565b6040516106f09190613d3e565b60405180910390f35b34801561070557600080fd5b50610720600480360381019061071b9190613d02565b613423565b60405161072d9190613d3e565b60405180910390f35b34801561074257600080fd5b5061075d60048036038101906107589190613d02565b61343b565b60405161076a9190613d3e565b60405180910390f35b34801561077f57600080fd5b5061079a600480360381019061079591906143a3565b61345b565b005b3480156107a857600080fd5b506107b16134e1565b6040516107be9190613d3e565b60405180910390f35b3480156107d357600080fd5b506107ee60048036038101906107e99190613d02565b6134e7565b005b6107f861374a565b61080061378b565b600060016000838152602001908152602001600020905080600e0160009054906101000a900460ff16610868576040517f08c379a000000000000000000000000000000000000000000000000000000000815260040161085f90614747565b60405180910390fd5b8060080160003373ffffffffffffffffffffffffffffffffffffffff1673ffffffffffffffffffffffffffffffffffffffff16815260200190815260200160002060009054906101000a900460ff166108f6576040517f08c379a00000000000000000000000000000000000000000000000000000000081526004016108ed906147b3565b60405180910390fd5b60005b8160070180549050811015610a8e573373ffffffffffffffffffffffffffffffffffffffff16826007018281548110610935576109346147d3565b5b9060005260206000200160009054906101000a900473ffffffffffffffffffffffffffffffffffffffff1673ffffffffffffffffffffffffffffffffffffffff1603610a7b5781600701600183600701805490506109939190614831565b815481106109a4576109a36147d3565b5b9060005260206000200160009054906101000a900473ffffffffffffffffffffffffffffffffffffffff168260070182815481106109e5576109e46147d3565b5b9060005260206000200160006101000a81548173ffffffffffffffffffffffffffffffffffffffff021916908373ffffffffffffffffffffffffffffffffffffffff16021790555081600701805480610a4157610a40614865565b5b6001900381819060005260206000200160006101000a81549073ffffffffffffffffffffffffffffffffffffffff02191690559055610a8e565b8080610a8690614894565b9150506108f9565b5060008160080160003373ffffffffffffffffffffffffffffffffffffffff1673ffffffffffffffffffffffffffffffffffffffff16815260200190815260200160002060006101000a81548160ff021916908315150217905550600081600a0160003373ffffffffffffffffffffffffffffffffffffffff1673ffffffffffffffffffffffffffffffffffffffff1681526020019081526020016000205490506000811115610cca5760006127106101f483610b4b91906148dc565b610b55919061494d565b905060008183610b659190614831565b9050600084600a0160003373ffffffffffffffffffffffffffffffffffffffff1673ffffffffffffffffffffffffffffffffffffffff168152602001908152602001600020819055506000811115610cc7578084600501541015610bfe576040517f08c379a0000000000000000000000000000000000000000000000000000000008152600401610bf5906149ca565b60405180910390fd5b80846005016000828254610c129190614831565b9250508190555060003373ffffffffffffffffffffffffffffffffffffffff1682604051610c3f90614a1b565b60006040518083038185875af1925050503d8060008114610c7c576040519150601f19603f3d011682016040523d82523d6000602084013e610c81565b606091505b5050905080610cc5576040517f08c379a0000000000000000000000000000000000000000000000000000000008152600401610cbc90614a7c565b60405180910390fd5b505b50505b5050610cd46137ae565b50565b600060016000838152602001908152602001600020600501549050919050565b610cff61374a565b610d0761378b565b60006001600084815260200190815260200160002090508060080160003373ffffffffffffffffffffffffffffffffffffffff1673ffffffffffffffffffffffffffffffffffffffff16815260200190815260200160002060009054906101000a900460ff16610dac576040517f08c379a0000000000000000000000000000000000000000000000000000000008152600401610da3906147b3565b60405180910390fd5b8060090160003373ffffffffffffffffffffffffffffffffffffffff1673ffffffffffffffffffffffffffffffffffffffff16815260200190815260200160002060009054906101000a900460ff1615610e3b576040517f08c379a0000000000000000000000000000000000000000000000000000000008152600401610e3290614ae8565b60405180910390fd5b8060040154816006015410610e85576040517f08c379a0000000000000000000000000000000000000000000000000000000008152600401610e7c90614b54565b60405180910390fd5b806007018054905081600b016000836006015481526020019081526020016000208054905010610eea576040517f08c379a0000000000000000000000000000000000000000000000000000000008152600401610ee190614bc0565b60405180910390fd5b60006040518060a001604052803373ffffffffffffffffffffffffffffffffffffffff1681526020018460001c81526020016000801b81526020016000151581526020016000815250905081600b0160008360060154815260200190815260200160002081908060018154018082558091505060019003906000526020600020906005020160009091909190915060008201518160000160006101000a81548173ffffffffffffffffffffffffffffffffffffffff021916908373ffffffffffffffffffffffffffffffffffffffff160217905550602082015181600101556040820151816002015560608201518160030160006101000a81548160ff0219169083151502179055506080820151816004015550503373ffffffffffffffffffffffffffffffffffffffff16847f2eef226398f000ec33af3b3be58878356d5c7b195bff89de5067bbfe7d2ee4a3846006015460405161104a9190613d3e565b60405180910390a3505061105c6137ae565b5050565b61106861374a565b61107061378b565b60006001600084815260200190815260200160002090508060080160003373ffffffffffffffffffffffffffffffffffffffff1673ffffffffffffffffffffffffffffffffffffffff16815260200190815260200160002060009054906101000a900460ff16611115576040517f08c379a000000000000000000000000000000000000000000000000000000000815260040161110c90614c2c565b60405180910390fd5b6000600260008581526020019081526020016000206000848152602001908152602001600020905060006003811115611151576111506144aa565b5b8160090160009054906101000a900460ff166003811115611175576111746144aa565b5b146111b5576040517f08c379a00000000000000000000000000000000000000000000000000000000081526004016111ac90614c98565b60405180910390fd5b806008015442116111fb576040517f08c379a00000000000000000000000000000000000000000000000000000000081526004016111f290614d04565b60405180910390fd5b6000816007015482600601546112119190614d24565b905060008111611256576040517f08c379a000000000000000000000000000000000000000000000000000000000815260040161124d90614da4565b60405180910390fd5b60006042826064856006015461126c91906148dc565b611276919061494d565b1015905080156116965760018360090160006101000a81548160ff021916908360038111156112a8576112a76144aa565b5b0217905550600060048111156112c1576112c06144aa565b5b8360020160149054906101000a900460ff1660048111156112e5576112e46144aa565b5b036112fc5782600401548460030181905550611664565b600160048111156113105761130f6144aa565b5b8360020160149054906101000a900460ff166004811115611334576113336144aa565b5b0361134b5782600401548460020181905550611663565b6002600481111561135f5761135e6144aa565b5b8360020160149054906101000a900460ff166004811115611383576113826144aa565b5b036115c85760008460080160008560050160009054906101000a900473ffffffffffffffffffffffffffffffffffffffff1673ffffffffffffffffffffffffffffffffffffffff1673ffffffffffffffffffffffffffffffffffffffff16815260200190815260200160002060006101000a81548160ff02191690831515021790555060005b84600701805490508110156115c2578360050160009054906101000a900473ffffffffffffffffffffffffffffffffffffffff1673ffffffffffffffffffffffffffffffffffffffff16856007018281548110611469576114686147d3565b5b9060005260206000200160009054906101000a900473ffffffffffffffffffffffffffffffffffffffff1673ffffffffffffffffffffffffffffffffffffffff16036115af5784600701600186600701805490506114c79190614831565b815481106114d8576114d76147d3565b5b9060005260206000200160009054906101000a900473ffffffffffffffffffffffffffffffffffffffff16856007018281548110611519576115186147d3565b5b9060005260206000200160006101000a81548173ffffffffffffffffffffffffffffffffffffffff021916908373ffffffffffffffffffffffffffffffffffffffff1602179055508460070180548061157557611574614865565b5b6001900381819060005260206000200160006101000a81549073ffffffffffffffffffffffffffffffffffffffff021916905590556115c2565b80806115ba90614894565b915050611409565b50611662565b600360048111156115dc576115db6144aa565b5b8360020160149054906101000a900460ff166004811115611600576115ff6144aa565b5b031561166157600480811115611619576116186144aa565b5b8360020160149054906101000a900460ff16600481111561163d5761163c6144aa565b5b0361166057600084600e0160006101000a81548160ff0219169083151502179055505b5b5b5b5b60038360090160006101000a81548160ff0219169083600381111561168c5761168b6144aa565b5b02179055506116c4565b60028360090160006101000a81548160ff021916908360038111156116be576116bd6144aa565b5b02179055505b84867fc4a1eb62b140c739bdeba594ea9649595ce2623904685c56204572688460883e8560090160009054906101000a900460ff166040516117069190614dc4565b60405180910390a35050505061171a6137ae565b5050565b600061172861374a565b600060016000898152602001908152602001600020905080600e0160009054906101000a900460ff16611790576040517f08c379a000000000000000000000000000000000000000000000000000000000815260040161178790614e2b565b60405180910390fd5b8060080160003373ffffffffffffffffffffffffffffffffffffffff1673ffffffffffffffffffffffffffffffffffffffff16815260200190815260200160002060009054906101000a900460ff1661181e576040517f08c379a000000000000000000000000000000000000000000000000000000000815260040161181590614c2c565b60405180910390fd5b60008311801561182f5750601e8311155b61186e576040517f08c379a000000000000000000000000000000000000000000000000000000000815260040161186590614e97565b60405180910390fd5b6000600360008a8152602001908152602001600020600081548092919061189490614894565b9190505590506000600260008b815260200190815260200160002060008381526020019081526020016000209050818160000181905550898160010181905550338160020160006101000a81548173ffffffffffffffffffffffffffffffffffffffff021916908373ffffffffffffffffffffffffffffffffffffffff160217905550888160020160146101000a81548160ff0219169083600481111561193e5761193d6144aa565b5b02179055508781600301908161195491906150c3565b50868160040181905550858160050160006101000a81548173ffffffffffffffffffffffffffffffffffffffff021916908373ffffffffffffffffffffffffffffffffffffffff160217905550600081600601819055506000816007018190555062015180856119c491906148dc565b426119cf9190614d24565b816008018190555060008160090160006101000a81548160ff021916908360038111156119ff576119fe6144aa565b5b0217905550818a7fa9b7501054ec8150de9dd4c4819fea4051fa3f26ac91d7d08bfb403ea9a9c216338c604051611a37929190615195565b60405180910390a38193505050509695505050505050565b6000600260008581526020019081526020016000206000848152602001908152602001600020600a0160008373ffffffffffffffffffffffffffffffffffffffff1673ffffffffffffffffffffffffffffffffffffffff16815260200190815260200160002060009054906101000a900460ff1690509392505050565b600060018411611b11576040517f08c379a0000000000000000000000000000000000000000000000000000000008152600401611b089061520a565b60405180910390fd5b60008311611b54576040517f08c379a0000000000000000000000000000000000000000000000000000000008152600401611b4b9061529c565b60405180910390fd5b60008211611b97576040517f08c379a0000000000000000000000000000000000000000000000000000000008152600401611b8e90615308565b60405180910390fd5b600060046000815480929190611bac90614894565b919050559050600060016000838152602001908152602001600020905081816000018190555086816001019081611be391906150c3565b508581600201819055508481600301819055508381600401819055506000816005018190555060008160060181905550600181600e0160006101000a81548160ff0219169083151502179055503381600e0160016101000a81548173ffffffffffffffffffffffffffffffffffffffff021916908373ffffffffffffffffffffffffffffffffffffffff1602179055503373ffffffffffffffffffffffffffffffffffffffff16827fdd48c6c19a510fa11b39bd93062ceb47b77965666d93eff740bcb9415b96087f888888604051611cbe93929190615328565b60405180910390a38192505050949350505050565b611cdb6137c9565b611ce3613850565b565b6001602052806000526040600020600091509050806000015490806001018054611d0e90614ee6565b80601f0160208091040260200160405190810160405280929190818152602001828054611d3a90614ee6565b8015611d875780601f10611d5c57610100808354040283529160200191611d87565b820191906000526020600020905b815481529060010190602001808311611d6a57829003601f168201915b50505050509080600201549080600301549080600401549080600501549080600601549080600e0160009054906101000a900460ff169080600e0160019054906101000a900473ffffffffffffffffffffffffffffffffffffffff16905089565b600060036000838152602001908152602001600020549050919050565b611e0d61374a565b611e1561378b565b600060016000838152602001908152602001600020905080600e0160019054906101000a900473ffffffffffffffffffffffffffffffffffffffff1673ffffffffffffffffffffffffffffffffffffffff163373ffffffffffffffffffffffffffffffffffffffff1614611ebe576040517f08c379a0000000000000000000000000000000000000000000000000000000008152600401611eb5906153ab565b60405180910390fd5b8060040154816006015410611f08576040517f08c379a0000000000000000000000000000000000000000000000000000000008152600401611eff90614b54565b60405180910390fd5b600081600b0160008360060154815260200190815260200160002090508160070180549050818054905014611f72576040517f08c379a0000000000000000000000000000000000000000000000000000000008152600401611f6990615417565b60405180910390fd5b60007fffffffffffffffffffffffffffffffffffffffffffffffffffffffffffffffff905060008060005b848054905081101561209457848181548110611fbc57611fbb6147d3565b5b906000526020600020906005020160030160009054906101000a900460ff16801561200a575083858281548110611ff657611ff56147d3565b5b906000526020600020906005020160040154105b1561208157848181548110612022576120216147d3565b5b9060005260206000209060050201600401549350848181548110612049576120486147d3565b5b906000526020600020906005020160000160009054906101000a900473ffffffffffffffffffffffffffffffffffffffff1692508091505b808061208c90614894565b915050611f9d565b50600073ffffffffffffffffffffffffffffffffffffffff168273ffffffffffffffffffffffffffffffffffffffff1603612104576040517f08c379a00000000000000000000000000000000000000000000000000000000081526004016120fb90615483565b60405180910390fd5b846005015483111561214b576040517f08c379a0000000000000000000000000000000000000000000000000000000008152600401612142906154ef565b60405180910390fd5b60018560090160008473ffffffffffffffffffffffffffffffffffffffff1673ffffffffffffffffffffffffffffffffffffffff16815260200190815260200160002060006101000a81548160ff021916908315150217905550600085600501549050600086600501819055506121c383600a6138b2565b600060018760070180549050111561231857600060646009876121e691906148dc565b6121f0919061494d565b9050600188600701805490506122069190614831565b81612211919061494d565b915060005b886007018054905081101561231557600089600701828154811061223d5761223c6147d3565b5b9060005260206000200160009054906101000a900473ffffffffffffffffffffffffffffffffffffffff1690508673ffffffffffffffffffffffffffffffffffffffff168173ffffffffffffffffffffffffffffffffffffffff161461230157838a600c0160008373ffffffffffffffffffffffffffffffffffffffff1673ffffffffffffffffffffffffffffffffffffffff16815260200190815260200160002060008282546122ee9190614d24565b925050819055506123008160056138b2565b5b50808061230d90614894565b915050612216565b50505b8373ffffffffffffffffffffffffffffffffffffffff16887fb8639d96359347ee9c2450fb169ec40a1539570d38bca935b1e2a6fed3e694e489600601548860405161236592919061550f565b60405180910390a38373ffffffffffffffffffffffffffffffffffffffff16887f3ab4f323fd531c422d25e49d15ba3d99aefe451f3659533320df5c88255f8a53846040516123b49190613d3e565b60405180910390a38373ffffffffffffffffffffffffffffffffffffffff16887f18516bc2ff7ae42f7fa874a7eec9cc3721e46f3fae984459d0b02475b50d8e5b836040516124039190613d3e565b60405180910390a386600601600081548092919061242090614894565b9190505550505050505050506124346137ae565b50565b61243f61374a565b61244761378b565b60006001600085815260200190815260200160002090508060080160003373ffffffffffffffffffffffffffffffffffffffff1673ffffffffffffffffffffffffffffffffffffffff16815260200190815260200160002060009054906101000a900460ff166124ec576040517f08c379a00000000000000000000000000000000000000000000000000000000081526004016124e3906147b3565b60405180910390fd5b6000838360405160200161250192919061557a565b604051602081830303815290604052805190602001209050600082600b0160008460060154815260200190815260200160002090506000805b82805490508110156126d6573373ffffffffffffffffffffffffffffffffffffffff168382815481106125705761256f6147d3565b5b906000526020600020906005020160000160009054906101000a900473ffffffffffffffffffffffffffffffffffffffff1673ffffffffffffffffffffffffffffffffffffffff161480156125f457508281815481106125d3576125d26147d3565b5b906000526020600020906005020160030160009054906101000a900460ff16155b801561262657508360001c838281548110612612576126116147d3565b5b906000526020600020906005020160010154145b156126c35760018382815481106126405761263f6147d3565b5b906000526020600020906005020160030160006101000a81548160ff0219169083151502179055508683828154811061267c5761267b6147d3565b5b906000526020600020906005020160040181905550858382815481106126a5576126a46147d3565b5b906000526020600020906005020160020181905550600191506126d6565b80806126ce90614894565b91505061253a565b5080612717576040517f08c379a000000000000000000000000000000000000000000000000000000000815260040161270e90615618565b60405180910390fd5b3373ffffffffffffffffffffffffffffffffffffffff16877fba834bd29b9c83bed0d9d44ea4d24baaf635bead31040df74304eccaec08a92886600601548960405161276492919061550f565b60405180910390a3505050506127786137ae565b505050565b60008060149054906101000a900460ff16905090565b61279b61374a565b6127a361378b565b60006001600083815260200190815260200160002090508060080160003373ffffffffffffffffffffffffffffffffffffffff1673ffffffffffffffffffffffffffffffffffffffff16815260200190815260200160002060009054906101000a900460ff16612848576040517f08c379a000000000000000000000000000000000000000000000000000000000815260040161283f906147b3565b60405180910390fd5b600081600c0160003373ffffffffffffffffffffffffffffffffffffffff1673ffffffffffffffffffffffffffffffffffffffff168152602001908152602001600020549050600081116128d1576040517f08c379a00000000000000000000000000000000000000000000000000000000081526004016128c890615684565b60405180910390fd5b600082600c0160003373ffffffffffffffffffffffffffffffffffffffff1673ffffffffffffffffffffffffffffffffffffffff1681526020019081526020016000208190555060003373ffffffffffffffffffffffffffffffffffffffff168260405161293e90614a1b565b60006040518083038185875af1925050503d806000811461297b576040519150601f19603f3d011682016040523d82523d6000602084013e612980565b606091505b50509050806129c4576040517f08c379a00000000000000000000000000000000000000000000000000000000081526004016129bb906156f0565b60405180910390fd5b5050506129cf6137ae565b50565b6129da61374a565b6129e261378b565b60006001600085815260200190815260200160002090508060080160003373ffffffffffffffffffffffffffffffffffffffff1673ffffffffffffffffffffffffffffffffffffffff16815260200190815260200160002060009054906101000a900460ff16612a87576040517f08c379a0000000000000000000000000000000000000000000000000000000008152600401612a7e90614c2c565b60405180910390fd5b6000600260008681526020019081526020016000206000858152602001908152602001600020905060006003811115612ac357612ac26144aa565b5b8160090160009054906101000a900460ff166003811115612ae757612ae66144aa565b5b14612b27576040517f08c379a0000000000000000000000000000000000000000000000000000000008152600401612b1e9061575c565b60405180910390fd5b8060080154421115612b6e576040517f08c379a0000000000000000000000000000000000000000000000000000000008152600401612b65906157c8565b60405180910390fd5b80600a0160003373ffffffffffffffffffffffffffffffffffffffff1673ffffffffffffffffffffffffffffffffffffffff16815260200190815260200160002060009054906101000a900460ff1615612bfd576040517f08c379a0000000000000000000000000000000000000000000000000000000008152600401612bf490615834565b60405180910390fd5b600181600a0160003373ffffffffffffffffffffffffffffffffffffffff1673ffffffffffffffffffffffffffffffffffffffff16815260200190815260200160002060006101000a81548160ff0219169083151502179055508215612c7c57806006016000815480929190612c7290614894565b9190505550612c97565b806007016000815480929190612c9190614894565b91905055505b83857fcf406698ccd2e1843c86ce48b4b51b12459c13f2300d5a7887814d571ae224f33386604051612cca929190615854565b60405180910390a35050612cdc6137ae565b505050565b6060600160008381526020019081526020016000206001018054612d0490614ee6565b80601f0160208091040260200160405190810160405280929190818152602001828054612d3090614ee6565b8015612d7d5780601f10612d5257610100808354040283529160200191612d7d565b820191906000526020600020905b815481529060010190602001808311612d6057829003601f168201915b50505050509050919050565b612d916137c9565b612d9b6000613ab5565b565b600060016000808152602001908152602001600020600d0160008373ffffffffffffffffffffffffffffffffffffffff1673ffffffffffffffffffffffffffffffffffffffff168152602001908152602001600020549050919050565b612e026137c9565b612e0a613b79565b565b60008060009054906101000a900473ffffffffffffffffffffffffffffffffffffffff16905090565b6201518081565b600080600060606000806000806000806000600260008e815260200190815260200160002060008d8152602001908152602001600020905080600001548160020160009054906101000a900473ffffffffffffffffffffffffffffffffffffffff168260020160149054906101000a900460ff166004811115612ec257612ec16144aa565b5b8360030184600401548560050160009054906101000a900473ffffffffffffffffffffffffffffffffffffffff168660060154876007015488600801548960090160009054906101000a900460ff166003811115612f2357612f226144aa565b5b868054612f2f90614ee6565b80601f0160208091040260200160405190810160405280929190818152602001828054612f5b90614ee6565b8015612fa85780601f10612f7d57610100808354040283529160200191612fa8565b820191906000526020600020905b815481529060010190602001808311612f8b57829003601f168201915b505050505096509a509a509a509a509a509a509a509a509a509a50509295989b9194979a5092959850565b612fdb61374a565b612fe361378b565b60006001600083815260200190815260200160002090508060080160003373ffffffffffffffffffffffffffffffffffffffff1673ffffffffffffffffffffffffffffffffffffffff16815260200190815260200160002060009054906101000a900460ff16613088576040517f08c379a000000000000000000000000000000000000000000000000000000000815260040161307f906147b3565b60405180910390fd5b8060090160003373ffffffffffffffffffffffffffffffffffffffff1673ffffffffffffffffffffffffffffffffffffffff16815260200190815260200160002060009054906101000a900460ff1615613117576040517f08c379a000000000000000000000000000000000000000000000000000000000815260040161310e906158c9565b60405180910390fd5b8060030154341461315d576040517f08c379a000000000000000000000000000000000000000000000000000000000815260040161315490615935565b60405180910390fd5b3481600a0160003373ffffffffffffffffffffffffffffffffffffffff1673ffffffffffffffffffffffffffffffffffffffff16815260200190815260200160002060008282546131ae9190614d24565b92505081905550348160050160008282546131c99190614d24565b925050819055503373ffffffffffffffffffffffffffffffffffffffff16827f865c884d49c8cecaef108efb20f7d282f26c0f9b0d24dd48e5592d4e02ec658d346040516132179190613d3e565b60405180910390a3506132286137ae565b50565b6002602052816000526040600020602052806000526040600020600091509150508060000154908060010154908060020160009054906101000a900473ffffffffffffffffffffffffffffffffffffffff16908060020160149054906101000a900460ff16908060030180546132a090614ee6565b80601f01602080910402602001604051908101604052809291908181526020018280546132cc90614ee6565b80156133195780601f106132ee57610100808354040283529160200191613319565b820191906000526020600020905b8154815290600101906020018083116132fc57829003601f168201915b5050505050908060040154908060050160009054906101000a900473ffffffffffffffffffffffffffffffffffffffff16908060060154908060070154908060080154908060090160009054906101000a900460ff1690508b565b60606001600083815260200190815260200160002060070180548060200260200160405190810160405280929190818152602001828054801561340c57602002820191906000526020600020905b8160009054906101000a900473ffffffffffffffffffffffffffffffffffffffff1673ffffffffffffffffffffffffffffffffffffffff16815260200190600101908083116133c2575b50505050509050919050565b603281565b60045481565b60036020528060005260406000206000915090505481565b600060016000838152602001908152602001600020600601549050919050565b6134636137c9565b600073ffffffffffffffffffffffffffffffffffffffff168173ffffffffffffffffffffffffffffffffffffffff16036134d55760006040517f1e4fbdf70000000000000000000000000000000000000000000000000000000081526004016134cc91906143d0565b60405180910390fd5b6134de81613ab5565b50565b6101f481565b6134ef61374a565b6134f761378b565b600060016000838152602001908152602001600020905080600e0160009054906101000a900460ff1661355f576040517f08c379a000000000000000000000000000000000000000000000000000000000815260040161355690614747565b60405180910390fd5b8060080160003373ffffffffffffffffffffffffffffffffffffffff1673ffffffffffffffffffffffffffffffffffffffff16815260200190815260200160002060009054906101000a900460ff16156135ee576040517f08c379a00000000000000000000000000000000000000000000000000000000081526004016135e5906159a1565b60405180910390fd5b806002015481600701805490501061363b576040517f08c379a000000000000000000000000000000000000000000000000000000000815260040161363290615a0d565b60405180910390fd5b80600701339080600181540180825580915050600190039060005260206000200160009091909190916101000a81548173ffffffffffffffffffffffffffffffffffffffff021916908373ffffffffffffffffffffffffffffffffffffffff16021790555060018160080160003373ffffffffffffffffffffffffffffffffffffffff1673ffffffffffffffffffffffffffffffffffffffff16815260200190815260200160002060006101000a81548160ff0219169083151502179055503373ffffffffffffffffffffffffffffffffffffffff16827f78da64a590c3052953ad9e0a5546bbf12bb68ae7634e3fb2a774e22a8c6557c160405160405180910390a3506137476137ae565b50565b61375261277d565b15613789576040517fd93c066500000000000000000000000000000000000000000000000000000000815260040160405180910390fd5b565b613793613bdc565b60026137a56137a0613c1d565b613c48565b60000181905550565b60016137c06137bb613c1d565b613c48565b60000181905550565b6137d1613c52565b73ffffffffffffffffffffffffffffffffffffffff166137ef612e0c565b73ffffffffffffffffffffffffffffffffffffffff161461384e57613812613c52565b6040517f118cdaa700000000000000000000000000000000000000000000000000000000815260040161384591906143d0565b60405180910390fd5b565b613858613c5a565b60008060146101000a81548160ff0219169083151502179055507f5db9ee0a495bf2e6ff9c91a7834c1ba4fdd244a5e8aa4e537bd38aeae4b073aa61389b613c52565b6040516138a891906143d0565b60405180910390a1565b60008082121561399557816138c690615a37565b60016000808152602001908152602001600020600d0160008573ffffffffffffffffffffffffffffffffffffffff1673ffffffffffffffffffffffffffffffffffffffff168152602001908152602001600020541015613927576000613990565b8161393190615a37565b60016000808152602001908152602001600020600d0160008573ffffffffffffffffffffffffffffffffffffffff1673ffffffffffffffffffffffffffffffffffffffff1681526020019081526020016000205461398f9190614831565b5b6139f5565b8160016000808152602001908152602001600020600d0160008573ffffffffffffffffffffffffffffffffffffffff1673ffffffffffffffffffffffffffffffffffffffff168152602001908152602001600020546139f49190615a7f565b5b905060648111613a055780613a08565b60645b90508060016000808152602001908152602001600020600d0160008573ffffffffffffffffffffffffffffffffffffffff1673ffffffffffffffffffffffffffffffffffffffff168152602001908152602001600020819055508273ffffffffffffffffffffffffffffffffffffffff167ffc577563f1b9a0461e24abef1e1fcc0d33d3d881f20b5df6dda59de4aae2c82182604051613aa89190613d3e565b60405180910390a2505050565b60008060009054906101000a900473ffffffffffffffffffffffffffffffffffffffff169050816000806101000a81548173ffffffffffffffffffffffffffffffffffffffff021916908373ffffffffffffffffffffffffffffffffffffffff1602179055508173ffffffffffffffffffffffffffffffffffffffff168173ffffffffffffffffffffffffffffffffffffffff167f8be0079c531659141344cd1fd0a4f28419497f9722a3daafe3b4186f6b6457e060405160405180910390a35050565b613b8161374a565b6001600060146101000a81548160ff0219169083151502179055507f62e78cea01bee320cd4e420270b5ea74000d11b0c9f74754ebdbfc544b05a258613bc5613c52565b604051613bd291906143d0565b60405180910390a1565b613be4613c9a565b15613c1b576040517f3ee5aeb500000000000000000000000000000000000000000000000000000000815260040160405180910390fd5b565b60007f9b779b17422d0df92223018b32b4d1fa46e071723d6817e2486d003becc55f0060001b905090565b6000819050919050565b600033905090565b613c6261277d565b613c98576040517f8dfc202b00000000000000000000000000000000000000000000000000000000815260040160405180910390fd5b565b60006002613cae613ca9613c1d565b613c48565b6000015414905090565b6000604051905090565b600080fd5b600080fd5b6000819050919050565b613cdf81613ccc565b8114613cea57600080fd5b50565b600081359050613cfc81613cd6565b92915050565b600060208284031215613d1857613d17613cc2565b5b6000613d2684828501613ced565b91505092915050565b613d3881613ccc565b82525050565b6000602082019050613d536000830184613d2f565b92915050565b6000819050919050565b613d6c81613d59565b8114613d7757600080fd5b50565b600081359050613d8981613d63565b92915050565b60008060408385031215613da657613da5613cc2565b5b6000613db485828601613ced565b9250506020613dc585828601613d7a565b9150509250929050565b60008060408385031215613de657613de5613cc2565b5b6000613df485828601613ced565b9250506020613e0585828601613ced565b9150509250929050565b60058110613e1c57600080fd5b50565b600081359050613e2e81613e0f565b92915050565b600080fd5b600080fd5b6000601f19601f8301169050919050565b7f4e487b7100000000000000000000000000000000000000000000000000000000600052604160045260246000fd5b613e8782613e3e565b810181811067ffffffffffffffff82111715613ea657613ea5613e4f565b5b80604052505050565b6000613eb9613cb8565b9050613ec58282613e7e565b919050565b600067ffffffffffffffff821115613ee557613ee4613e4f565b5b613eee82613e3e565b9050602081019050919050565b82818337600083830152505050565b6000613f1d613f1884613eca565b613eaf565b905082815260208101848484011115613f3957613f38613e39565b5b613f44848285613efb565b509392505050565b600082601f830112613f6157613f60613e34565b5b8135613f71848260208601613f0a565b91505092915050565b600073ffffffffffffffffffffffffffffffffffffffff82169050919050565b6000613fa582613f7a565b9050919050565b613fb581613f9a565b8114613fc057600080fd5b50565b600081359050613fd281613fac565b92915050565b60008060008060008060c08789031215613ff557613ff4613cc2565b5b600061400389828a01613ced565b965050602061401489828a01613e1f565b955050604087013567ffffffffffffffff81111561403557614034613cc7565b5b61404189828a01613f4c565b945050606061405289828a01613ced565b935050608061406389828a01613fc3565b92505060a061407489828a01613ced565b9150509295509295509295565b60008060006060848603121561409a57614099613cc2565b5b60006140a886828701613ced565b93505060206140b986828701613ced565b92505060406140ca86828701613fc3565b9150509250925092565b60008115159050919050565b6140e9816140d4565b82525050565b600060208201905061410460008301846140e0565b92915050565b6000806000806080858703121561412457614123613cc2565b5b600085013567ffffffffffffffff81111561414257614141613cc7565b5b61414e87828801613f4c565b945050602061415f87828801613ced565b935050604061417087828801613ced565b925050606061418187828801613ced565b91505092959194509250565b600081519050919050565b600082825260208201905092915050565b60005b838110156141c75780820151818401526020810190506141ac565b60008484015250505050565b60006141de8261418d565b6141e88185614198565b93506141f88185602086016141a9565b61420181613e3e565b840191505092915050565b61421581613f9a565b82525050565b600061012082019050614231600083018c613d2f565b8181036020830152614243818b6141d3565b9050614252604083018a613d2f565b61425f6060830189613d2f565b61426c6080830188613d2f565b61427960a0830187613d2f565b61428660c0830186613d2f565b61429360e08301856140e0565b6142a161010083018461420c565b9a9950505050505050505050565b6000806000606084860312156142c8576142c7613cc2565b5b60006142d686828701613ced565b93505060206142e786828701613ced565b92505060406142f886828701613d7a565b9150509250925092565b61430b816140d4565b811461431657600080fd5b50565b60008135905061432881614302565b92915050565b60008060006060848603121561434757614346613cc2565b5b600061435586828701613ced565b935050602061436686828701613ced565b925050604061437786828701614319565b9150509250925092565b6000602082019050818103600083015261439b81846141d3565b905092915050565b6000602082840312156143b9576143b8613cc2565b5b60006143c784828501613fc3565b91505092915050565b60006020820190506143e5600083018461420c565b92915050565b600060ff82169050919050565b614401816143eb565b82525050565b60006101408201905061441d600083018d613d2f565b61442a602083018c61420c565b614437604083018b6143f8565b8181036060830152614449818a6141d3565b90506144586080830189613d2f565b61446560a083018861420c565b61447260c0830187613d2f565b61447f60e0830186613d2f565b61448d610100830185613d2f565b61449b6101208301846143f8565b9b9a5050505050505050505050565b7f4e487b7100000000000000000000000000000000000000000000000000000000600052602160045260246000fd5b600581106144ea576144e96144aa565b5b50565b60008190506144fb826144d9565b919050565b600061450b826144ed565b9050919050565b61451b81614500565b82525050565b60048110614532576145316144aa565b5b50565b600081905061454382614521565b919050565b600061455382614535565b9050919050565b61456381614548565b82525050565b60006101608201905061457f600083018e613d2f565b61458c602083018d613d2f565b614599604083018c61420c565b6145a6606083018b614512565b81810360808301526145b8818a6141d3565b90506145c760a0830189613d2f565b6145d460c083018861420c565b6145e160e0830187613d2f565b6145ef610100830186613d2f565b6145fd610120830185613d2f565b61460b61014083018461455a565b9c9b505050505050505050505050565b600081519050919050565b600082825260208201905092915050565b6000819050602082019050919050565b61465081613f9a565b82525050565b60006146628383614647565b60208301905092915050565b6000602082019050919050565b60006146868261461b565b6146908185614626565b935061469b83614637565b8060005b838110156146cc5781516146b38882614656565b97506146be8361466e565b92505060018101905061469f565b5085935050505092915050565b600060208201905081810360008301526146f3818461467b565b905092915050565b7f47726f7570206973206e6f742061637469766500000000000000000000000000600082015250565b6000614731601383614198565b915061473c826146fb565b602082019050919050565b6000602082019050818103600083015261476081614724565b9050919050565b7f4e6f742061206d656d626572206f6620746869732067726f7570000000000000600082015250565b600061479d601a83614198565b91506147a882614767565b602082019050919050565b600060208201905081810360008301526147cc81614790565b9050919050565b7f4e487b7100000000000000000000000000000000000000000000000000000000600052603260045260246000fd5b7f4e487b7100000000000000000000000000000000000000000000000000000000600052601160045260246000fd5b600061483c82613ccc565b915061484783613ccc565b925082820390508181111561485f5761485e614802565b5b92915050565b7f4e487b7100000000000000000000000000000000000000000000000000000000600052603160045260246000fd5b600061489f82613ccc565b91507fffffffffffffffffffffffffffffffffffffffffffffffffffffffffffffffff82036148d1576148d0614802565b5b600182019050919050565b60006148e782613ccc565b91506148f283613ccc565b925082820261490081613ccc565b9150828204841483151761491757614916614802565b5b5092915050565b7f4e487b7100000000000000000000000000000000000000000000000000000000600052601260045260246000fd5b600061495882613ccc565b915061496383613ccc565b9250826149735761497261491e565b5b828204905092915050565b7f496e73756666696369656e7420706f742062616c616e63650000000000000000600082015250565b60006149b4601883614198565b91506149bf8261497e565b602082019050919050565b600060208201905081810360008301526149e3816149a7565b9050919050565b600081905092915050565b50565b6000614a056000836149ea565b9150614a10826149f5565b600082019050919050565b6000614a26826149f8565b9150819050919050565b7f526566756e64206661696c656400000000000000000000000000000000000000600082015250565b6000614a66600d83614198565b9150614a7182614a30565b602082019050919050565b60006020820190508181036000830152614a9581614a59565b9050919050565b7f57696e6e65722063616e6e6f742062696420616761696e000000000000000000600082015250565b6000614ad2601783614198565b9150614add82614a9c565b602082019050919050565b60006020820190508181036000830152614b0181614ac5565b9050919050565b7f47726f7570206475726174696f6e20656e646564000000000000000000000000600082015250565b6000614b3e601483614198565b9150614b4982614b08565b602082019050919050565b60006020820190508181036000830152614b6d81614b31565b9050919050565b7f416c6c206269647320726563656976656420666f722074686973206d6f6e7468600082015250565b6000614baa602083614198565b9150614bb582614b74565b602082019050919050565b60006020820190508181036000830152614bd981614b9d565b9050919050565b7f4e6f742061206d656d6265720000000000000000000000000000000000000000600082015250565b6000614c16600c83614198565b9150614c2182614be0565b602082019050919050565b60006020820190508181036000830152614c4581614c09565b9050919050565b7f4e6f742061637469766500000000000000000000000000000000000000000000600082015250565b6000614c82600a83614198565b9150614c8d82614c4c565b602082019050919050565b60006020820190508181036000830152614cb181614c75565b9050919050565b7f566f74696e67207374696c6c2061637469766500000000000000000000000000600082015250565b6000614cee601383614198565b9150614cf982614cb8565b602082019050919050565b60006020820190508181036000830152614d1d81614ce1565b9050919050565b6000614d2f82613ccc565b9150614d3a83613ccc565b9250828201905080821115614d5257614d51614802565b5b92915050565b7f4e6f20766f746573206361737400000000000000000000000000000000000000600082015250565b6000614d8e600d83614198565b9150614d9982614d58565b602082019050919050565b60006020820190508181036000830152614dbd81614d81565b9050919050565b6000602082019050614dd9600083018461455a565b92915050565b7f47726f7570206e6f742061637469766500000000000000000000000000000000600082015250565b6000614e15601083614198565b9150614e2082614ddf565b602082019050919050565b60006020820190508181036000830152614e4481614e08565b9050919050565b7f496e76616c6964206475726174696f6e00000000000000000000000000000000600082015250565b6000614e81601083614198565b9150614e8c82614e4b565b602082019050919050565b60006020820190508181036000830152614eb081614e74565b9050919050565b7f4e487b7100000000000000000000000000000000000000000000000000000000600052602260045260246000fd5b60006002820490506001821680614efe57607f821691505b602082108103614f1157614f10614eb7565b5b50919050565b60008190508160005260206000209050919050565b60006020601f8301049050919050565b600082821b905092915050565b600060088302614f797fffffffffffffffffffffffffffffffffffffffffffffffffffffffffffffffff82614f3c565b614f838683614f3c565b95508019841693508086168417925050509392505050565b6000819050919050565b6000614fc0614fbb614fb684613ccc565b614f9b565b613ccc565b9050919050565b6000819050919050565b614fda83614fa5565b614fee614fe682614fc7565b848454614f49565b825550505050565b600090565b615003614ff6565b61500e818484614fd1565b505050565b5b8181101561503257615027600082614ffb565b600181019050615014565b5050565b601f8211156150775761504881614f17565b61505184614f2c565b81016020851015615060578190505b61507461506c85614f2c565b830182615013565b50505b505050565b600082821c905092915050565b600061509a6000198460080261507c565b1980831691505092915050565b60006150b38383615089565b9150826002028217905092915050565b6150cc8261418d565b67ffffffffffffffff8111156150e5576150e4613e4f565b5b6150ef8254614ee6565b6150fa828285615036565b600060209050601f83116001811461512d576000841561511b578287015190505b61512585826150a7565b86555061518d565b601f19841661513b86614f17565b60005b828110156151635784890151825560018201915060208501945060208101905061513e565b86831015615180578489015161517c601f891682615089565b8355505b6001600288020188555050505b505050505050565b60006040820190506151aa600083018561420c565b6151b76020830184614512565b9392505050565b7f4d7573742068617665206174206c656173742032206d656d6265727300000000600082015250565b60006151f4601c83614198565b91506151ff826151be565b602082019050919050565b60006020820190508181036000830152615223816151e7565b9050919050565b7f436f6e747269627574696f6e206d75737420626520677265617465722074686160008201527f6e20300000000000000000000000000000000000000000000000000000000000602082015250565b6000615286602383614198565b91506152918261522a565b604082019050919050565b600060208201905081810360008301526152b581615279565b9050919050565b7f4475726174696f6e206d7573742062652067726561746572207468616e203000600082015250565b60006152f2601f83614198565b91506152fd826152bc565b602082019050919050565b60006020820190508181036000830152615321816152e5565b9050919050565b600060608201905061533d6000830186613d2f565b61534a6020830185613d2f565b6153576040830184613d2f565b949350505050565b7f4f6e6c792061646d696e2063616e2073656c6563742077696e6e657200000000600082015250565b6000615395601c83614198565b91506153a08261535f565b602082019050919050565b600060208201905081810360008301526153c481615388565b9050919050565b7f416c6c206d656d62657273206d757374207375626d6974206269647300000000600082015250565b6000615401601c83614198565b915061540c826153cb565b602082019050919050565b60006020820190508181036000830152615430816153f4565b9050919050565b7f4e6f2076616c6964206269647320666f756e6400000000000000000000000000600082015250565b600061546d601383614198565b915061547882615437565b602082019050919050565b6000602082019050818103600083015261549c81615460565b9050919050565b7f57696e6e696e6720626964206578636565647320706f74000000000000000000600082015250565b60006154d9601783614198565b91506154e4826154a3565b602082019050919050565b60006020820190508181036000830152615508816154cc565b9050919050565b60006040820190506155246000830185613d2f565b6155316020830184613d2f565b9392505050565b6000819050919050565b61555361554e82613ccc565b615538565b82525050565b6000819050919050565b61557461556f82613d59565b615559565b82525050565b60006155868285615542565b6020820191506155968284615563565b6020820191508190509392505050565b7f426964206e6f7420666f756e64206f7220616c72656164792072657665616c6560008201527f6400000000000000000000000000000000000000000000000000000000000000602082015250565b6000615602602183614198565b915061560d826155a6565b604082019050919050565b60006020820190508181036000830152615631816155f5565b9050919050565b7f4e6f206469766964656e647320746f2077697468647261770000000000000000600082015250565b600061566e601883614198565b915061567982615638565b602082019050919050565b6000602082019050818103600083015261569d81615661565b9050919050565b7f5472616e73666572206661696c65640000000000000000000000000000000000600082015250565b60006156da600f83614198565b91506156e5826156a4565b602082019050919050565b60006020820190508181036000830152615709816156cd565b9050919050565b7f50726f706f73616c206e6f742061637469766500000000000000000000000000600082015250565b6000615746601383614198565b915061575182615710565b602082019050919050565b6000602082019050818103600083015261577581615739565b9050919050565b7f566f74696e6720656e6465640000000000000000000000000000000000000000600082015250565b60006157b2600c83614198565b91506157bd8261577c565b602082019050919050565b600060208201905081810360008301526157e1816157a5565b9050919050565b7f416c726561647920766f74656400000000000000000000000000000000000000600082015250565b600061581e600d83614198565b9150615829826157e8565b602082019050919050565b6000602082019050818103600083015261584d81615811565b9050919050565b6000604082019050615869600083018561420c565b61587660208301846140e0565b9392505050565b7f57696e6e65722063616e6e6f7420636f6e747269627574652066757274686572600082015250565b60006158b3602083614198565b91506158be8261587d565b602082019050919050565b600060208201905081810360008301526158e2816158a6565b9050919050565b7f496e636f727265637420636f6e747269627574696f6e20616d6f756e74000000600082015250565b600061591f601d83614198565b915061592a826158e9565b602082019050919050565b6000602082019050818103600083015261594e81615912565b9050919050565b7f416c7265616479206a6f696e656420746869732067726f757000000000000000600082015250565b600061598b601983614198565b915061599682615955565b602082019050919050565b600060208201905081810360008301526159ba8161597e565b9050919050565b7f47726f75702069732066756c6c00000000000000000000000000000000000000600082015250565b60006159f7600d83614198565b9150615a02826159c1565b602082019050919050565b60006020820190508181036000830152615a26816159ea565b9050919050565b6000819050919050565b6000615a4282615a2d565b91507f80000000000000000000000000000000000000000000000000000000000000008203615a7457615a73614802565b5b816000039050919050565b6000615a8a82615a2d565b9150615a9583615a2d565b925082820190508281121560008312168382126000841215161715615abd57615abc614802565b5b9291505056fea2646970667358221220415a153b4442f69d7973551caa7ffabf1974ad61b9efbb9d0f28c13aa3b8e62e64736f6c63430008140033",
  "linkReferences": {},
  "deployedLinkReferences": {}
}