{
  "_format": "hh-sol-artifact-1",
  "contractName": "CircleFi",
  "sourceName": "contracts/CircleFi.sol",
  "abi": [
    {
      "inputs": [],
      "stateMutability": "nonpayable",
      "type": "constructor"
    },
    {
      "inputs": [],
      "name": "EnforcedPause",
      "type": "error"
    },
    {
      "inputs": [],
      "name": "ExpectedPause",
      "type": "error"
    },
    {
      "inputs": [
        {
          "internalType": "address",
          "name": "owner",
          "type": "address"
        }
      ],
      "name": "OwnableInvalidOwner",
      "type": "error"
    },
    {
      "inputs": [
        {
          "internalType": "address",
          "name": "account",
          "type": "address"
        }
      ],
      "name": "OwnableUnauthorizedAccount",
      "type": "error"
    },
    {
      "inputs": [],
      "name": "ReentrancyGuardReentrantCall",
      "type": "error"
    },
    {
      "anonymous": false,
      "inputs": [
        {
          "indexed": true,
          "internalType": "uint256",
          "name": "groupId",
          "type": "uint256"
        },
        {
          "indexed": false,
          "internalType": "uint256",
          "name": "month",
          "type": "uint256"
        },
        {
          "indexed": true,
          "internalType": "address",
          "name": "bidder",
          "type": "address"
        },
        {
          "indexed": false,
          "internalType": "uint256",
          "name": "amount",
          "type": "uint256"
        }
      ],
      "name": "BidRevealed",
      "type": "event"
    },
    {
      "anonymous": false,
      "inputs": [
        {
          "indexed": true,
          "internalType": "uint256",
          "name": "groupId",
          "type": "uint256"
        },
        {
          "indexed": false,
          "internalType": "uint256",
          "name": "month",
          "type": "uint256"
        },
        {
          "indexed": true,
          "internalType": "address",
          "name": "bidder",
          "type": "address"
        }
      ],
      "name": "BidSubmitted",
      "type": "event"
    },
    {
      "anonymous": false,
      "inputs": [
        {
          "indexed": true,
          "internalType": "uint256",
          "name": "groupId",
          "type": "uint256"
        },
        {
          "indexed": true,
          "internalType": "address",
          "name": "member",
          "type": "address"
        },
        {
          "indexed": false,
          "internalType": "uint256",
          "name": "amount",
          "type": "uint256"
        }
      ],
      "name": "ContributionReceived",
      "type": "event"
    },
    {
      "anonymous": false,
      "inputs": [
        {
          "indexed": true,
          "internalType": "uint256",
          "name": "groupId",
          "type": "uint256"
        },
        {
          "indexed": true,
          "internalType": "address",
          "name": "member",
          "type": "address"
        },
        {
          "indexed": false,
          "internalType": "uint256",
          "name": "amount",
          "type": "uint256"
        }
      ],
      "name": "DividendPaid",
      "type": "event"
    },
    {
      "anonymous": false,
      "inputs": [
        {
          "indexed": true,
          "internalType": "uint256",
          "name": "groupId",
          "type": "uint256"
        },
        {
          "indexed": false,
          "internalType": "uint256",
          "name": "memberCount",
          "type": "uint256"
        },
        {
          "indexed": false,
          "internalType": "uint256",
          "name": "monthlyContribution",
          "type": "uint256"
        },
        {
          "indexed": false,
          "internalType": "uint256",
          "name": "duration",
          "type": "uint256"
        },
        {
          "indexed": true,
          "internalType": "address",
          "name": "creator",
          "type": "address"
        }
      ],
      "name": "GroupCreated",
      "type": "event"
    },
    {
      "anonymous": false,
      "inputs": [
        {
          "indexed": true,
          "internalType": "uint256",
          "name": "groupId",
          "type": "uint256"
        },
        {
          "indexed": true,
          "internalType": "address",
          "name": "member",
          "type": "address"
        }
      ],
      "name": "MemberJoined",
      "type": "event"
    },
    {
      "anonymous": false,
      "inputs": [
        {
          "indexed": true,
          "internalType": "address",
          "name": "previousOwner",
          "type": "address"
        },
        {
          "indexed": true,
          "internalType": "address",
          "name": "newOwner",
          "type": "address"
        }
      ],
      "name": "OwnershipTransferred",
      "type": "event"
    },
    {
      "anonymous": false,
      "inputs": [
        {
          "indexed": false,
          "internalType": "address",
          "name": "account",
          "type": "address"
        }
      ],
      "name": "Paused",
      "type": "event"
    },
    {
      "anonymous": false,
      "inputs": [
        {
          "indexed": true,
          "internalType": "uint256",
          "name": "groupId",
          "type": "uint256"
        },
        {
          "indexed": true,
          "internalType": "address",
          "name": "winner",
          "type": "address"
        },
        {
          "indexed": false,
          "internalType": "uint256",
          "name": "amount",
          "type": "uint256"
        }
      ],
      "name": "PotDistributed",
      "type": "event"
    },
    {
      "anonymous": false,
      "inputs": [
        {
          "indexed": true,
          "internalType": "address",
          "name": "member",
          "type": "address"
        },
        {
          "indexed": false,
          "internalType": "uint256",
          "name": "newScore",
          "type": "uint256"
        }
      ],
      "name": "ReputationUpdated",
      "type": "event"
    },
    {
      "anonymous": false,
      "inputs": [
        {
          "indexed": false,
          "internalType": "address",
          "name": "account",
          "type": "address"
        }
      ],
      "name": "Unpaused",
      "type": "event"
    },
    {
      "anonymous": false,
      "inputs": [
        {
          "indexed": true,
          "internalType": "uint256",
          "name": "groupId",
          "type": "uint256"
        },
        {
          "indexed": false,
          "internalType": "uint256",
          "name": "month",
          "type": "uint256"
        },
        {
          "indexed": true,
          "internalType": "address",
          "name": "winner",
          "type": "address"
        },
        {
          "indexed": false,
          "internalType": "uint256",
          "name": "winningAmount",
          "type": "uint256"
        }
      ],
      "name": "WinnerSelected",
      "type": "event"
    },
    {
      "inputs": [],
      "name": "AUCTION_DEADLINE",
      "outputs": [
        {
          "internalType": "uint256",
          "name": "",
          "type": "uint256"
        }
      ],
      "stateMutability": "view",
      "type": "function"
    },
    {
      "inputs": [],
      "name": "EXIT_PENALTY_BPS",
      "outputs": [
        {
          "internalType": "uint256",
          "name": "",
          "type": "uint256"
        }
      ],
      "stateMutability": "view",
      "type": "function"
    },
    {
      "inputs": [],
      "name": "MIN_REPUTATION_SCORE",
      "outputs": [
        {
          "internalType": "uint256",
          "name": "",
          "type": "uint256"
        }
      ],
      "stateMutability": "view",
      "type": "function"
    },
    {
      "inputs": [
        {
          "internalType": "uint256",
          "name": "",
          "type": "uint256"
        }
      ],
      "name": "chitGroups",
      "outputs": [
        {
          "internalType": "uint256",
          "name": "groupId",
          "type": "uint256"
        },
        {
          "internalType": "string",
          "name": "groupName",
          "type": "string"
        },
        {
          "internalType": "uint256",
          "name": "memberCount",
          "type": "uint256"
        },
        {
          "internalType": "uint256",
          "name": "monthlyContribution",
          "type": "uint256"
        },
        {
          "internalType": "uint256",
          "name": "duration",
          "type": "uint256"
        },
        {
          "internalType": "uint256",
          "name": "totalPot",
          "type": "uint256"
        },
        {
          "internalType": "uint256",
          "name": "currentMonth",
          "type": "uint256"
        },
        {
          "internalType": "bool",
          "name": "isActive",
          "type": "bool"
        },
        {
          "internalType": "address",
          "name": "admin",
          "type": "address"
        }
      ],
      "stateMutability": "view",
      "type": "function"
    },
    {
      "inputs": [
        {
          "internalType": "uint256",
          "name": "_groupId",
          "type": "uint256"
        }
      ],
      "name": "contribute",
      "outputs": [],
      "stateMutability": "payable",
      "type": "function"
    },
    {
      "inputs": [
        {
          "internalType": "uint256",
          "name": "_memberCount",
          "type": "uint256"
        },
        {
          "internalType": "uint256",
          "name": "_monthlyContribution",
          "type": "uint256"
        },
        {
          "internalType": "uint256",
          "name": "_duration",
          "type": "uint256"
        }
      ],
      "name": "createChitGroup",
      "outputs": [
        {
          "internalType": "uint256",
          "name": "",
          "type": "uint256"
        }
      ],
      "stateMutability": "nonpayable",
      "type": "function"
    },
    {
      "inputs": [
        {
          "internalType": "uint256",
          "name": "_groupId",
          "type": "uint256"
        }
      ],
      "name": "exitGroup",
      "outputs": [],
      "stateMutability": "nonpayable",
      "type": "function"
    },
    {
      "inputs": [
        {
          "internalType": "uint256",
          "name": "_groupId",
          "type": "uint256"
        }
      ],
      "name": "getCurrentMonth",
      "outputs": [
        {
          "internalType": "uint256",
          "name": "",
          "type": "uint256"
        }
      ],
      "stateMutability": "view",
      "type": "function"
    },
    {
      "inputs": [
        {
          "internalType": "uint256",
          "name": "_groupId",
          "type": "uint256"
        }
      ],
      "name": "getCurrentPot",
      "outputs": [
        {
          "internalType": "uint256",
          "name": "",
          "type": "uint256"
        }
      ],
      "stateMutability": "view",
      "type": "function"
    },
    {
      "inputs": [
        {
          "internalType": "uint256",
          "name": "_groupId",
          "type": "uint256"
        }
      ],
      "name": "getMembers",
      "outputs": [
        {
          "internalType": "address[]",
          "name": "",
          "type": "address[]"
        }
      ],
      "stateMutability": "view",
      "type": "function"
    },
    {
      "inputs": [
        {
          "internalType": "uint256",
          "name": "_groupId",
          "type": "uint256"
        }
      ],
      "name": "getName",
      "outputs": [
        {
          "internalType": "string",
          "name": "",
          "type": "string"
        }
      ],
      "stateMutability": "view",
      "type": "function"
    },
    {
      "inputs": [
        {
          "internalType": "address",
          "name": "_member",
          "type": "address"
        }
      ],
      "name": "getReputationScore",
      "outputs": [
        {
          "internalType": "uint256",
          "name": "",
          "type": "uint256"
        }
      ],
      "stateMutability": "view",
      "type": "function"
    },
    {
      "inputs": [],
      "name": "groupCounter",
      "outputs": [
        {
          "internalType": "uint256",
          "name": "",
          "type": "uint256"
        }
      ],
      "stateMutability": "view",
      "type": "function"
    },
    {
      "inputs": [
        {
          "internalType": "uint256",
          "name": "_groupId",
          "type": "uint256"
        }
      ],
      "name": "joinChitGroup",
      "outputs": [],
      "stateMutability": "nonpayable",
      "type": "function"
    },
    {
      "inputs": [],
      "name": "owner",
      "outputs": [
        {
          "internalType": "address",
          "name": "",
          "type": "address"
        }
      ],
      "stateMutability": "view",
      "type": "function"
    },
    {
      "inputs": [],
      "name": "pause",
      "outputs": [],
      "stateMutability": "nonpayable",
      "type": "function"
    },
    {
      "inputs": [],
      "name": "paused",
      "outputs": [
        {
          "internalType": "bool",
          "name": "",
          "type": "bool"
        }
      ],
      "stateMutability": "view",
      "type": "function"
    },
    {
      "inputs": [],
      "name": "renounceOwnership",
      "outputs": [],
      "stateMutability": "nonpayable",
      "type": "function"
    },
    {
      "inputs": [
        {
          "internalType": "uint256",
          "name": "_groupId",
          "type": "uint256"
        },
        {
          "internalType": "uint256",
          "name": "_bidAmount",
          "type": "uint256"
        },
        {
          "internalType": "bytes32",
          "name": "_salt",
          "type": "bytes32"
        }
      ],
      "name": "revealBid",
      "outputs": [],
      "stateMutability": "nonpayable",
      "type": "function"
    },
    {
      "inputs": [
        {
          "internalType": "uint256",
          "name": "_groupId",
          "type": "uint256"
        }
      ],
      "name": "selectWinner",
      "outputs": [],
      "stateMutability": "nonpayable",
      "type": "function"
    },
    {
      "inputs": [
        {
          "internalType": "uint256",
          "name": "_groupId",
          "type": "uint256"
        },
        {
          "internalType": "bytes32",
          "name": "_sealedBidHash",
          "type": "bytes32"
        }
      ],
      "name": "submitBid",
      "outputs": [],
      "stateMutability": "nonpayable",
      "type": "function"
    },
    {
      "inputs": [
        {
          "internalType": "address",
          "name": "newOwner",
          "type": "address"
        }
      ],
      "name": "transferOwnership",
      "outputs": [],
      "stateMutability": "nonpayable",
      "type": "function"
    },
    {
      "inputs": [],
      "name": "unpause",
      "outputs": [],
      "stateMutability": "nonpayable",
      "type": "function"
    },
    {
      "inputs": [
        {
          "internalType": "uint256",
          "name": "_groupId",
          "type": "uint256"
        }
      ],
      "name": "withdrawDividend",
      "outputs": [],
      "stateMutability": "nonpayable",
      "type": "function"
    }
  ],
  "bytecode": "0x60806040523480156200001157600080fd5b503360016200003562000029620000c960201b60201c565b620000f460201b60201c565b60000181905550600073ffffffffffffffffffffffffffffffffffffffff168173ffffffffffffffffffffffffffffffffffffffff1603620000b15760006040517f1e4fbdf7000000000000000000000000000000000000000000000000000000008152600401620000a8919062000207565b60405180910390fd5b620000c281620000fe60201b60201c565b5062000224565b60007f9b779b17422d0df92223018b32b4d1fa46e071723d6817e2486d003becc55f0060001b905090565b6000819050919050565b60008060009054906101000a900473ffffffffffffffffffffffffffffffffffffffff169050816000806101000a81548173ffffffffffffffffffffffffffffffffffffffff021916908373ffffffffffffffffffffffffffffffffffffffff1602179055508173ffffffffffffffffffffffffffffffffffffffff168173ffffffffffffffffffffffffffffffffffffffff167f8be0079c531659141344cd1fd0a4f28419497f9722a3daafe3b4186f6b6457e060405160405180910390a35050565b600073ffffffffffffffffffffffffffffffffffffffff82169050919050565b6000620001ef82620001c2565b9050919050565b6200020181620001e2565b82525050565b60006020820190506200021e6000830184620001f6565b92915050565b613f7780620002346000396000f3fe60806040526004361061014b5760003560e01c80638456cb59116100b6578063cff0d4b71161006f578063cff0d4b714610463578063d24924fe146104a0578063ea47b3d4146104cb578063f2fde38b14610508578063f3eff07b14610531578063f71440f11461055c5761014b565b80638456cb59146103725780638da5cb5b14610389578063a213de5c146103b4578063c1cbbca7146103df578063c477ecab146103fb578063c77943c0146104385761014b565b80634d380a0d116101085780634d380a0d146102645780635c975abb1461028d5780635d9bd8b2146102b85780636b8ff574146102e1578063715018a61461031e57806375a67d5c146103355761014b565b80630ba0c922146101505780630f45ccf21461017957806319fcfab1146101b65780633f4ba83a146101df5780634018b1de146101f65780634c524be41461023b575b600080fd5b34801561015c57600080fd5b5061017760048036038101906101729190612a93565b610585565b005b34801561018557600080fd5b506101a0600480360381019061019b9190612a93565b610a6c565b6040516101ad9190612acf565b60405180910390f35b3480156101c257600080fd5b506101dd60048036038101906101d89190612b20565b610a8c565b005b3480156101eb57600080fd5b506101f4610df5565b005b34801561020257600080fd5b5061021d60048036038101906102189190612a93565b610e07565b60405161023299989796959493929190612c4c565b60405180910390f35b34801561024757600080fd5b50610262600480360381019061025d9190612a93565b610f0a565b005b34801561027057600080fd5b5061028b60048036038101906102869190612ce0565b61153c565b005b34801561029957600080fd5b506102a2611882565b6040516102af9190612d33565b60405180910390f35b3480156102c457600080fd5b506102df60048036038101906102da9190612a93565b611898565b005b3480156102ed57600080fd5b5061030860048036038101906103039190612a93565b611ad7565b6040516103159190612d4e565b60405180910390f35b34801561032a57600080fd5b50610333611b7f565b005b34801561034157600080fd5b5061035c60048036038101906103579190612d9c565b611b93565b6040516103699190612acf565b60405180910390f35b34801561037e57600080fd5b50610387611bf0565b005b34801561039557600080fd5b5061039e611c02565b6040516103ab9190612dc9565b60405180910390f35b3480156103c057600080fd5b506103c9611c2b565b6040516103d69190612acf565b60405180910390f35b6103f960048036038101906103f49190612a93565b611c32565b005b34801561040757600080fd5b50610422600480360381019061041d9190612a93565b611e8a565b60405161042f9190612ea2565b60405180910390f35b34801561044457600080fd5b5061044d611f2e565b60405161045a9190612acf565b60405180910390f35b34801561046f57600080fd5b5061048a60048036038101906104859190612ec4565b611f33565b6040516104979190612acf565b60405180910390f35b3480156104ac57600080fd5b506104b5612150565b6040516104c29190612acf565b60405180910390f35b3480156104d757600080fd5b506104f260048036038101906104ed9190612a93565b612156565b6040516104ff9190612acf565b60405180910390f35b34801561051457600080fd5b5061052f600480360381019061052a9190612d9c565b612176565b005b34801561053d57600080fd5b506105466121fc565b6040516105539190612acf565b60405180910390f35b34801561056857600080fd5b50610583600480360381019061057e9190612a93565b612202565b005b61058d6124ea565b61059561252b565b600060016000838152602001908152602001600020905080600e0160009054906101000a900460ff166105fd576040517f08c379a00000000000000000000000000000000000000000000000000000000081526004016105f490612f63565b60405180910390fd5b8060080160003373ffffffffffffffffffffffffffffffffffffffff1673ffffffffffffffffffffffffffffffffffffffff16815260200190815260200160002060009054906101000a900460ff1661068b576040517f08c379a000000000000000000000000000000000000000000000000000000000815260040161068290612fcf565b60405180910390fd5b60005b8160070180549050811015610823573373ffffffffffffffffffffffffffffffffffffffff168260070182815481106106ca576106c9612fef565b5b9060005260206000200160009054906101000a900473ffffffffffffffffffffffffffffffffffffffff1673ffffffffffffffffffffffffffffffffffffffff1603610810578160070160018360070180549050610728919061304d565b8154811061073957610738612fef565b5b9060005260206000200160009054906101000a900473ffffffffffffffffffffffffffffffffffffffff1682600701828154811061077a57610779612fef565b5b9060005260206000200160006101000a81548173ffffffffffffffffffffffffffffffffffffffff021916908373ffffffffffffffffffffffffffffffffffffffff160217905550816007018054806107d6576107d5613081565b5b6001900381819060005260206000200160006101000a81549073ffffffffffffffffffffffffffffffffffffffff02191690559055610823565b808061081b906130b0565b91505061068e565b5060008160080160003373ffffffffffffffffffffffffffffffffffffffff1673ffffffffffffffffffffffffffffffffffffffff16815260200190815260200160002060006101000a81548160ff021916908315150217905550600081600a0160003373ffffffffffffffffffffffffffffffffffffffff1673ffffffffffffffffffffffffffffffffffffffff1681526020019081526020016000205490506000811115610a5f5760006127106101f4836108e091906130f8565b6108ea9190613169565b9050600081836108fa919061304d565b9050600084600a0160003373ffffffffffffffffffffffffffffffffffffffff1673ffffffffffffffffffffffffffffffffffffffff168152602001908152602001600020819055506000811115610a5c578084600501541015610993576040517f08c379a000000000000000000000000000000000000000000000000000000000815260040161098a906131e6565b60405180910390fd5b808460050160008282546109a7919061304d565b9250508190555060003373ffffffffffffffffffffffffffffffffffffffff16826040516109d490613237565b60006040518083038185875af1925050503d8060008114610a11576040519150601f19603f3d011682016040523d82523d6000602084013e610a16565b606091505b5050905080610a5a576040517f08c379a0000000000000000000000000000000000000000000000000000000008152600401610a5190613298565b60405180910390fd5b505b50505b5050610a6961254e565b50565b600060016000838152602001908152602001600020600501549050919050565b610a946124ea565b610a9c61252b565b60006001600084815260200190815260200160002090508060080160003373ffffffffffffffffffffffffffffffffffffffff1673ffffffffffffffffffffffffffffffffffffffff16815260200190815260200160002060009054906101000a900460ff16610b41576040517f08c379a0000000000000000000000000000000000000000000000000000000008152600401610b3890612fcf565b60405180910390fd5b8060090160003373ffffffffffffffffffffffffffffffffffffffff1673ffffffffffffffffffffffffffffffffffffffff16815260200190815260200160002060009054906101000a900460ff1615610bd0576040517f08c379a0000000000000000000000000000000000000000000000000000000008152600401610bc790613304565b60405180910390fd5b8060040154816006015410610c1a576040517f08c379a0000000000000000000000000000000000000000000000000000000008152600401610c1190613370565b60405180910390fd5b806007018054905081600b016000836006015481526020019081526020016000208054905010610c7f576040517f08c379a0000000000000000000000000000000000000000000000000000000008152600401610c76906133dc565b60405180910390fd5b60006040518060a001604052803373ffffffffffffffffffffffffffffffffffffffff1681526020018460001c81526020016000801b81526020016000151581526020016000815250905081600b0160008360060154815260200190815260200160002081908060018154018082558091505060019003906000526020600020906005020160009091909190915060008201518160000160006101000a81548173ffffffffffffffffffffffffffffffffffffffff021916908373ffffffffffffffffffffffffffffffffffffffff160217905550602082015181600101556040820151816002015560608201518160030160006101000a81548160ff0219169083151502179055506080820151816004015550503373ffffffffffffffffffffffffffffffffffffffff16847f2eef226398f000ec33af3b3be58878356d5c7b195bff89de5067bbfe7d2ee4a38460060154604051610ddf9190612acf565b60405180910390a35050610df161254e565b5050565b610dfd612569565b610e056125f0565b565b6001602052806000526040600020600091509050806000015490806001018054610e309061342b565b80601f0160208091040260200160405190810160405280929190818152602001828054610e5c9061342b565b8015610ea95780601f10610e7e57610100808354040283529160200191610ea9565b820191906000526020600020905b815481529060010190602001808311610e8c57829003601f168201915b50505050509080600201549080600301549080600401549080600501549080600601549080600e0160009054906101000a900460ff169080600e0160019054906101000a900473ffffffffffffffffffffffffffffffffffffffff16905089565b610f126124ea565b610f1a61252b565b600060016000838152602001908152602001600020905080600e0160019054906101000a900473ffffffffffffffffffffffffffffffffffffffff1673ffffffffffffffffffffffffffffffffffffffff163373ffffffffffffffffffffffffffffffffffffffff1614610fc3576040517f08c379a0000000000000000000000000000000000000000000000000000000008152600401610fba906134a8565b60405180910390fd5b806004015481600601541061100d576040517f08c379a000000000000000000000000000000000000000000000000000000000815260040161100490613370565b60405180910390fd5b600081600b0160008360060154815260200190815260200160002090508160070180549050818054905014611077576040517f08c379a000000000000000000000000000000000000000000000000000000000815260040161106e90613514565b60405180910390fd5b60007fffffffffffffffffffffffffffffffffffffffffffffffffffffffffffffffff905060008060005b8480549050811015611199578481815481106110c1576110c0612fef565b5b906000526020600020906005020160030160009054906101000a900460ff16801561110f5750838582815481106110fb576110fa612fef565b5b906000526020600020906005020160040154105b156111865784818154811061112757611126612fef565b5b906000526020600020906005020160040154935084818154811061114e5761114d612fef565b5b906000526020600020906005020160000160009054906101000a900473ffffffffffffffffffffffffffffffffffffffff1692508091505b8080611191906130b0565b9150506110a2565b50600073ffffffffffffffffffffffffffffffffffffffff168273ffffffffffffffffffffffffffffffffffffffff1603611209576040517f08c379a000000000000000000000000000000000000000000000000000000000815260040161120090613580565b60405180910390fd5b8460050154831115611250576040517f08c379a0000000000000000000000000000000000000000000000000000000008152600401611247906135ec565b60405180910390fd5b60018560090160008473ffffffffffffffffffffffffffffffffffffffff1673ffffffffffffffffffffffffffffffffffffffff16815260200190815260200160002060006101000a81548160ff021916908315150217905550600085600501549050600086600501819055506112c883600a612652565b600060018760070180549050111561141d57600060646009876112eb91906130f8565b6112f59190613169565b90506001886007018054905061130b919061304d565b816113169190613169565b915060005b886007018054905081101561141a57600089600701828154811061134257611341612fef565b5b9060005260206000200160009054906101000a900473ffffffffffffffffffffffffffffffffffffffff1690508673ffffffffffffffffffffffffffffffffffffffff168173ffffffffffffffffffffffffffffffffffffffff161461140657838a600c0160008373ffffffffffffffffffffffffffffffffffffffff1673ffffffffffffffffffffffffffffffffffffffff16815260200190815260200160002060008282546113f3919061360c565b92505081905550611405816005612652565b5b508080611412906130b0565b91505061131b565b50505b8373ffffffffffffffffffffffffffffffffffffffff16887fb8639d96359347ee9c2450fb169ec40a1539570d38bca935b1e2a6fed3e694e489600601548860405161146a929190613640565b60405180910390a38373ffffffffffffffffffffffffffffffffffffffff16887f3ab4f323fd531c422d25e49d15ba3d99aefe451f3659533320df5c88255f8a53846040516114b99190612acf565b60405180910390a38373ffffffffffffffffffffffffffffffffffffffff16887f18516bc2ff7ae42f7fa874a7eec9cc3721e46f3fae984459d0b02475b50d8e5b836040516115089190612acf565b60405180910390a3866006016000815480929190611525906130b0565b91905055505050505050505061153961254e565b50565b6115446124ea565b61154c61252b565b60006001600085815260200190815260200160002090508060080160003373ffffffffffffffffffffffffffffffffffffffff1673ffffffffffffffffffffffffffffffffffffffff16815260200190815260200160002060009054906101000a900460ff166115f1576040517f08c379a00000000000000000000000000000000000000000000000000000000081526004016115e890612fcf565b60405180910390fd5b600083836040516020016116069291906136ab565b604051602081830303815290604052805190602001209050600082600b0160008460060154815260200190815260200160002090506000805b82805490508110156117db573373ffffffffffffffffffffffffffffffffffffffff1683828154811061167557611674612fef565b5b906000526020600020906005020160000160009054906101000a900473ffffffffffffffffffffffffffffffffffffffff1673ffffffffffffffffffffffffffffffffffffffff161480156116f957508281815481106116d8576116d7612fef565b5b906000526020600020906005020160030160009054906101000a900460ff16155b801561172b57508360001c83828154811061171757611716612fef565b5b906000526020600020906005020160010154145b156117c857600183828154811061174557611744612fef565b5b906000526020600020906005020160030160006101000a81548160ff0219169083151502179055508683828154811061178157611780612fef565b5b906000526020600020906005020160040181905550858382815481106117aa576117a9612fef565b5b906000526020600020906005020160020181905550600191506117db565b80806117d3906130b0565b91505061163f565b508061181c576040517f08c379a000000000000000000000000000000000000000000000000000000000815260040161181390613749565b60405180910390fd5b3373ffffffffffffffffffffffffffffffffffffffff16877fba834bd29b9c83bed0d9d44ea4d24baaf635bead31040df74304eccaec08a928866006015489604051611869929190613640565b60405180910390a35050505061187d61254e565b505050565b60008060149054906101000a900460ff16905090565b6118a06124ea565b6118a861252b565b60006001600083815260200190815260200160002090508060080160003373ffffffffffffffffffffffffffffffffffffffff1673ffffffffffffffffffffffffffffffffffffffff16815260200190815260200160002060009054906101000a900460ff1661194d576040517f08c379a000000000000000000000000000000000000000000000000000000000815260040161194490612fcf565b60405180910390fd5b600081600c0160003373ffffffffffffffffffffffffffffffffffffffff1673ffffffffffffffffffffffffffffffffffffffff168152602001908152602001600020549050600081116119d6576040517f08c379a00000000000000000000000000000000000000000000000000000000081526004016119cd906137b5565b60405180910390fd5b600082600c0160003373ffffffffffffffffffffffffffffffffffffffff1673ffffffffffffffffffffffffffffffffffffffff1681526020019081526020016000208190555060003373ffffffffffffffffffffffffffffffffffffffff1682604051611a4390613237565b60006040518083038185875af1925050503d8060008114611a80576040519150601f19603f3d011682016040523d82523d6000602084013e611a85565b606091505b5050905080611ac9576040517f08c379a0000000000000000000000000000000000000000000000000000000008152600401611ac090613821565b60405180910390fd5b505050611ad461254e565b50565b6060600160008381526020019081526020016000206001018054611afa9061342b565b80601f0160208091040260200160405190810160405280929190818152602001828054611b269061342b565b8015611b735780601f10611b4857610100808354040283529160200191611b73565b820191906000526020600020905b815481529060010190602001808311611b5657829003601f168201915b50505050509050919050565b611b87612569565b611b916000612855565b565b600060016000808152602001908152602001600020600d0160008373ffffffffffffffffffffffffffffffffffffffff1673ffffffffffffffffffffffffffffffffffffffff168152602001908152602001600020549050919050565b611bf8612569565b611c00612919565b565b60008060009054906101000a900473ffffffffffffffffffffffffffffffffffffffff16905090565b6201518081565b611c3a6124ea565b611c4261252b565b60006001600083815260200190815260200160002090508060080160003373ffffffffffffffffffffffffffffffffffffffff1673ffffffffffffffffffffffffffffffffffffffff16815260200190815260200160002060009054906101000a900460ff16611ce7576040517f08c379a0000000000000000000000000000000000000000000000000000000008152600401611cde90612fcf565b60405180910390fd5b8060090160003373ffffffffffffffffffffffffffffffffffffffff1673ffffffffffffffffffffffffffffffffffffffff16815260200190815260200160002060009054906101000a900460ff1615611d76576040517f08c379a0000000000000000000000000000000000000000000000000000000008152600401611d6d9061388d565b60405180910390fd5b80600301543414611dbc576040517f08c379a0000000000000000000000000000000000000000000000000000000008152600401611db3906138f9565b60405180910390fd5b3481600a0160003373ffffffffffffffffffffffffffffffffffffffff1673ffffffffffffffffffffffffffffffffffffffff1681526020019081526020016000206000828254611e0d919061360c565b9250508190555034816005016000828254611e28919061360c565b925050819055503373ffffffffffffffffffffffffffffffffffffffff16827f865c884d49c8cecaef108efb20f7d282f26c0f9b0d24dd48e5592d4e02ec658d34604051611e769190612acf565b60405180910390a350611e8761254e565b50565b606060016000838152602001908152602001600020600701805480602002602001604051908101604052809291908181526020018280548015611f2257602002820191906000526020600020905b8160009054906101000a900473ffffffffffffffffffffffffffffffffffffffff1673ffffffffffffffffffffffffffffffffffffffff1681526020019060010190808311611ed8575b50505050509050919050565b603281565b6000611f3d612569565b60018411611f80576040517f08c379a0000000000000000000000000000000000000000000000000000000008152600401611f7790613965565b60405180910390fd5b60008311611fc3576040517f08c379a0000000000000000000000000000000000000000000000000000000008152600401611fba906139f7565b60405180910390fd5b60008211612006576040517f08c379a0000000000000000000000000000000000000000000000000000000008152600401611ffd90613a63565b60405180910390fd5b60006002600081548092919061201b906130b0565b9190505590506000600160008381526020019081526020016000209050818160000181905550604051806020016040528060008152508160010190816120619190613c5e565b508581600201819055508481600301819055508381600401819055506000816005018190555060008160060181905550600181600e0160006101000a81548160ff0219169083151502179055503381600e0160016101000a81548173ffffffffffffffffffffffffffffffffffffffff021916908373ffffffffffffffffffffffffffffffffffffffff1602179055503373ffffffffffffffffffffffffffffffffffffffff16827fdd48c6c19a510fa11b39bd93062ceb47b77965666d93eff740bcb9415b96087f88888860405161213c93929190613d30565b60405180910390a381925050509392505050565b60025481565b600060016000838152602001908152602001600020600601549050919050565b61217e612569565b600073ffffffffffffffffffffffffffffffffffffffff168173ffffffffffffffffffffffffffffffffffffffff16036121f05760006040517f1e4fbdf70000000000000000000000000000000000000000000000000000000081526004016121e79190612dc9565b60405180910390fd5b6121f981612855565b50565b6101f481565b61220a6124ea565b61221261252b565b600060016000838152602001908152602001600020905080600e0160009054906101000a900460ff1661227a576040517f08c379a000000000000000000000000000000000000000000000000000000000815260040161227190612f63565b60405180910390fd5b8060080160003373ffffffffffffffffffffffffffffffffffffffff1673ffffffffffffffffffffffffffffffffffffffff16815260200190815260200160002060009054906101000a900460ff1615612309576040517f08c379a000000000000000000000000000000000000000000000000000000000815260040161230090613db3565b60405180910390fd5b8060020154816007018054905010612356576040517f08c379a000000000000000000000000000000000000000000000000000000000815260040161234d90613e1f565b60405180910390fd5b603281600d0160003373ffffffffffffffffffffffffffffffffffffffff1673ffffffffffffffffffffffffffffffffffffffff1681526020019081526020016000205410156123db576040517f08c379a00000000000000000000000000000000000000000000000000000000081526004016123d290613e8b565b60405180910390fd5b80600701339080600181540180825580915050600190039060005260206000200160009091909190916101000a81548173ffffffffffffffffffffffffffffffffffffffff021916908373ffffffffffffffffffffffffffffffffffffffff16021790555060018160080160003373ffffffffffffffffffffffffffffffffffffffff1673ffffffffffffffffffffffffffffffffffffffff16815260200190815260200160002060006101000a81548160ff0219169083151502179055503373ffffffffffffffffffffffffffffffffffffffff16827f78da64a590c3052953ad9e0a5546bbf12bb68ae7634e3fb2a774e22a8c6557c160405160405180910390a3506124e761254e565b50565b6124f2611882565b15612529576040517fd93c066500000000000000000000000000000000000000000000000000000000815260040160405180910390fd5b565b61253361297c565b60026125456125406129bd565b6129e8565b60000181905550565b600161256061255b6129bd565b6129e8565b60000181905550565b6125716129f2565b73ffffffffffffffffffffffffffffffffffffffff1661258f611c02565b73ffffffffffffffffffffffffffffffffffffffff16146125ee576125b26129f2565b6040517f118cdaa70000000000000000000000000000000000000000000000000000000081526004016125e59190612dc9565b60405180910390fd5b565b6125f86129fa565b60008060146101000a81548160ff0219169083151502179055507f5db9ee0a495bf2e6ff9c91a7834c1ba4fdd244a5e8aa4e537bd38aeae4b073aa61263b6129f2565b6040516126489190612dc9565b60405180910390a1565b600080821215612735578161266690613eb5565b60016000808152602001908152602001600020600d0160008573ffffffffffffffffffffffffffffffffffffffff1673ffffffffffffffffffffffffffffffffffffffff1681526020019081526020016000205410156126c7576000612730565b816126d190613eb5565b60016000808152602001908152602001600020600d0160008573ffffffffffffffffffffffffffffffffffffffff1673ffffffffffffffffffffffffffffffffffffffff1681526020019081526020016000205461272f919061304d565b5b612795565b8160016000808152602001908152602001600020600d0160008573ffffffffffffffffffffffffffffffffffffffff1673ffffffffffffffffffffffffffffffffffffffff168152602001908152602001600020546127949190613efd565b5b9050606481116127a557806127a8565b60645b90508060016000808152602001908152602001600020600d0160008573ffffffffffffffffffffffffffffffffffffffff1673ffffffffffffffffffffffffffffffffffffffff168152602001908152602001600020819055508273ffffffffffffffffffffffffffffffffffffffff167ffc577563f1b9a0461e24abef1e1fcc0d33d3d881f20b5df6dda59de4aae2c821826040516128489190612acf565b60405180910390a2505050565b60008060009054906101000a900473ffffffffffffffffffffffffffffffffffffffff169050816000806101000a81548173ffffffffffffffffffffffffffffffffffffffff021916908373ffffffffffffffffffffffffffffffffffffffff1602179055508173ffffffffffffffffffffffffffffffffffffffff168173ffffffffffffffffffffffffffffffffffffffff167f8be0079c531659141344cd1fd0a4f28419497f9722a3daafe3b4186f6b6457e060405160405180910390a35050565b6129216124ea565b6001600060146101000a81548160ff0219169083151502179055507f62e78cea01bee320cd4e420270b5ea74000d11b0c9f74754ebdbfc544b05a2586129656129f2565b6040516129729190612dc9565b60405180910390a1565b612984612a3a565b156129bb576040517f3ee5aeb500000000000000000000000000000000000000000000000000000000815260040160405180910390fd5b565b60007f9b779b17422d0df92223018b32b4d1fa46e071723d6817e2486d003becc55f0060001b905090565b6000819050919050565b600033905090565b612a02611882565b612a38576040517f8dfc202b00000000000000000000000000000000000000000000000000000000815260040160405180910390fd5b565b60006002612a4e612a496129bd565b6129e8565b6000015414905090565b600080fd5b6000819050919050565b612a7081612a5d565b8114612a7b57600080fd5b50565b600081359050612a8d81612a67565b92915050565b600060208284031215612aa957612aa8612a58565b5b6000612ab784828501612a7e565b91505092915050565b612ac981612a5d565b82525050565b6000602082019050612ae46000830184612ac0565b92915050565b6000819050919050565b612afd81612aea565b8114612b0857600080fd5b50565b600081359050612b1a81612af4565b92915050565b60008060408385031215612b3757612b36612a58565b5b6000612b4585828601612a7e565b9250506020612b5685828601612b0b565b9150509250929050565b600081519050919050565b600082825260208201905092915050565b60005b83811015612b9a578082015181840152602081019050612b7f565b60008484015250505050565b6000601f19601f8301169050919050565b6000612bc282612b60565b612bcc8185612b6b565b9350612bdc818560208601612b7c565b612be581612ba6565b840191505092915050565b60008115159050919050565b612c0581612bf0565b82525050565b600073ffffffffffffffffffffffffffffffffffffffff82169050919050565b6000612c3682612c0b565b9050919050565b612c4681612c2b565b82525050565b600061012082019050612c62600083018c612ac0565b8181036020830152612c74818b612bb7565b9050612c83604083018a612ac0565b612c906060830189612ac0565b612c9d6080830188612ac0565b612caa60a0830187612ac0565b612cb760c0830186612ac0565b612cc460e0830185612bfc565b612cd2610100830184612c3d565b9a9950505050505050505050565b600080600060608486031215612cf957612cf8612a58565b5b6000612d0786828701612a7e565b9350506020612d1886828701612a7e565b9250506040612d2986828701612b0b565b9150509250925092565b6000602082019050612d486000830184612bfc565b92915050565b60006020820190508181036000830152612d688184612bb7565b905092915050565b612d7981612c2b565b8114612d8457600080fd5b50565b600081359050612d9681612d70565b92915050565b600060208284031215612db257612db1612a58565b5b6000612dc084828501612d87565b91505092915050565b6000602082019050612dde6000830184612c3d565b92915050565b600081519050919050565b600082825260208201905092915050565b6000819050602082019050919050565b612e1981612c2b565b82525050565b6000612e2b8383612e10565b60208301905092915050565b6000602082019050919050565b6000612e4f82612de4565b612e598185612def565b9350612e6483612e00565b8060005b83811015612e95578151612e7c8882612e1f565b9750612e8783612e37565b925050600181019050612e68565b5085935050505092915050565b60006020820190508181036000830152612ebc8184612e44565b905092915050565b600080600060608486031215612edd57612edc612a58565b5b6000612eeb86828701612a7e565b9350506020612efc86828701612a7e565b9250506040612f0d86828701612a7e565b9150509250925092565b7f47726f7570206973206e6f742061637469766500000000000000000000000000600082015250565b6000612f4d601383612b6b565b9150612f5882612f17565b602082019050919050565b60006020820190508181036000830152612f7c81612f40565b9050919050565b7f4e6f742061206d656d626572206f6620746869732067726f7570000000000000600082015250565b6000612fb9601a83612b6b565b9150612fc482612f83565b602082019050919050565b60006020820190508181036000830152612fe881612fac565b9050919050565b7f4e487b7100000000000000000000000000000000000000000000000000000000600052603260045260246000fd5b7f4e487b7100000000000000000000000000000000000000000000000000000000600052601160045260246000fd5b600061305882612a5d565b915061306383612a5d565b925082820390508181111561307b5761307a61301e565b5b92915050565b7f4e487b7100000000000000000000000000000000000000000000000000000000600052603160045260246000fd5b60006130bb82612a5d565b91507fffffffffffffffffffffffffffffffffffffffffffffffffffffffffffffffff82036130ed576130ec61301e565b5b600182019050919050565b600061310382612a5d565b915061310e83612a5d565b925082820261311c81612a5d565b915082820484148315176131335761313261301e565b5b5092915050565b7f4e487b7100000000000000000000000000000000000000000000000000000000600052601260045260246000fd5b600061317482612a5d565b915061317f83612a5d565b92508261318f5761318e61313a565b5b828204905092915050565b7f496e73756666696369656e7420706f742062616c616e63650000000000000000600082015250565b60006131d0601883612b6b565b91506131db8261319a565b602082019050919050565b600060208201905081810360008301526131ff816131c3565b9050919050565b600081905092915050565b50565b6000613221600083613206565b915061322c82613211565b600082019050919050565b600061324282613214565b9150819050919050565b7f526566756e64206661696c656400000000000000000000000000000000000000600082015250565b6000613282600d83612b6b565b915061328d8261324c565b602082019050919050565b600060208201905081810360008301526132b181613275565b9050919050565b7f57696e6e65722063616e6e6f742062696420616761696e000000000000000000600082015250565b60006132ee601783612b6b565b91506132f9826132b8565b602082019050919050565b6000602082019050818103600083015261331d816132e1565b9050919050565b7f47726f7570206475726174696f6e20656e646564000000000000000000000000600082015250565b600061335a601483612b6b565b915061336582613324565b602082019050919050565b600060208201905081810360008301526133898161334d565b9050919050565b7f416c6c206269647320726563656976656420666f722074686973206d6f6e7468600082015250565b60006133c6602083612b6b565b91506133d182613390565b602082019050919050565b600060208201905081810360008301526133f5816133b9565b9050919050565b7f4e487b7100000000000000000000000000000000000000000000000000000000600052602260045260246000fd5b6000600282049050600182168061344357607f821691505b602082108103613456576134556133fc565b5b50919050565b7f4f6e6c792061646d696e2063616e2073656c6563742077696e6e657200000000600082015250565b6000613492601c83612b6b565b915061349d8261345c565b602082019050919050565b600060208201905081810360008301526134c181613485565b9050919050565b7f416c6c206d656d62657273206d757374207375626d6974206269647300000000600082015250565b60006134fe601c83612b6b565b9150613509826134c8565b602082019050919050565b6000602082019050818103600083015261352d816134f1565b9050919050565b7f4e6f2076616c6964206269647320666f756e6400000000000000000000000000600082015250565b600061356a601383612b6b565b915061357582613534565b602082019050919050565b600060208201905081810360008301526135998161355d565b9050919050565b7f57696e6e696e6720626964206578636565647320706f74000000000000000000600082015250565b60006135d6601783612b6b565b91506135e1826135a0565b602082019050919050565b60006020820190508181036000830152613605816135c9565b9050919050565b600061361782612a5d565b915061362283612a5d565b925082820190508082111561363a5761363961301e565b5b92915050565b60006040820190506136556000830185612ac0565b6136626020830184612ac0565b9392505050565b6000819050919050565b61368461367f82612a5d565b613669565b82525050565b6000819050919050565b6136a56136a082612aea565b61368a565b82525050565b60006136b78285613673565b6020820191506136c78284613694565b6020820191508190509392505050565b7f426964206e6f7420666f756e64206f7220616c72656164792072657665616c6560008201527f6400000000000000000000000000000000000000000000000000000000000000602082015250565b6000613733602183612b6b565b915061373e826136d7565b604082019050919050565b6000602082019050818103600083015261376281613726565b9050919050565b7f4e6f206469766964656e647320746f2077697468647261770000000000000000600082015250565b600061379f601883612b6b565b91506137aa82613769565b602082019050919050565b600060208201905081810360008301526137ce81613792565b9050919050565b7f5472616e73666572206661696c65640000000000000000000000000000000000600082015250565b600061380b600f83612b6b565b9150613816826137d5565b602082019050919050565b6000602082019050818103600083015261383a816137fe565b9050919050565b7f57696e6e65722063616e6e6f7420636f6e747269627574652066757274686572600082015250565b6000613877602083612b6b565b915061388282613841565b602082019050919050565b600060208201905081810360008301526138a68161386a565b9050919050565b7f496e636f727265637420636f6e747269627574696f6e20616d6f756e74000000600082015250565b60006138e3601d83612b6b565b91506138ee826138ad565b602082019050919050565b60006020820190508181036000830152613912816138d6565b9050919050565b7f4d7573742068617665206174206c656173742032206d656d6265727300000000600082015250565b600061394f601c83612b6b565b915061395a82613919565b602082019050919050565b6000602082019050818103600083015261397e81613942565b9050919050565b7f436f6e747269627574696f6e206d75737420626520677265617465722074686160008201527f6e20300000000000000000000000000000000000000000000000000000000000602082015250565b60006139e1602383612b6b565b91506139ec82613985565b604082019050919050565b60006020820190508181036000830152613a10816139d4565b9050919050565b7f4475726174696f6e206d7573742062652067726561746572207468616e203000600082015250565b6000613a4d601f83612b6b565b9150613a5882613a17565b602082019050919050565b60006020820190508181036000830152613a7c81613a40565b9050919050565b7f4e487b7100000000000000000000000000000000000000000000000000000000600052604160045260246000fd5b60008190508160005260206000209050919050565b60006020601f8301049050919050565b600082821b905092915050565b600060088302613b147fffffffffffffffffffffffffffffffffffffffffffffffffffffffffffffffff82613ad7565b613b1e8683613ad7565b95508019841693508086168417925050509392505050565b6000819050919050565b6000613b5b613b56613b5184612a5d565b613b36565b612a5d565b9050919050565b6000819050919050565b613b7583613b40565b613b89613b8182613b62565b848454613ae4565b825550505050565b600090565b613b9e613b91565b613ba9818484613b6c565b505050565b5b81811015613bcd57613bc2600082613b96565b600181019050613baf565b5050565b601f821115613c1257613be381613ab2565b613bec84613ac7565b81016020851015613bfb578190505b613c0f613c0785613ac7565b830182613bae565b50505b505050565b600082821c905092915050565b6000613c3560001984600802613c17565b1980831691505092915050565b6000613c4e8383613c24565b9150826002028217905092915050565b613c6782612b60565b67ffffffffffffffff811115613c8057613c7f613a83565b5b613c8a825461342b565b613c95828285613bd1565b600060209050601f831160018114613cc85760008415613cb6578287015190505b613cc08582613c42565b865550613d28565b601f198416613cd686613ab2565b60005b82811015613cfe57848901518255600182019150602085019450602081019050613cd9565b86831015613d1b5784890151613d17601f891682613c24565b8355505b6001600288020188555050505b505050505050565b6000606082019050613d456000830186612ac0565b613d526020830185612ac0565b613d5f6040830184612ac0565b949350505050565b7f416c7265616479206a6f696e656420746869732067726f757000000000000000600082015250565b6000613d9d601983612b6b565b9150613da882613d67565b602082019050919050565b60006020820190508181036000830152613dcc81613d90565b9050919050565b7f47726f75702069732066756c6c00000000000000000000000000000000000000600082015250565b6000613e09600d83612b6b565b9150613e1482613dd3565b602082019050919050565b60006020820190508181036000830152613e3881613dfc565b9050919050565b7f496e73756666696369656e742072657075746174696f6e2073636f7265000000600082015250565b6000613e75601d83612b6b565b9150613e8082613e3f565b602082019050919050565b60006020820190508181036000830152613ea481613e68565b9050919050565b6000819050919050565b6000613ec082613eab565b91507f80000000000000000000000000000000000000000000000000000000000000008203613ef257613ef161301e565b5b816000039050919050565b6000613f0882613eab565b9150613f1383613eab565b925082820190508281121560008312168382126000841215161715613f3b57613f3a61301e565b5b9291505056fea2646970667358221220973bd141457b3d86a8935900563211ad1e788cd469da97fee629facb34baac6e64736f6c63430008140033",
  "linkReferences": {},
  "deployedLinkReferences": {}
}