{
  "_format": "hh-sol-artifact-1",
  "contractName": "CircleFi",
  "sourceName": "contracts/CircleFi.sol",
  "abi": [
    {
      "inputs": [],
      "stateMutability": "nonpayable",
      "type": "constructor"
    },
    {
      "inputs": [],
      "name": "EnforcedPause",
      "type": "error"
    },
    {
      "inputs": [],
      "name": "ExpectedPause",
      "type": "error"
    },
    {
      "inputs": [
        {
          "internalType": "address",
          "name": "owner",
          "type": "address"
        }
      ],
      "name": "OwnableInvalidOwner",
      "type": "error"
    },
    {
      "inputs": [
        {
          "internalType": "address",
          "name": "account",
          "type": "address"
        }
      ],
      "name": "OwnableUnauthorizedAccount",
      "type": "error"
    },
    {
      "inputs": [],
      "name": "ReentrancyGuardReentrantCall",
      "type": "error"
    },
    {
      "anonymous": false,
      "inputs": [
        {
          "indexed": true,
          "internalType": "uint256",
          "name": "groupId",
          "type": "uint256"
        },
        {
          "indexed": false,
          "internalType": "uint256",
          "name": "month",
          "type": "uint256"
        },
        {
          "indexed": true,
          "internalType": "address",
          "name": "bidder",
          "type": "address"
        },
        {
          "indexed": false,
          "internalType": "uint256",
          "name": "amount",
          "type": "uint256"
        }
      ],
      "name": "BidRevealed",
      "type": "event"
    },
    {
      "anonymous": false,
      "inputs": [
        {
          "indexed": true,
          "internalType": "uint256",
          "name": "groupId",
          "type": "uint256"
        },
        {
          "indexed": false,
          "internalType": "uint256",
          "name": "month",
          "type": "uint256"
        },
        {
          "indexed": true,
          "internalType": "address",
          "name": "bidder",
          "type": "address"
        }
      ],
      "name": "BidSubmitted",
      "type": "event"
    },
    {
      "anonymous": false,
      "inputs": [
        {
          "indexed": true,
          "internalType": "uint256",
          "name": "groupId",
          "type": "uint256"
        },
        {
          "indexed": true,
          "internalType": "address",
          "name": "member",
          "type": "address"
        },
        {
          "indexed": false,
          "internalType": "uint256",
          "name": "amount",
          "type": "uint256"
        }
      ],
      "name": "ContributionReceived",
      "type": "event"
    },
    {
      "anonymous": false,
      "inputs": [
        {
          "indexed": true,
          "internalType": "uint256",
          "name": "groupId",
          "type": "uint256"
        },
        {
          "indexed": true,
          "internalType": "address",
          "name": "member",
          "type": "address"
        },
        {
          "indexed": false,
          "internalType": "uint256",
          "name": "amount",
          "type": "uint256"
        }
      ],
      "name": "DividendPaid",
      "type": "event"
    },
    {
      "anonymous": false,
      "inputs": [
        {
          "indexed": true,
          "internalType": "uint256",
          "name": "groupId",
          "type": "uint256"
        },
        {
          "indexed": false,
          "internalType": "uint256",
          "name": "memberCount",
          "type": "uint256"
        },
        {
          "indexed": false,
          "internalType": "uint256",
          "name": "monthlyContribution",
          "type": "uint256"
        },
        {
          "indexed": false,
          "internalType": "uint256",
          "name": "duration",
          "type": "uint256"
        },
        {
          "indexed": true,
          "internalType": "address",
          "name": "creator",
          "type": "address"
        }
      ],
      "name": "GroupCreated",
      "type": "event"
    },
    {
      "anonymous": false,
      "inputs": [
        {
          "indexed": true,
          "internalType": "uint256",
          "name": "groupId",
          "type": "uint256"
        },
        {
          "indexed": true,
          "internalType": "address",
          "name": "member",
          "type": "address"
        }
      ],
      "name": "MemberJoined",
      "type": "event"
    },
    {
      "anonymous": false,
      "inputs": [
        {
          "indexed": true,
          "internalType": "address",
          "name": "previousOwner",
          "type": "address"
        },
        {
          "indexed": true,
          "internalType": "address",
          "name": "newOwner",
          "type": "address"
        }
      ],
      "name": "OwnershipTransferred",
      "type": "event"
    },
    {
      "anonymous": false,
      "inputs": [
        {
          "indexed": false,
          "internalType": "address",
          "name": "account",
          "type": "address"
        }
      ],
      "name": "Paused",
      "type": "event"
    },
    {
      "anonymous": false,
      "inputs": [
        {
          "indexed": true,
          "internalType": "uint256",
          "name": "groupId",
          "type": "uint256"
        },
        {
          "indexed": true,
          "internalType": "address",
          "name": "winner",
          "type": "address"
        },
        {
          "indexed": false,
          "internalType": "uint256",
          "name": "amount",
          "type": "uint256"
        }
      ],
      "name": "PotDistributed",
      "type": "event"
    },
    {
      "anonymous": false,
      "inputs": [
        {
          "indexed": true,
          "internalType": "address",
          "name": "member",
          "type": "address"
        },
        {
          "indexed": false,
          "internalType": "uint256",
          "name": "newScore",
          "type": "uint256"
        }
      ],
      "name": "ReputationUpdated",
      "type": "event"
    },
    {
      "anonymous": false,
      "inputs": [
        {
          "indexed": false,
          "internalType": "address",
          "name": "account",
          "type": "address"
        }
      ],
      "name": "Unpaused",
      "type": "event"
    },
    {
      "anonymous": false,
      "inputs": [
        {
          "indexed": true,
          "internalType": "uint256",
          "name": "groupId",
          "type": "uint256"
        },
        {
          "indexed": false,
          "internalType": "uint256",
          "name": "month",
          "type": "uint256"
        },
        {
          "indexed": true,
          "internalType": "address",
          "name": "winner",
          "type": "address"
        },
        {
          "indexed": false,
          "internalType": "uint256",
          "name": "winningAmount",
          "type": "uint256"
        }
      ],
      "name": "WinnerSelected",
      "type": "event"
    },
    {
      "inputs": [],
      "name": "AUCTION_DEADLINE",
      "outputs": [
        {
          "internalType": "uint256",
          "name": "",
          "type": "uint256"
        }
      ],
      "stateMutability": "view",
      "type": "function"
    },
    {
      "inputs": [],
      "name": "EXIT_PENALTY_BPS",
      "outputs": [
        {
          "internalType": "uint256",
          "name": "",
          "type": "uint256"
        }
      ],
      "stateMutability": "view",
      "type": "function"
    },
    {
      "inputs": [],
      "name": "MIN_REPUTATION_SCORE",
      "outputs": [
        {
          "internalType": "uint256",
          "name": "",
          "type": "uint256"
        }
      ],
      "stateMutability": "view",
      "type": "function"
    },
    {
      "inputs": [
        {
          "internalType": "uint256",
          "name": "",
          "type": "uint256"
        }
      ],
      "name": "chitGroups",
      "outputs": [
        {
          "internalType": "uint256",
          "name": "groupId",
          "type": "uint256"
        },
        {
          "internalType": "string",
          "name": "groupName",
          "type": "string"
        },
        {
          "internalType": "uint256",
          "name": "memberCount",
          "type": "uint256"
        },
        {
          "internalType": "uint256",
          "name": "monthlyContribution",
          "type": "uint256"
        },
        {
          "internalType": "uint256",
          "name": "duration",
          "type": "uint256"
        },
        {
          "internalType": "uint256",
          "name": "totalPot",
          "type": "uint256"
        },
        {
          "internalType": "uint256",
          "name": "currentMonth",
          "type": "uint256"
        },
        {
          "internalType": "bool",
          "name": "isActive",
          "type": "bool"
        },
        {
          "internalType": "address",
          "name": "admin",
          "type": "address"
        }
      ],
      "stateMutability": "view",
      "type": "function"
    },
    {
      "inputs": [
        {
          "internalType": "uint256",
          "name": "_groupId",
          "type": "uint256"
        }
      ],
      "name": "contribute",
      "outputs": [],
      "stateMutability": "payable",
      "type": "function"
    },
    {
      "inputs": [
        {
          "internalType": "string",
          "name": "_groupName",
          "type": "string"
        },
        {
          "internalType": "uint256",
          "name": "_memberCount",
          "type": "uint256"
        },
        {
          "internalType": "uint256",
          "name": "_monthlyContribution",
          "type": "uint256"
        },
        {
          "internalType": "uint256",
          "name": "_duration",
          "type": "uint256"
        }
      ],
      "name": "createChitGroup",
      "outputs": [
        {
          "internalType": "uint256",
          "name": "",
          "type": "uint256"
        }
      ],
      "stateMutability": "nonpayable",
      "type": "function"
    },
    {
      "inputs": [
        {
          "internalType": "uint256",
          "name": "_groupId",
          "type": "uint256"
        }
      ],
      "name": "exitGroup",
      "outputs": [],
      "stateMutability": "nonpayable",
      "type": "function"
    },
    {
      "inputs": [
        {
          "internalType": "uint256",
          "name": "_groupId",
          "type": "uint256"
        }
      ],
      "name": "getCurrentMonth",
      "outputs": [
        {
          "internalType": "uint256",
          "name": "",
          "type": "uint256"
        }
      ],
      "stateMutability": "view",
      "type": "function"
    },
    {
      "inputs": [
        {
          "internalType": "uint256",
          "name": "_groupId",
          "type": "uint256"
        }
      ],
      "name": "getCurrentPot",
      "outputs": [
        {
          "internalType": "uint256",
          "name": "",
          "type": "uint256"
        }
      ],
      "stateMutability": "view",
      "type": "function"
    },
    {
      "inputs": [
        {
          "internalType": "uint256",
          "name": "_groupId",
          "type": "uint256"
        }
      ],
      "name": "getMembers",
      "outputs": [
        {
          "internalType": "address[]",
          "name": "",
          "type": "address[]"
        }
      ],
      "stateMutability": "view",
      "type": "function"
    },
    {
      "inputs": [
        {
          "internalType": "uint256",
          "name": "_groupId",
          "type": "uint256"
        }
      ],
      "name": "getName",
      "outputs": [
        {
          "internalType": "string",
          "name": "",
          "type": "string"
        }
      ],
      "stateMutability": "view",
      "type": "function"
    },
    {
      "inputs": [
        {
          "internalType": "address",
          "name": "_member",
          "type": "address"
        }
      ],
      "name": "getReputationScore",
      "outputs": [
        {
          "internalType": "uint256",
          "name": "",
          "type": "uint256"
        }
      ],
      "stateMutability": "view",
      "type": "function"
    },
    {
      "inputs": [],
      "name": "groupCounter",
      "outputs": [
        {
          "internalType": "uint256",
          "name": "",
          "type": "uint256"
        }
      ],
      "stateMutability": "view",
      "type": "function"
    },
    {
      "inputs": [
        {
          "internalType": "uint256",
          "name": "_groupId",
          "type": "uint256"
        }
      ],
      "name": "joinChitGroup",
      "outputs": [],
      "stateMutability": "nonpayable",
      "type": "function"
    },
    {
      "inputs": [],
      "name": "owner",
      "outputs": [
        {
          "internalType": "address",
          "name": "",
          "type": "address"
        }
      ],
      "stateMutability": "view",
      "type": "function"
    },
    {
      "inputs": [],
      "name": "pause",
      "outputs": [],
      "stateMutability": "nonpayable",
      "type": "function"
    },
    {
      "inputs": [],
      "name": "paused",
      "outputs": [
        {
          "internalType": "bool",
          "name": "",
          "type": "bool"
        }
      ],
      "stateMutability": "view",
      "type": "function"
    },
    {
      "inputs": [],
      "name": "renounceOwnership",
      "outputs": [],
      "stateMutability": "nonpayable",
      "type": "function"
    },
    {
      "inputs": [
        {
          "internalType": "uint256",
          "name": "_groupId",
          "type": "uint256"
        },
        {
          "internalType": "uint256",
          "name": "_bidAmount",
          "type": "uint256"
        },
        {
          "internalType": "bytes32",
          "name": "_salt",
          "type": "bytes32"
        }
      ],
      "name": "revealBid",
      "outputs": [],
      "stateMutability": "nonpayable",
      "type": "function"
    },
    {
      "inputs": [
        {
          "internalType": "uint256",
          "name": "_groupId",
          "type": "uint256"
        }
      ],
      "name": "selectWinner",
      "outputs": [],
      "stateMutability": "nonpayable",
      "type": "function"
    },
    {
      "inputs": [
        {
          "internalType": "uint256",
          "name": "_groupId",
          "type": "uint256"
        },
        {
          "internalType": "bytes32",
          "name": "_sealedBidHash",
          "type": "bytes32"
        }
      ],
      "name": "submitBid",
      "outputs": [],
      "stateMutability": "nonpayable",
      "type": "function"
    },
    {
      "inputs": [
        {
          "internalType": "address",
          "name": "newOwner",
          "type": "address"
        }
      ],
      "name": "transferOwnership",
      "outputs": [],
      "stateMutability": "nonpayable",
      "type": "function"
    },
    {
      "inputs": [],
      "name": "unpause",
      "outputs": [],
      "stateMutability": "nonpayable",
      "type": "function"
    },
    {
      "inputs": [
        {
          "internalType": "uint256",
          "name": "_groupId",
          "type": "uint256"
        }
      ],
      "name": "withdrawDividend",
      "outputs": [],
      "stateMutability": "nonpayable",
      "type": "function"
    }
  ],
  "bytecode": "0x60806040523480156200001157600080fd5b503360016200003562000029620000c960201b60201c565b620000f460201b60201c565b60000181905550600073ffffffffffffffffffffffffffffffffffffffff168173ffffffffffffffffffffffffffffffffffffffff1603620000b15760006040517f1e4fbdf7000000000000000000000000000000000000000000000000000000008152600401620000a8919062000207565b60405180910390fd5b620000c281620000fe60201b60201c565b5062000224565b60007f9b779b17422d0df92223018b32b4d1fa46e071723d6817e2486d003becc55f0060001b905090565b6000819050919050565b60008060009054906101000a900473ffffffffffffffffffffffffffffffffffffffff169050816000806101000a81548173ffffffffffffffffffffffffffffffffffffffff021916908373ffffffffffffffffffffffffffffffffffffffff1602179055508173ffffffffffffffffffffffffffffffffffffffff168173ffffffffffffffffffffffffffffffffffffffff167f8be0079c531659141344cd1fd0a4f28419497f9722a3daafe3b4186f6b6457e060405160405180910390a35050565b600073ffffffffffffffffffffffffffffffffffffffff82169050919050565b6000620001ef82620001c2565b9050919050565b6200020181620001e2565b82525050565b60006020820190506200021e6000830184620001f6565b92915050565b613fb580620002346000396000f3fe60806040526004361061014b5760003560e01c806375a67d5c116100b6578063c77943c01161006f578063c77943c014610475578063d24924fe146104a0578063ea47b3d4146104cb578063f2fde38b14610508578063f3eff07b14610531578063f71440f11461055c5761014b565b806375a67d5c146103725780638456cb59146103af5780638da5cb5b146103c6578063a213de5c146103f1578063c1cbbca71461041c578063c477ecab146104385761014b565b80634c524be4116101085780634c524be4146102785780634d380a0d146102a15780635c975abb146102ca5780635d9bd8b2146102f55780636b8ff5741461031e578063715018a61461035b5761014b565b80630ba0c922146101505780630f45ccf21461017957806319fcfab1146101b657806333884cac146101df5780633f4ba83a1461021c5780634018b1de14610233575b600080fd5b34801561015c57600080fd5b5061017760048036038101906101729190612a07565b610585565b005b34801561018557600080fd5b506101a0600480360381019061019b9190612a07565b610a6c565b6040516101ad9190612a43565b60405180910390f35b3480156101c257600080fd5b506101dd60048036038101906101d89190612a94565b610a8c565b005b3480156101eb57600080fd5b5061020660048036038101906102019190612c1a565b610df5565b6040516102139190612a43565b60405180910390f35b34801561022857600080fd5b50610231610ffc565b005b34801561023f57600080fd5b5061025a60048036038101906102559190612a07565b61100e565b60405161026f99989796959493929190612d78565b60405180910390f35b34801561028457600080fd5b5061029f600480360381019061029a9190612a07565b611111565b005b3480156102ad57600080fd5b506102c860048036038101906102c39190612e0c565b611743565b005b3480156102d657600080fd5b506102df611a89565b6040516102ec9190612e5f565b60405180910390f35b34801561030157600080fd5b5061031c60048036038101906103179190612a07565b611a9f565b005b34801561032a57600080fd5b5061034560048036038101906103409190612a07565b611cde565b6040516103529190612e7a565b60405180910390f35b34801561036757600080fd5b50610370611d86565b005b34801561037e57600080fd5b5061039960048036038101906103949190612ec8565b611d9a565b6040516103a69190612a43565b60405180910390f35b3480156103bb57600080fd5b506103c4611df7565b005b3480156103d257600080fd5b506103db611e09565b6040516103e89190612ef5565b60405180910390f35b3480156103fd57600080fd5b50610406611e32565b6040516104139190612a43565b60405180910390f35b61043660048036038101906104319190612a07565b611e39565b005b34801561044457600080fd5b5061045f600480360381019061045a9190612a07565b612091565b60405161046c9190612fce565b60405180910390f35b34801561048157600080fd5b5061048a612135565b6040516104979190612a43565b60405180910390f35b3480156104ac57600080fd5b506104b561213a565b6040516104c29190612a43565b60405180910390f35b3480156104d757600080fd5b506104f260048036038101906104ed9190612a07565b612140565b6040516104ff9190612a43565b60405180910390f35b34801561051457600080fd5b5061052f600480360381019061052a9190612ec8565b612160565b005b34801561053d57600080fd5b506105466121e6565b6040516105539190612a43565b60405180910390f35b34801561056857600080fd5b50610583600480360381019061057e9190612a07565b6121ec565b005b61058d61244f565b610595612490565b600060016000838152602001908152602001600020905080600e0160009054906101000a900460ff166105fd576040517f08c379a00000000000000000000000000000000000000000000000000000000081526004016105f49061303c565b60405180910390fd5b8060080160003373ffffffffffffffffffffffffffffffffffffffff1673ffffffffffffffffffffffffffffffffffffffff16815260200190815260200160002060009054906101000a900460ff1661068b576040517f08c379a0000000000000000000000000000000000000000000000000000000008152600401610682906130a8565b60405180910390fd5b60005b8160070180549050811015610823573373ffffffffffffffffffffffffffffffffffffffff168260070182815481106106ca576106c96130c8565b5b9060005260206000200160009054906101000a900473ffffffffffffffffffffffffffffffffffffffff1673ffffffffffffffffffffffffffffffffffffffff16036108105781600701600183600701805490506107289190613126565b81548110610739576107386130c8565b5b9060005260206000200160009054906101000a900473ffffffffffffffffffffffffffffffffffffffff1682600701828154811061077a576107796130c8565b5b9060005260206000200160006101000a81548173ffffffffffffffffffffffffffffffffffffffff021916908373ffffffffffffffffffffffffffffffffffffffff160217905550816007018054806107d6576107d561315a565b5b6001900381819060005260206000200160006101000a81549073ffffffffffffffffffffffffffffffffffffffff02191690559055610823565b808061081b90613189565b91505061068e565b5060008160080160003373ffffffffffffffffffffffffffffffffffffffff1673ffffffffffffffffffffffffffffffffffffffff16815260200190815260200160002060006101000a81548160ff021916908315150217905550600081600a0160003373ffffffffffffffffffffffffffffffffffffffff1673ffffffffffffffffffffffffffffffffffffffff1681526020019081526020016000205490506000811115610a5f5760006127106101f4836108e091906131d1565b6108ea9190613242565b9050600081836108fa9190613126565b9050600084600a0160003373ffffffffffffffffffffffffffffffffffffffff1673ffffffffffffffffffffffffffffffffffffffff168152602001908152602001600020819055506000811115610a5c578084600501541015610993576040517f08c379a000000000000000000000000000000000000000000000000000000000815260040161098a906132bf565b60405180910390fd5b808460050160008282546109a79190613126565b9250508190555060003373ffffffffffffffffffffffffffffffffffffffff16826040516109d490613310565b60006040518083038185875af1925050503d8060008114610a11576040519150601f19603f3d011682016040523d82523d6000602084013e610a16565b606091505b5050905080610a5a576040517f08c379a0000000000000000000000000000000000000000000000000000000008152600401610a5190613371565b60405180910390fd5b505b50505b5050610a696124b3565b50565b600060016000838152602001908152602001600020600501549050919050565b610a9461244f565b610a9c612490565b60006001600084815260200190815260200160002090508060080160003373ffffffffffffffffffffffffffffffffffffffff1673ffffffffffffffffffffffffffffffffffffffff16815260200190815260200160002060009054906101000a900460ff16610b41576040517f08c379a0000000000000000000000000000000000000000000000000000000008152600401610b38906130a8565b60405180910390fd5b8060090160003373ffffffffffffffffffffffffffffffffffffffff1673ffffffffffffffffffffffffffffffffffffffff16815260200190815260200160002060009054906101000a900460ff1615610bd0576040517f08c379a0000000000000000000000000000000000000000000000000000000008152600401610bc7906133dd565b60405180910390fd5b8060040154816006015410610c1a576040517f08c379a0000000000000000000000000000000000000000000000000000000008152600401610c1190613449565b60405180910390fd5b806007018054905081600b016000836006015481526020019081526020016000208054905010610c7f576040517f08c379a0000000000000000000000000000000000000000000000000000000008152600401610c76906134b5565b60405180910390fd5b60006040518060a001604052803373ffffffffffffffffffffffffffffffffffffffff1681526020018460001c81526020016000801b81526020016000151581526020016000815250905081600b0160008360060154815260200190815260200160002081908060018154018082558091505060019003906000526020600020906005020160009091909190915060008201518160000160006101000a81548173ffffffffffffffffffffffffffffffffffffffff021916908373ffffffffffffffffffffffffffffffffffffffff160217905550602082015181600101556040820151816002015560608201518160030160006101000a81548160ff0219169083151502179055506080820151816004015550503373ffffffffffffffffffffffffffffffffffffffff16847f2eef226398f000ec33af3b3be58878356d5c7b195bff89de5067bbfe7d2ee4a38460060154604051610ddf9190612a43565b60405180910390a35050610df16124b3565b5050565b600060018411610e3a576040517f08c379a0000000000000000000000000000000000000000000000000000000008152600401610e3190613521565b60405180910390fd5b60008311610e7d576040517f08c379a0000000000000000000000000000000000000000000000000000000008152600401610e74906135b3565b60405180910390fd5b60008211610ec0576040517f08c379a0000000000000000000000000000000000000000000000000000000008152600401610eb79061361f565b60405180910390fd5b600060026000815480929190610ed590613189565b919050559050600060016000838152602001908152602001600020905081816000018190555086816001019081610f0c919061384b565b508581600201819055508481600301819055508381600401819055506000816005018190555060008160060181905550600181600e0160006101000a81548160ff0219169083151502179055503381600e0160016101000a81548173ffffffffffffffffffffffffffffffffffffffff021916908373ffffffffffffffffffffffffffffffffffffffff1602179055503373ffffffffffffffffffffffffffffffffffffffff16827fdd48c6c19a510fa11b39bd93062ceb47b77965666d93eff740bcb9415b96087f888888604051610fe79392919061391d565b60405180910390a38192505050949350505050565b6110046124ce565b61100c612555565b565b60016020528060005260406000206000915090508060000154908060010180546110379061366e565b80601f01602080910402602001604051908101604052809291908181526020018280546110639061366e565b80156110b05780601f10611085576101008083540402835291602001916110b0565b820191906000526020600020905b81548152906001019060200180831161109357829003601f168201915b50505050509080600201549080600301549080600401549080600501549080600601549080600e0160009054906101000a900460ff169080600e0160019054906101000a900473ffffffffffffffffffffffffffffffffffffffff16905089565b61111961244f565b611121612490565b600060016000838152602001908152602001600020905080600e0160019054906101000a900473ffffffffffffffffffffffffffffffffffffffff1673ffffffffffffffffffffffffffffffffffffffff163373ffffffffffffffffffffffffffffffffffffffff16146111ca576040517f08c379a00000000000000000000000000000000000000000000000000000000081526004016111c1906139a0565b60405180910390fd5b8060040154816006015410611214576040517f08c379a000000000000000000000000000000000000000000000000000000000815260040161120b90613449565b60405180910390fd5b600081600b016000836006015481526020019081526020016000209050816007018054905081805490501461127e576040517f08c379a000000000000000000000000000000000000000000000000000000000815260040161127590613a0c565b60405180910390fd5b60007fffffffffffffffffffffffffffffffffffffffffffffffffffffffffffffffff905060008060005b84805490508110156113a0578481815481106112c8576112c76130c8565b5b906000526020600020906005020160030160009054906101000a900460ff168015611316575083858281548110611302576113016130c8565b5b906000526020600020906005020160040154105b1561138d5784818154811061132e5761132d6130c8565b5b9060005260206000209060050201600401549350848181548110611355576113546130c8565b5b906000526020600020906005020160000160009054906101000a900473ffffffffffffffffffffffffffffffffffffffff1692508091505b808061139890613189565b9150506112a9565b50600073ffffffffffffffffffffffffffffffffffffffff168273ffffffffffffffffffffffffffffffffffffffff1603611410576040517f08c379a000000000000000000000000000000000000000000000000000000000815260040161140790613a78565b60405180910390fd5b8460050154831115611457576040517f08c379a000000000000000000000000000000000000000000000000000000000815260040161144e90613ae4565b60405180910390fd5b60018560090160008473ffffffffffffffffffffffffffffffffffffffff1673ffffffffffffffffffffffffffffffffffffffff16815260200190815260200160002060006101000a81548160ff021916908315150217905550600085600501549050600086600501819055506114cf83600a6125b7565b600060018760070180549050111561162457600060646009876114f291906131d1565b6114fc9190613242565b9050600188600701805490506115129190613126565b8161151d9190613242565b915060005b8860070180549050811015611621576000896007018281548110611549576115486130c8565b5b9060005260206000200160009054906101000a900473ffffffffffffffffffffffffffffffffffffffff1690508673ffffffffffffffffffffffffffffffffffffffff168173ffffffffffffffffffffffffffffffffffffffff161461160d57838a600c0160008373ffffffffffffffffffffffffffffffffffffffff1673ffffffffffffffffffffffffffffffffffffffff16815260200190815260200160002060008282546115fa9190613b04565b9250508190555061160c8160056125b7565b5b50808061161990613189565b915050611522565b50505b8373ffffffffffffffffffffffffffffffffffffffff16887fb8639d96359347ee9c2450fb169ec40a1539570d38bca935b1e2a6fed3e694e4896006015488604051611671929190613b38565b60405180910390a38373ffffffffffffffffffffffffffffffffffffffff16887f3ab4f323fd531c422d25e49d15ba3d99aefe451f3659533320df5c88255f8a53846040516116c09190612a43565b60405180910390a38373ffffffffffffffffffffffffffffffffffffffff16887f18516bc2ff7ae42f7fa874a7eec9cc3721e46f3fae984459d0b02475b50d8e5b8360405161170f9190612a43565b60405180910390a386600601600081548092919061172c90613189565b9190505550505050505050506117406124b3565b50565b61174b61244f565b611753612490565b60006001600085815260200190815260200160002090508060080160003373ffffffffffffffffffffffffffffffffffffffff1673ffffffffffffffffffffffffffffffffffffffff16815260200190815260200160002060009054906101000a900460ff166117f8576040517f08c379a00000000000000000000000000000000000000000000000000000000081526004016117ef906130a8565b60405180910390fd5b6000838360405160200161180d929190613ba3565b604051602081830303815290604052805190602001209050600082600b0160008460060154815260200190815260200160002090506000805b82805490508110156119e2573373ffffffffffffffffffffffffffffffffffffffff1683828154811061187c5761187b6130c8565b5b906000526020600020906005020160000160009054906101000a900473ffffffffffffffffffffffffffffffffffffffff1673ffffffffffffffffffffffffffffffffffffffff1614801561190057508281815481106118df576118de6130c8565b5b906000526020600020906005020160030160009054906101000a900460ff16155b801561193257508360001c83828154811061191e5761191d6130c8565b5b906000526020600020906005020160010154145b156119cf57600183828154811061194c5761194b6130c8565b5b906000526020600020906005020160030160006101000a81548160ff02191690831515021790555086838281548110611988576119876130c8565b5b906000526020600020906005020160040181905550858382815481106119b1576119b06130c8565b5b906000526020600020906005020160020181905550600191506119e2565b80806119da90613189565b915050611846565b5080611a23576040517f08c379a0000000000000000000000000000000000000000000000000000000008152600401611a1a90613c41565b60405180910390fd5b3373ffffffffffffffffffffffffffffffffffffffff16877fba834bd29b9c83bed0d9d44ea4d24baaf635bead31040df74304eccaec08a928866006015489604051611a70929190613b38565b60405180910390a350505050611a846124b3565b505050565b60008060149054906101000a900460ff16905090565b611aa761244f565b611aaf612490565b60006001600083815260200190815260200160002090508060080160003373ffffffffffffffffffffffffffffffffffffffff1673ffffffffffffffffffffffffffffffffffffffff16815260200190815260200160002060009054906101000a900460ff16611b54576040517f08c379a0000000000000000000000000000000000000000000000000000000008152600401611b4b906130a8565b60405180910390fd5b600081600c0160003373ffffffffffffffffffffffffffffffffffffffff1673ffffffffffffffffffffffffffffffffffffffff16815260200190815260200160002054905060008111611bdd576040517f08c379a0000000000000000000000000000000000000000000000000000000008152600401611bd490613cad565b60405180910390fd5b600082600c0160003373ffffffffffffffffffffffffffffffffffffffff1673ffffffffffffffffffffffffffffffffffffffff1681526020019081526020016000208190555060003373ffffffffffffffffffffffffffffffffffffffff1682604051611c4a90613310565b60006040518083038185875af1925050503d8060008114611c87576040519150601f19603f3d011682016040523d82523d6000602084013e611c8c565b606091505b5050905080611cd0576040517f08c379a0000000000000000000000000000000000000000000000000000000008152600401611cc790613d19565b60405180910390fd5b505050611cdb6124b3565b50565b6060600160008381526020019081526020016000206001018054611d019061366e565b80601f0160208091040260200160405190810160405280929190818152602001828054611d2d9061366e565b8015611d7a5780601f10611d4f57610100808354040283529160200191611d7a565b820191906000526020600020905b815481529060010190602001808311611d5d57829003601f168201915b50505050509050919050565b611d8e6124ce565b611d9860006127ba565b565b600060016000808152602001908152602001600020600d0160008373ffffffffffffffffffffffffffffffffffffffff1673ffffffffffffffffffffffffffffffffffffffff168152602001908152602001600020549050919050565b611dff6124ce565b611e0761287e565b565b60008060009054906101000a900473ffffffffffffffffffffffffffffffffffffffff16905090565b6201518081565b611e4161244f565b611e49612490565b60006001600083815260200190815260200160002090508060080160003373ffffffffffffffffffffffffffffffffffffffff1673ffffffffffffffffffffffffffffffffffffffff16815260200190815260200160002060009054906101000a900460ff16611eee576040517f08c379a0000000000000000000000000000000000000000000000000000000008152600401611ee5906130a8565b60405180910390fd5b8060090160003373ffffffffffffffffffffffffffffffffffffffff1673ffffffffffffffffffffffffffffffffffffffff16815260200190815260200160002060009054906101000a900460ff1615611f7d576040517f08c379a0000000000000000000000000000000000000000000000000000000008152600401611f7490613d85565b60405180910390fd5b80600301543414611fc3576040517f08c379a0000000000000000000000000000000000000000000000000000000008152600401611fba90613df1565b60405180910390fd5b3481600a0160003373ffffffffffffffffffffffffffffffffffffffff1673ffffffffffffffffffffffffffffffffffffffff16815260200190815260200160002060008282546120149190613b04565b925050819055503481600501600082825461202f9190613b04565b925050819055503373ffffffffffffffffffffffffffffffffffffffff16827f865c884d49c8cecaef108efb20f7d282f26c0f9b0d24dd48e5592d4e02ec658d3460405161207d9190612a43565b60405180910390a35061208e6124b3565b50565b60606001600083815260200190815260200160002060070180548060200260200160405190810160405280929190818152602001828054801561212957602002820191906000526020600020905b8160009054906101000a900473ffffffffffffffffffffffffffffffffffffffff1673ffffffffffffffffffffffffffffffffffffffff16815260200190600101908083116120df575b50505050509050919050565b603281565b60025481565b600060016000838152602001908152602001600020600601549050919050565b6121686124ce565b600073ffffffffffffffffffffffffffffffffffffffff168173ffffffffffffffffffffffffffffffffffffffff16036121da5760006040517f1e4fbdf70000000000000000000000000000000000000000000000000000000081526004016121d19190612ef5565b60405180910390fd5b6121e3816127ba565b50565b6101f481565b6121f461244f565b6121fc612490565b600060016000838152602001908152602001600020905080600e0160009054906101000a900460ff16612264576040517f08c379a000000000000000000000000000000000000000000000000000000000815260040161225b9061303c565b60405180910390fd5b8060080160003373ffffffffffffffffffffffffffffffffffffffff1673ffffffffffffffffffffffffffffffffffffffff16815260200190815260200160002060009054906101000a900460ff16156122f3576040517f08c379a00000000000000000000000000000000000000000000000000000000081526004016122ea90613e5d565b60405180910390fd5b8060020154816007018054905010612340576040517f08c379a000000000000000000000000000000000000000000000000000000000815260040161233790613ec9565b60405180910390fd5b80600701339080600181540180825580915050600190039060005260206000200160009091909190916101000a81548173ffffffffffffffffffffffffffffffffffffffff021916908373ffffffffffffffffffffffffffffffffffffffff16021790555060018160080160003373ffffffffffffffffffffffffffffffffffffffff1673ffffffffffffffffffffffffffffffffffffffff16815260200190815260200160002060006101000a81548160ff0219169083151502179055503373ffffffffffffffffffffffffffffffffffffffff16827f78da64a590c3052953ad9e0a5546bbf12bb68ae7634e3fb2a774e22a8c6557c160405160405180910390a35061244c6124b3565b50565b612457611a89565b1561248e576040517fd93c066500000000000000000000000000000000000000000000000000000000815260040160405180910390fd5b565b6124986128e1565b60026124aa6124a5612922565b61294d565b60000181905550565b60016124c56124c0612922565b61294d565b60000181905550565b6124d6612957565b73ffffffffffffffffffffffffffffffffffffffff166124f4611e09565b73ffffffffffffffffffffffffffffffffffffffff161461255357612517612957565b6040517f118cdaa700000000000000000000000000000000000000000000000000000000815260040161254a9190612ef5565b60405180910390fd5b565b61255d61295f565b60008060146101000a81548160ff0219169083151502179055507f5db9ee0a495bf2e6ff9c91a7834c1ba4fdd244a5e8aa4e537bd38aeae4b073aa6125a0612957565b6040516125ad9190612ef5565b60405180910390a1565b60008082121561269a57816125cb90613ef3565b60016000808152602001908152602001600020600d0160008573ffffffffffffffffffffffffffffffffffffffff1673ffffffffffffffffffffffffffffffffffffffff16815260200190815260200160002054101561262c576000612695565b8161263690613ef3565b60016000808152602001908152602001600020600d0160008573ffffffffffffffffffffffffffffffffffffffff1673ffffffffffffffffffffffffffffffffffffffff168152602001908152602001600020546126949190613126565b5b6126fa565b8160016000808152602001908152602001600020600d0160008573ffffffffffffffffffffffffffffffffffffffff1673ffffffffffffffffffffffffffffffffffffffff168152602001908152602001600020546126f99190613f3b565b5b90506064811161270a578061270d565b60645b90508060016000808152602001908152602001600020600d0160008573ffffffffffffffffffffffffffffffffffffffff1673ffffffffffffffffffffffffffffffffffffffff168152602001908152602001600020819055508273ffffffffffffffffffffffffffffffffffffffff167ffc577563f1b9a0461e24abef1e1fcc0d33d3d881f20b5df6dda59de4aae2c821826040516127ad9190612a43565b60405180910390a2505050565b60008060009054906101000a900473ffffffffffffffffffffffffffffffffffffffff169050816000806101000a81548173ffffffffffffffffffffffffffffffffffffffff021916908373ffffffffffffffffffffffffffffffffffffffff1602179055508173ffffffffffffffffffffffffffffffffffffffff168173ffffffffffffffffffffffffffffffffffffffff167f8be0079c531659141344cd1fd0a4f28419497f9722a3daafe3b4186f6b6457e060405160405180910390a35050565b61288661244f565b6001600060146101000a81548160ff0219169083151502179055507f62e78cea01bee320cd4e420270b5ea74000d11b0c9f74754ebdbfc544b05a2586128ca612957565b6040516128d79190612ef5565b60405180910390a1565b6128e961299f565b15612920576040517f3ee5aeb500000000000000000000000000000000000000000000000000000000815260040160405180910390fd5b565b60007f9b779b17422d0df92223018b32b4d1fa46e071723d6817e2486d003becc55f0060001b905090565b6000819050919050565b600033905090565b612967611a89565b61299d576040517f8dfc202b00000000000000000000000000000000000000000000000000000000815260040160405180910390fd5b565b600060026129b36129ae612922565b61294d565b6000015414905090565b6000604051905090565b600080fd5b600080fd5b6000819050919050565b6129e4816129d1565b81146129ef57600080fd5b50565b600081359050612a01816129db565b92915050565b600060208284031215612a1d57612a1c6129c7565b5b6000612a2b848285016129f2565b91505092915050565b612a3d816129d1565b82525050565b6000602082019050612a586000830184612a34565b92915050565b6000819050919050565b612a7181612a5e565b8114612a7c57600080fd5b50565b600081359050612a8e81612a68565b92915050565b60008060408385031215612aab57612aaa6129c7565b5b6000612ab9858286016129f2565b9250506020612aca85828601612a7f565b9150509250929050565b600080fd5b600080fd5b6000601f19601f8301169050919050565b7f4e487b7100000000000000000000000000000000000000000000000000000000600052604160045260246000fd5b612b2782612ade565b810181811067ffffffffffffffff82111715612b4657612b45612aef565b5b80604052505050565b6000612b596129bd565b9050612b658282612b1e565b919050565b600067ffffffffffffffff821115612b8557612b84612aef565b5b612b8e82612ade565b9050602081019050919050565b82818337600083830152505050565b6000612bbd612bb884612b6a565b612b4f565b905082815260208101848484011115612bd957612bd8612ad9565b5b612be4848285612b9b565b509392505050565b600082601f830112612c0157612c00612ad4565b5b8135612c11848260208601612baa565b91505092915050565b60008060008060808587031215612c3457612c336129c7565b5b600085013567ffffffffffffffff811115612c5257612c516129cc565b5b612c5e87828801612bec565b9450506020612c6f878288016129f2565b9350506040612c80878288016129f2565b9250506060612c91878288016129f2565b91505092959194509250565b600081519050919050565b600082825260208201905092915050565b60005b83811015612cd7578082015181840152602081019050612cbc565b60008484015250505050565b6000612cee82612c9d565b612cf88185612ca8565b9350612d08818560208601612cb9565b612d1181612ade565b840191505092915050565b60008115159050919050565b612d3181612d1c565b82525050565b600073ffffffffffffffffffffffffffffffffffffffff82169050919050565b6000612d6282612d37565b9050919050565b612d7281612d57565b82525050565b600061012082019050612d8e600083018c612a34565b8181036020830152612da0818b612ce3565b9050612daf604083018a612a34565b612dbc6060830189612a34565b612dc96080830188612a34565b612dd660a0830187612a34565b612de360c0830186612a34565b612df060e0830185612d28565b612dfe610100830184612d69565b9a9950505050505050505050565b600080600060608486031215612e2557612e246129c7565b5b6000612e33868287016129f2565b9350506020612e44868287016129f2565b9250506040612e5586828701612a7f565b9150509250925092565b6000602082019050612e746000830184612d28565b92915050565b60006020820190508181036000830152612e948184612ce3565b905092915050565b612ea581612d57565b8114612eb057600080fd5b50565b600081359050612ec281612e9c565b92915050565b600060208284031215612ede57612edd6129c7565b5b6000612eec84828501612eb3565b91505092915050565b6000602082019050612f0a6000830184612d69565b92915050565b600081519050919050565b600082825260208201905092915050565b6000819050602082019050919050565b612f4581612d57565b82525050565b6000612f578383612f3c565b60208301905092915050565b6000602082019050919050565b6000612f7b82612f10565b612f858185612f1b565b9350612f9083612f2c565b8060005b83811015612fc1578151612fa88882612f4b565b9750612fb383612f63565b925050600181019050612f94565b5085935050505092915050565b60006020820190508181036000830152612fe88184612f70565b905092915050565b7f47726f7570206973206e6f742061637469766500000000000000000000000000600082015250565b6000613026601383612ca8565b915061303182612ff0565b602082019050919050565b6000602082019050818103600083015261305581613019565b9050919050565b7f4e6f742061206d656d626572206f6620746869732067726f7570000000000000600082015250565b6000613092601a83612ca8565b915061309d8261305c565b602082019050919050565b600060208201905081810360008301526130c181613085565b9050919050565b7f4e487b7100000000000000000000000000000000000000000000000000000000600052603260045260246000fd5b7f4e487b7100000000000000000000000000000000000000000000000000000000600052601160045260246000fd5b6000613131826129d1565b915061313c836129d1565b9250828203905081811115613154576131536130f7565b5b92915050565b7f4e487b7100000000000000000000000000000000000000000000000000000000600052603160045260246000fd5b6000613194826129d1565b91507fffffffffffffffffffffffffffffffffffffffffffffffffffffffffffffffff82036131c6576131c56130f7565b5b600182019050919050565b60006131dc826129d1565b91506131e7836129d1565b92508282026131f5816129d1565b9150828204841483151761320c5761320b6130f7565b5b5092915050565b7f4e487b7100000000000000000000000000000000000000000000000000000000600052601260045260246000fd5b600061324d826129d1565b9150613258836129d1565b92508261326857613267613213565b5b828204905092915050565b7f496e73756666696369656e7420706f742062616c616e63650000000000000000600082015250565b60006132a9601883612ca8565b91506132b482613273565b602082019050919050565b600060208201905081810360008301526132d88161329c565b9050919050565b600081905092915050565b50565b60006132fa6000836132df565b9150613305826132ea565b600082019050919050565b600061331b826132ed565b9150819050919050565b7f526566756e64206661696c656400000000000000000000000000000000000000600082015250565b600061335b600d83612ca8565b915061336682613325565b602082019050919050565b6000602082019050818103600083015261338a8161334e565b9050919050565b7f57696e6e65722063616e6e6f742062696420616761696e000000000000000000600082015250565b60006133c7601783612ca8565b91506133d282613391565b602082019050919050565b600060208201905081810360008301526133f6816133ba565b9050919050565b7f47726f7570206475726174696f6e20656e646564000000000000000000000000600082015250565b6000613433601483612ca8565b915061343e826133fd565b602082019050919050565b6000602082019050818103600083015261346281613426565b9050919050565b7f416c6c206269647320726563656976656420666f722074686973206d6f6e7468600082015250565b600061349f602083612ca8565b91506134aa82613469565b602082019050919050565b600060208201905081810360008301526134ce81613492565b9050919050565b7f4d7573742068617665206174206c656173742032206d656d6265727300000000600082015250565b600061350b601c83612ca8565b9150613516826134d5565b602082019050919050565b6000602082019050818103600083015261353a816134fe565b9050919050565b7f436f6e747269627574696f6e206d75737420626520677265617465722074686160008201527f6e20300000000000000000000000000000000000000000000000000000000000602082015250565b600061359d602383612ca8565b91506135a882613541565b604082019050919050565b600060208201905081810360008301526135cc81613590565b9050919050565b7f4475726174696f6e206d7573742062652067726561746572207468616e203000600082015250565b6000613609601f83612ca8565b9150613614826135d3565b602082019050919050565b60006020820190508181036000830152613638816135fc565b9050919050565b7f4e487b7100000000000000000000000000000000000000000000000000000000600052602260045260246000fd5b6000600282049050600182168061368657607f821691505b6020821081036136995761369861363f565b5b50919050565b60008190508160005260206000209050919050565b60006020601f8301049050919050565b600082821b905092915050565b6000600883026137017fffffffffffffffffffffffffffffffffffffffffffffffffffffffffffffffff826136c4565b61370b86836136c4565b95508019841693508086168417925050509392505050565b6000819050919050565b600061374861374361373e846129d1565b613723565b6129d1565b9050919050565b6000819050919050565b6137628361372d565b61377661376e8261374f565b8484546136d1565b825550505050565b600090565b61378b61377e565b613796818484613759565b505050565b5b818110156137ba576137af600082613783565b60018101905061379c565b5050565b601f8211156137ff576137d08161369f565b6137d9846136b4565b810160208510156137e8578190505b6137fc6137f4856136b4565b83018261379b565b50505b505050565b600082821c905092915050565b600061382260001984600802613804565b1980831691505092915050565b600061383b8383613811565b9150826002028217905092915050565b61385482612c9d565b67ffffffffffffffff81111561386d5761386c612aef565b5b613877825461366e565b6138828282856137be565b600060209050601f8311600181146138b557600084156138a3578287015190505b6138ad858261382f565b865550613915565b601f1984166138c38661369f565b60005b828110156138eb578489015182556001820191506020850194506020810190506138c6565b868310156139085784890151613904601f891682613811565b8355505b6001600288020188555050505b505050505050565b60006060820190506139326000830186612a34565b61393f6020830185612a34565b61394c6040830184612a34565b949350505050565b7f4f6e6c792061646d696e2063616e2073656c6563742077696e6e657200000000600082015250565b600061398a601c83612ca8565b915061399582613954565b602082019050919050565b600060208201905081810360008301526139b98161397d565b9050919050565b7f416c6c206d656d62657273206d757374207375626d6974206269647300000000600082015250565b60006139f6601c83612ca8565b9150613a01826139c0565b602082019050919050565b60006020820190508181036000830152613a25816139e9565b9050919050565b7f4e6f2076616c6964206269647320666f756e6400000000000000000000000000600082015250565b6000613a62601383612ca8565b9150613a6d82613a2c565b602082019050919050565b60006020820190508181036000830152613a9181613a55565b9050919050565b7f57696e6e696e6720626964206578636565647320706f74000000000000000000600082015250565b6000613ace601783612ca8565b9150613ad982613a98565b602082019050919050565b60006020820190508181036000830152613afd81613ac1565b9050919050565b6000613b0f826129d1565b9150613b1a836129d1565b9250828201905080821115613b3257613b316130f7565b5b92915050565b6000604082019050613b4d6000830185612a34565b613b5a6020830184612a34565b9392505050565b6000819050919050565b613b7c613b77826129d1565b613b61565b82525050565b6000819050919050565b613b9d613b9882612a5e565b613b82565b82525050565b6000613baf8285613b6b565b602082019150613bbf8284613b8c565b6020820191508190509392505050565b7f426964206e6f7420666f756e64206f7220616c72656164792072657665616c6560008201527f6400000000000000000000000000000000000000000000000000000000000000602082015250565b6000613c2b602183612ca8565b9150613c3682613bcf565b604082019050919050565b60006020820190508181036000830152613c5a81613c1e565b9050919050565b7f4e6f206469766964656e647320746f2077697468647261770000000000000000600082015250565b6000613c97601883612ca8565b9150613ca282613c61565b602082019050919050565b60006020820190508181036000830152613cc681613c8a565b9050919050565b7f5472616e73666572206661696c65640000000000000000000000000000000000600082015250565b6000613d03600f83612ca8565b9150613d0e82613ccd565b602082019050919050565b60006020820190508181036000830152613d3281613cf6565b9050919050565b7f57696e6e65722063616e6e6f7420636f6e747269627574652066757274686572600082015250565b6000613d6f602083612ca8565b9150613d7a82613d39565b602082019050919050565b60006020820190508181036000830152613d9e81613d62565b9050919050565b7f496e636f727265637420636f6e747269627574696f6e20616d6f756e74000000600082015250565b6000613ddb601d83612ca8565b9150613de682613da5565b602082019050919050565b60006020820190508181036000830152613e0a81613dce565b9050919050565b7f416c7265616479206a6f696e656420746869732067726f757000000000000000600082015250565b6000613e47601983612ca8565b9150613e5282613e11565b602082019050919050565b60006020820190508181036000830152613e7681613e3a565b9050919050565b7f47726f75702069732066756c6c00000000000000000000000000000000000000600082015250565b6000613eb3600d83612ca8565b9150613ebe82613e7d565b602082019050919050565b60006020820190508181036000830152613ee281613ea6565b9050919050565b6000819050919050565b6000613efe82613ee9565b91507f80000000000000000000000000000000000000000000000000000000000000008203613f3057613f2f6130f7565b5b816000039050919050565b6000613f4682613ee9565b9150613f5183613ee9565b925082820190508281121560008312168382126000841215161715613f7957613f786130f7565b5b9291505056fea2646970667358221220e15fcd32ab7e6333862ab17043b34b063adf72f0aaca98204469165063cf3df164736f6c63430008140033",
  "linkReferences": {},
  "deployedLinkReferences": {}
}