{
  "_format": "hh-sol-artifact-1",
  "contractName": "CircleFi",
  "sourceName": "contracts/CircleFi.sol",
  "abi": [
    {
      "inputs": [],
      "stateMutability": "nonpayable",
      "type": "constructor"
    },
    {
      "inputs": [],
      "name": "EnforcedPause",
      "type": "error"
    },
    {
      "inputs": [],
      "name": "ExpectedPause",
      "type": "error"
    },
    {
      "inputs": [
        {
          "internalType": "address",
          "name": "owner",
          "type": "address"
        }
      ],
      "name": "OwnableInvalidOwner",
      "type": "error"
    },
    {
      "inputs": [
        {
          "internalType": "address",
          "name": "account",
          "type": "address"
        }
      ],
      "name": "OwnableUnauthorizedAccount",
      "type": "error"
    },
    {
      "inputs": [],
      "name": "ReentrancyGuardReentrantCall",
      "type": "error"
    },
    {
      "anonymous": false,
      "inputs": [
        {
          "indexed": true,
          "internalType": "uint256",
          "name": "groupId",
          "type": "uint256"
        },
        {
          "indexed": false,
          "internalType": "uint256",
          "name": "month",
          "type": "uint256"
        },
        {
          "indexed": true,
          "internalType": "address",
          "name": "bidder",
          "type": "address"
        },
        {
          "indexed": false,
          "internalType": "uint256",
          "name": "amount",
          "type": "uint256"
        }
      ],
      "name": "BidRevealed",
      "type": "event"
    },
    {
      "anonymous": false,
      "inputs": [
        {
          "indexed": true,
          "internalType": "uint256",
          "name": "groupId",
          "type": "uint256"
        },
        {
          "indexed": false,
          "internalType": "uint256",
          "name": "month",
          "type": "uint256"
        },
        {
          "indexed": true,
          "internalType": "address",
          "name": "bidder",
          "type": "address"
        }
      ],
      "name": "BidSubmitted",
      "type": "event"
    },
    {
      "anonymous": false,
      "inputs": [
        {
          "indexed": true,
          "internalType": "uint256",
          "name": "groupId",
          "type": "uint256"
        },
        {
          "indexed": true,
          "internalType": "address",
          "name": "member",
          "type": "address"
        },
        {
          "indexed": false,
          "internalType": "uint256",
          "name": "amount",
          "type": "uint256"
        }
      ],
      "name": "ContributionReceived",
      "type": "event"
    },
    {
      "anonymous": false,
      "inputs": [
        {
          "indexed": true,
          "internalType": "uint256",
          "name": "groupId",
          "type": "uint256"
        },
        {
          "indexed": true,
          "internalType": "address",
          "name": "member",
          "type": "address"
        },
        {
          "indexed": false,
          "internalType": "uint256",
          "name": "amount",
          "type": "uint256"
        }
      ],
      "name": "DividendPaid",
      "type": "event"
    },
    {
      "anonymous": false,
      "inputs": [
        {
          "indexed": true,
          "internalType": "uint256",
          "name": "groupId",
          "type": "uint256"
        },
        {
          "indexed": false,
          "internalType": "uint256",
          "name": "memberCount",
          "type": "uint256"
        },
        {
          "indexed": false,
          "internalType": "uint256",
          "name": "monthlyContribution",
          "type": "uint256"
        },
        {
          "indexed": false,
          "internalType": "uint256",
          "name": "duration",
          "type": "uint256"
        },
        {
          "indexed": true,
          "internalType": "address",
          "name": "creator",
          "type": "address"
        }
      ],
      "name": "GroupCreated",
      "type": "event"
    },
    {
      "anonymous": false,
      "inputs": [
        {
          "indexed": true,
          "internalType": "uint256",
          "name": "groupId",
          "type": "uint256"
        },
        {
          "indexed": true,
          "internalType": "address",
          "name": "member",
          "type": "address"
        }
      ],
      "name": "MemberJoined",
      "type": "event"
    },
    {
      "anonymous": false,
      "inputs": [
        {
          "indexed": true,
          "internalType": "address",
          "name": "previousOwner",
          "type": "address"
        },
        {
          "indexed": true,
          "internalType": "address",
          "name": "newOwner",
          "type": "address"
        }
      ],
      "name": "OwnershipTransferred",
      "type": "event"
    },
    {
      "anonymous": false,
      "inputs": [
        {
          "indexed": false,
          "internalType": "address",
          "name": "account",
          "type": "address"
        }
      ],
      "name": "Paused",
      "type": "event"
    },
    {
      "anonymous": false,
      "inputs": [
        {
          "indexed": true,
          "internalType": "uint256",
          "name": "groupId",
          "type": "uint256"
        },
        {
          "indexed": true,
          "internalType": "address",
          "name": "winner",
          "type": "address"
        },
        {
          "indexed": false,
          "internalType": "uint256",
          "name": "amount",
          "type": "uint256"
        }
      ],
      "name": "PotDistributed",
      "type": "event"
    },
    {
      "anonymous": false,
      "inputs": [
        {
          "indexed": true,
          "internalType": "address",
          "name": "member",
          "type": "address"
        },
        {
          "indexed": false,
          "internalType": "uint256",
          "name": "newScore",
          "type": "uint256"
        }
      ],
      "name": "ReputationUpdated",
      "type": "event"
    },
    {
      "anonymous": false,
      "inputs": [
        {
          "indexed": false,
          "internalType": "address",
          "name": "account",
          "type": "address"
        }
      ],
      "name": "Unpaused",
      "type": "event"
    },
    {
      "anonymous": false,
      "inputs": [
        {
          "indexed": true,
          "internalType": "uint256",
          "name": "groupId",
          "type": "uint256"
        },
        {
          "indexed": false,
          "internalType": "uint256",
          "name": "month",
          "type": "uint256"
        },
        {
          "indexed": true,
          "internalType": "address",
          "name": "winner",
          "type": "address"
        },
        {
          "indexed": false,
          "internalType": "uint256",
          "name": "winningAmount",
          "type": "uint256"
        }
      ],
      "name": "WinnerSelected",
      "type": "event"
    },
    {
      "inputs": [],
      "name": "AUCTION_DEADLINE",
      "outputs": [
        {
          "internalType": "uint256",
          "name": "",
          "type": "uint256"
        }
      ],
      "stateMutability": "view",
      "type": "function"
    },
    {
      "inputs": [],
      "name": "EXIT_PENALTY_BPS",
      "outputs": [
        {
          "internalType": "uint256",
          "name": "",
          "type": "uint256"
        }
      ],
      "stateMutability": "view",
      "type": "function"
    },
    {
      "inputs": [],
      "name": "MIN_REPUTATION_SCORE",
      "outputs": [
        {
          "internalType": "uint256",
          "name": "",
          "type": "uint256"
        }
      ],
      "stateMutability": "view",
      "type": "function"
    },
    {
      "inputs": [
        {
          "internalType": "uint256",
          "name": "",
          "type": "uint256"
        }
      ],
      "name": "chitGroups",
      "outputs": [
        {
          "internalType": "uint256",
          "name": "groupId",
          "type": "uint256"
        },
        {
          "internalType": "string",
          "name": "groupName",
          "type": "string"
        },
        {
          "internalType": "uint256",
          "name": "memberCount",
          "type": "uint256"
        },
        {
          "internalType": "uint256",
          "name": "monthlyContribution",
          "type": "uint256"
        },
        {
          "internalType": "uint256",
          "name": "duration",
          "type": "uint256"
        },
        {
          "internalType": "uint256",
          "name": "totalPot",
          "type": "uint256"
        },
        {
          "internalType": "uint256",
          "name": "currentMonth",
          "type": "uint256"
        },
        {
          "internalType": "bool",
          "name": "isActive",
          "type": "bool"
        },
        {
          "internalType": "address",
          "name": "admin",
          "type": "address"
        }
      ],
      "stateMutability": "view",
      "type": "function"
    },
    {
      "inputs": [
        {
          "internalType": "uint256",
          "name": "_groupId",
          "type": "uint256"
        }
      ],
      "name": "contribute",
      "outputs": [],
      "stateMutability": "payable",
      "type": "function"
    },
    {
      "inputs": [
        {
          "internalType": "uint256",
          "name": "_memberCount",
          "type": "uint256"
        },
        {
          "internalType": "uint256",
          "name": "_monthlyContribution",
          "type": "uint256"
        },
        {
          "internalType": "uint256",
          "name": "_duration",
          "type": "uint256"
        }
      ],
      "name": "createChitGroup",
      "outputs": [
        {
          "internalType": "uint256",
          "name": "",
          "type": "uint256"
        }
      ],
      "stateMutability": "nonpayable",
      "type": "function"
    },
    {
      "inputs": [
        {
          "internalType": "uint256",
          "name": "_groupId",
          "type": "uint256"
        }
      ],
      "name": "exitGroup",
      "outputs": [],
      "stateMutability": "nonpayable",
      "type": "function"
    },
    {
      "inputs": [
        {
          "internalType": "uint256",
          "name": "_groupId",
          "type": "uint256"
        }
      ],
      "name": "getCurrentMonth",
      "outputs": [
        {
          "internalType": "uint256",
          "name": "",
          "type": "uint256"
        }
      ],
      "stateMutability": "view",
      "type": "function"
    },
    {
      "inputs": [
        {
          "internalType": "uint256",
          "name": "_groupId",
          "type": "uint256"
        }
      ],
      "name": "getCurrentPot",
      "outputs": [
        {
          "internalType": "uint256",
          "name": "",
          "type": "uint256"
        }
      ],
      "stateMutability": "view",
      "type": "function"
    },
    {
      "inputs": [
        {
          "internalType": "uint256",
          "name": "_groupId",
          "type": "uint256"
        }
      ],
      "name": "getMembers",
      "outputs": [
        {
          "internalType": "address[]",
          "name": "",
          "type": "address[]"
        }
      ],
      "stateMutability": "view",
      "type": "function"
    },
    {
      "inputs": [
        {
          "internalType": "uint256",
          "name": "_groupId",
          "type": "uint256"
        }
      ],
      "name": "getName",
      "outputs": [
        {
          "internalType": "string",
          "name": "",
          "type": "string"
        }
      ],
      "stateMutability": "view",
      "type": "function"
    },
    {
      "inputs": [
        {
          "internalType": "address",
          "name": "_member",
          "type": "address"
        }
      ],
      "name": "getReputationScore",
      "outputs": [
        {
          "internalType": "uint256",
          "name": "",
          "type": "uint256"
        }
      ],
      "stateMutability": "view",
      "type": "function"
    },
    {
      "inputs": [],
      "name": "groupCounter",
      "outputs": [
        {
          "internalType": "uint256",
          "name": "",
          "type": "uint256"
        }
      ],
      "stateMutability": "view",
      "type": "function"
    },
    {
      "inputs": [
        {
          "internalType": "uint256",
          "name": "_groupId",
          "type": "uint256"
        }
      ],
      "name": "joinChitGroup",
      "outputs": [],
      "stateMutability": "nonpayable",
      "type": "function"
    },
    {
      "inputs": [],
      "name": "owner",
      "outputs": [
        {
          "internalType": "address",
          "name": "",
          "type": "address"
        }
      ],
      "stateMutability": "view",
      "type": "function"
    },
    {
      "inputs": [],
      "name": "pause",
      "outputs": [],
      "stateMutability": "nonpayable",
      "type": "function"
    },
    {
      "inputs": [],
      "name": "paused",
      "outputs": [
        {
          "internalType": "bool",
          "name": "",
          "type": "bool"
        }
      ],
      "stateMutability": "view",
      "type": "function"
    },
    {
      "inputs": [],
      "name": "renounceOwnership",
      "outputs": [],
      "stateMutability": "nonpayable",
      "type": "function"
    },
    {
      "inputs": [
        {
          "internalType": "uint256",
          "name": "_groupId",
          "type": "uint256"
        },
        {
          "internalType": "uint256",
          "name": "_bidAmount",
          "type": "uint256"
        },
        {
          "internalType": "bytes32",
          "name": "_salt",
          "type": "bytes32"
        }
      ],
      "name": "revealBid",
      "outputs": [],
      "stateMutability": "nonpayable",
      "type": "function"
    },
    {
      "inputs": [
        {
          "internalType": "uint256",
          "name": "_groupId",
          "type": "uint256"
        }
      ],
      "name": "selectWinner",
      "outputs": [],
      "stateMutability": "nonpayable",
      "type": "function"
    },
    {
      "inputs": [
        {
          "internalType": "uint256",
          "name": "_groupId",
          "type": "uint256"
        },
        {
          "internalType": "bytes32",
          "name": "_sealedBidHash",
          "type": "bytes32"
        }
      ],
      "name": "submitBid",
      "outputs": [],
      "stateMutability": "nonpayable",
      "type": "function"
    },
    {
      "inputs": [
        {
          "internalType": "address",
          "name": "newOwner",
          "type": "address"
        }
      ],
      "name": "transferOwnership",
      "outputs": [],
      "stateMutability": "nonpayable",
      "type": "function"
    },
    {
      "inputs": [],
      "name": "unpause",
      "outputs": [],
      "stateMutability": "nonpayable",
      "type": "function"
    },
    {
      "inputs": [
        {
          "internalType": "uint256",
          "name": "_groupId",
          "type": "uint256"
        }
      ],
      "name": "withdrawDividend",
      "outputs": [],
      "stateMutability": "nonpayable",
      "type": "function"
    }
  ],
  "bytecode": "0x60806040523480156200001157600080fd5b503360016200003562000029620000c960201b60201c565b620000f460201b60201c565b60000181905550600073ffffffffffffffffffffffffffffffffffffffff168173ffffffffffffffffffffffffffffffffffffffff1603620000b15760006040517f1e4fbdf7000000000000000000000000000000000000000000000000000000008152600401620000a8919062000207565b60405180910390fd5b620000c281620000fe60201b60201c565b5062000224565b60007f9b779b17422d0df92223018b32b4d1fa46e071723d6817e2486d003becc55f0060001b905090565b6000819050919050565b60008060009054906101000a900473ffffffffffffffffffffffffffffffffffffffff169050816000806101000a81548173ffffffffffffffffffffffffffffffffffffffff021916908373ffffffffffffffffffffffffffffffffffffffff1602179055508173ffffffffffffffffffffffffffffffffffffffff168173ffffffffffffffffffffffffffffffffffffffff167f8be0079c531659141344cd1fd0a4f28419497f9722a3daafe3b4186f6b6457e060405160405180910390a35050565b600073ffffffffffffffffffffffffffffffffffffffff82169050919050565b6000620001ef82620001c2565b9050919050565b6200020181620001e2565b82525050565b60006020820190506200021e6000830184620001f6565b92915050565b613e7e80620002346000396000f3fe60806040526004361061014b5760003560e01c80638456cb59116100b6578063cff0d4b71161006f578063cff0d4b714610463578063d24924fe146104a0578063ea47b3d4146104cb578063f2fde38b14610508578063f3eff07b14610531578063f71440f11461055c5761014b565b80638456cb59146103725780638da5cb5b14610389578063a213de5c146103b4578063c1cbbca7146103df578063c477ecab146103fb578063c77943c0146104385761014b565b80634d380a0d116101085780634d380a0d146102645780635c975abb1461028d5780635d9bd8b2146102b85780636b8ff574146102e1578063715018a61461031e57806375a67d5c146103355761014b565b80630ba0c922146101505780630f45ccf21461017957806319fcfab1146101b65780633f4ba83a146101df5780634018b1de146101f65780634c524be41461023b575b600080fd5b34801561015c57600080fd5b5061017760048036038101906101729190612a06565b610585565b005b34801561018557600080fd5b506101a0600480360381019061019b9190612a06565b610a6c565b6040516101ad9190612a42565b60405180910390f35b3480156101c257600080fd5b506101dd60048036038101906101d89190612a93565b610a8c565b005b3480156101eb57600080fd5b506101f4610df5565b005b34801561020257600080fd5b5061021d60048036038101906102189190612a06565b610e07565b60405161023299989796959493929190612bbf565b60405180910390f35b34801561024757600080fd5b50610262600480360381019061025d9190612a06565b610f0a565b005b34801561027057600080fd5b5061028b60048036038101906102869190612c53565b61153c565b005b34801561029957600080fd5b506102a2611882565b6040516102af9190612ca6565b60405180910390f35b3480156102c457600080fd5b506102df60048036038101906102da9190612a06565b611898565b005b3480156102ed57600080fd5b5061030860048036038101906103039190612a06565b611ad7565b6040516103159190612cc1565b60405180910390f35b34801561032a57600080fd5b50610333611b7f565b005b34801561034157600080fd5b5061035c60048036038101906103579190612d0f565b611b93565b6040516103699190612a42565b60405180910390f35b34801561037e57600080fd5b50610387611bf0565b005b34801561039557600080fd5b5061039e611c02565b6040516103ab9190612d3c565b60405180910390f35b3480156103c057600080fd5b506103c9611c2b565b6040516103d69190612a42565b60405180910390f35b6103f960048036038101906103f49190612a06565b611c32565b005b34801561040757600080fd5b50610422600480360381019061041d9190612a06565b611e8a565b60405161042f9190612e15565b60405180910390f35b34801561044457600080fd5b5061044d611f2e565b60405161045a9190612a42565b60405180910390f35b34801561046f57600080fd5b5061048a60048036038101906104859190612e37565b611f33565b6040516104979190612a42565b60405180910390f35b3480156104ac57600080fd5b506104b5612148565b6040516104c29190612a42565b60405180910390f35b3480156104d757600080fd5b506104f260048036038101906104ed9190612a06565b61214e565b6040516104ff9190612a42565b60405180910390f35b34801561051457600080fd5b5061052f600480360381019061052a9190612d0f565b61216e565b005b34801561053d57600080fd5b506105466121f4565b6040516105539190612a42565b60405180910390f35b34801561056857600080fd5b50610583600480360381019061057e9190612a06565b6121fa565b005b61058d61245d565b61059561249e565b600060016000838152602001908152602001600020905080600e0160009054906101000a900460ff166105fd576040517f08c379a00000000000000000000000000000000000000000000000000000000081526004016105f490612ed6565b60405180910390fd5b8060080160003373ffffffffffffffffffffffffffffffffffffffff1673ffffffffffffffffffffffffffffffffffffffff16815260200190815260200160002060009054906101000a900460ff1661068b576040517f08c379a000000000000000000000000000000000000000000000000000000000815260040161068290612f42565b60405180910390fd5b60005b8160070180549050811015610823573373ffffffffffffffffffffffffffffffffffffffff168260070182815481106106ca576106c9612f62565b5b9060005260206000200160009054906101000a900473ffffffffffffffffffffffffffffffffffffffff1673ffffffffffffffffffffffffffffffffffffffff16036108105781600701600183600701805490506107289190612fc0565b8154811061073957610738612f62565b5b9060005260206000200160009054906101000a900473ffffffffffffffffffffffffffffffffffffffff1682600701828154811061077a57610779612f62565b5b9060005260206000200160006101000a81548173ffffffffffffffffffffffffffffffffffffffff021916908373ffffffffffffffffffffffffffffffffffffffff160217905550816007018054806107d6576107d5612ff4565b5b6001900381819060005260206000200160006101000a81549073ffffffffffffffffffffffffffffffffffffffff02191690559055610823565b808061081b90613023565b91505061068e565b5060008160080160003373ffffffffffffffffffffffffffffffffffffffff1673ffffffffffffffffffffffffffffffffffffffff16815260200190815260200160002060006101000a81548160ff021916908315150217905550600081600a0160003373ffffffffffffffffffffffffffffffffffffffff1673ffffffffffffffffffffffffffffffffffffffff1681526020019081526020016000205490506000811115610a5f5760006127106101f4836108e0919061306b565b6108ea91906130dc565b9050600081836108fa9190612fc0565b9050600084600a0160003373ffffffffffffffffffffffffffffffffffffffff1673ffffffffffffffffffffffffffffffffffffffff168152602001908152602001600020819055506000811115610a5c578084600501541015610993576040517f08c379a000000000000000000000000000000000000000000000000000000000815260040161098a90613159565b60405180910390fd5b808460050160008282546109a79190612fc0565b9250508190555060003373ffffffffffffffffffffffffffffffffffffffff16826040516109d4906131aa565b60006040518083038185875af1925050503d8060008114610a11576040519150601f19603f3d011682016040523d82523d6000602084013e610a16565b606091505b5050905080610a5a576040517f08c379a0000000000000000000000000000000000000000000000000000000008152600401610a519061320b565b60405180910390fd5b505b50505b5050610a696124c1565b50565b600060016000838152602001908152602001600020600501549050919050565b610a9461245d565b610a9c61249e565b60006001600084815260200190815260200160002090508060080160003373ffffffffffffffffffffffffffffffffffffffff1673ffffffffffffffffffffffffffffffffffffffff16815260200190815260200160002060009054906101000a900460ff16610b41576040517f08c379a0000000000000000000000000000000000000000000000000000000008152600401610b3890612f42565b60405180910390fd5b8060090160003373ffffffffffffffffffffffffffffffffffffffff1673ffffffffffffffffffffffffffffffffffffffff16815260200190815260200160002060009054906101000a900460ff1615610bd0576040517f08c379a0000000000000000000000000000000000000000000000000000000008152600401610bc790613277565b60405180910390fd5b8060040154816006015410610c1a576040517f08c379a0000000000000000000000000000000000000000000000000000000008152600401610c11906132e3565b60405180910390fd5b806007018054905081600b016000836006015481526020019081526020016000208054905010610c7f576040517f08c379a0000000000000000000000000000000000000000000000000000000008152600401610c769061334f565b60405180910390fd5b60006040518060a001604052803373ffffffffffffffffffffffffffffffffffffffff1681526020018460001c81526020016000801b81526020016000151581526020016000815250905081600b0160008360060154815260200190815260200160002081908060018154018082558091505060019003906000526020600020906005020160009091909190915060008201518160000160006101000a81548173ffffffffffffffffffffffffffffffffffffffff021916908373ffffffffffffffffffffffffffffffffffffffff160217905550602082015181600101556040820151816002015560608201518160030160006101000a81548160ff0219169083151502179055506080820151816004015550503373ffffffffffffffffffffffffffffffffffffffff16847f2eef226398f000ec33af3b3be58878356d5c7b195bff89de5067bbfe7d2ee4a38460060154604051610ddf9190612a42565b60405180910390a35050610df16124c1565b5050565b610dfd6124dc565b610e05612563565b565b6001602052806000526040600020600091509050806000015490806001018054610e309061339e565b80601f0160208091040260200160405190810160405280929190818152602001828054610e5c9061339e565b8015610ea95780601f10610e7e57610100808354040283529160200191610ea9565b820191906000526020600020905b815481529060010190602001808311610e8c57829003601f168201915b50505050509080600201549080600301549080600401549080600501549080600601549080600e0160009054906101000a900460ff169080600e0160019054906101000a900473ffffffffffffffffffffffffffffffffffffffff16905089565b610f1261245d565b610f1a61249e565b600060016000838152602001908152602001600020905080600e0160019054906101000a900473ffffffffffffffffffffffffffffffffffffffff1673ffffffffffffffffffffffffffffffffffffffff163373ffffffffffffffffffffffffffffffffffffffff1614610fc3576040517f08c379a0000000000000000000000000000000000000000000000000000000008152600401610fba9061341b565b60405180910390fd5b806004015481600601541061100d576040517f08c379a0000000000000000000000000000000000000000000000000000000008152600401611004906132e3565b60405180910390fd5b600081600b0160008360060154815260200190815260200160002090508160070180549050818054905014611077576040517f08c379a000000000000000000000000000000000000000000000000000000000815260040161106e90613487565b60405180910390fd5b60007fffffffffffffffffffffffffffffffffffffffffffffffffffffffffffffffff905060008060005b8480549050811015611199578481815481106110c1576110c0612f62565b5b906000526020600020906005020160030160009054906101000a900460ff16801561110f5750838582815481106110fb576110fa612f62565b5b906000526020600020906005020160040154105b156111865784818154811061112757611126612f62565b5b906000526020600020906005020160040154935084818154811061114e5761114d612f62565b5b906000526020600020906005020160000160009054906101000a900473ffffffffffffffffffffffffffffffffffffffff1692508091505b808061119190613023565b9150506110a2565b50600073ffffffffffffffffffffffffffffffffffffffff168273ffffffffffffffffffffffffffffffffffffffff1603611209576040517f08c379a0000000000000000000000000000000000000000000000000000000008152600401611200906134f3565b60405180910390fd5b8460050154831115611250576040517f08c379a00000000000000000000000000000000000000000000000000000000081526004016112479061355f565b60405180910390fd5b60018560090160008473ffffffffffffffffffffffffffffffffffffffff1673ffffffffffffffffffffffffffffffffffffffff16815260200190815260200160002060006101000a81548160ff021916908315150217905550600085600501549050600086600501819055506112c883600a6125c5565b600060018760070180549050111561141d57600060646009876112eb919061306b565b6112f591906130dc565b90506001886007018054905061130b9190612fc0565b8161131691906130dc565b915060005b886007018054905081101561141a57600089600701828154811061134257611341612f62565b5b9060005260206000200160009054906101000a900473ffffffffffffffffffffffffffffffffffffffff1690508673ffffffffffffffffffffffffffffffffffffffff168173ffffffffffffffffffffffffffffffffffffffff161461140657838a600c0160008373ffffffffffffffffffffffffffffffffffffffff1673ffffffffffffffffffffffffffffffffffffffff16815260200190815260200160002060008282546113f3919061357f565b925050819055506114058160056125c5565b5b50808061141290613023565b91505061131b565b50505b8373ffffffffffffffffffffffffffffffffffffffff16887fb8639d96359347ee9c2450fb169ec40a1539570d38bca935b1e2a6fed3e694e489600601548860405161146a9291906135b3565b60405180910390a38373ffffffffffffffffffffffffffffffffffffffff16887f3ab4f323fd531c422d25e49d15ba3d99aefe451f3659533320df5c88255f8a53846040516114b99190612a42565b60405180910390a38373ffffffffffffffffffffffffffffffffffffffff16887f18516bc2ff7ae42f7fa874a7eec9cc3721e46f3fae984459d0b02475b50d8e5b836040516115089190612a42565b60405180910390a386600601600081548092919061152590613023565b9190505550505050505050506115396124c1565b50565b61154461245d565b61154c61249e565b60006001600085815260200190815260200160002090508060080160003373ffffffffffffffffffffffffffffffffffffffff1673ffffffffffffffffffffffffffffffffffffffff16815260200190815260200160002060009054906101000a900460ff166115f1576040517f08c379a00000000000000000000000000000000000000000000000000000000081526004016115e890612f42565b60405180910390fd5b6000838360405160200161160692919061361e565b604051602081830303815290604052805190602001209050600082600b0160008460060154815260200190815260200160002090506000805b82805490508110156117db573373ffffffffffffffffffffffffffffffffffffffff1683828154811061167557611674612f62565b5b906000526020600020906005020160000160009054906101000a900473ffffffffffffffffffffffffffffffffffffffff1673ffffffffffffffffffffffffffffffffffffffff161480156116f957508281815481106116d8576116d7612f62565b5b906000526020600020906005020160030160009054906101000a900460ff16155b801561172b57508360001c83828154811061171757611716612f62565b5b906000526020600020906005020160010154145b156117c857600183828154811061174557611744612f62565b5b906000526020600020906005020160030160006101000a81548160ff0219169083151502179055508683828154811061178157611780612f62565b5b906000526020600020906005020160040181905550858382815481106117aa576117a9612f62565b5b906000526020600020906005020160020181905550600191506117db565b80806117d390613023565b91505061163f565b508061181c576040517f08c379a0000000000000000000000000000000000000000000000000000000008152600401611813906136bc565b60405180910390fd5b3373ffffffffffffffffffffffffffffffffffffffff16877fba834bd29b9c83bed0d9d44ea4d24baaf635bead31040df74304eccaec08a9288660060154896040516118699291906135b3565b60405180910390a35050505061187d6124c1565b505050565b60008060149054906101000a900460ff16905090565b6118a061245d565b6118a861249e565b60006001600083815260200190815260200160002090508060080160003373ffffffffffffffffffffffffffffffffffffffff1673ffffffffffffffffffffffffffffffffffffffff16815260200190815260200160002060009054906101000a900460ff1661194d576040517f08c379a000000000000000000000000000000000000000000000000000000000815260040161194490612f42565b60405180910390fd5b600081600c0160003373ffffffffffffffffffffffffffffffffffffffff1673ffffffffffffffffffffffffffffffffffffffff168152602001908152602001600020549050600081116119d6576040517f08c379a00000000000000000000000000000000000000000000000000000000081526004016119cd90613728565b60405180910390fd5b600082600c0160003373ffffffffffffffffffffffffffffffffffffffff1673ffffffffffffffffffffffffffffffffffffffff1681526020019081526020016000208190555060003373ffffffffffffffffffffffffffffffffffffffff1682604051611a43906131aa565b60006040518083038185875af1925050503d8060008114611a80576040519150601f19603f3d011682016040523d82523d6000602084013e611a85565b606091505b5050905080611ac9576040517f08c379a0000000000000000000000000000000000000000000000000000000008152600401611ac090613794565b60405180910390fd5b505050611ad46124c1565b50565b6060600160008381526020019081526020016000206001018054611afa9061339e565b80601f0160208091040260200160405190810160405280929190818152602001828054611b269061339e565b8015611b735780601f10611b4857610100808354040283529160200191611b73565b820191906000526020600020905b815481529060010190602001808311611b5657829003601f168201915b50505050509050919050565b611b876124dc565b611b9160006127c8565b565b600060016000808152602001908152602001600020600d0160008373ffffffffffffffffffffffffffffffffffffffff1673ffffffffffffffffffffffffffffffffffffffff168152602001908152602001600020549050919050565b611bf86124dc565b611c0061288c565b565b60008060009054906101000a900473ffffffffffffffffffffffffffffffffffffffff16905090565b6201518081565b611c3a61245d565b611c4261249e565b60006001600083815260200190815260200160002090508060080160003373ffffffffffffffffffffffffffffffffffffffff1673ffffffffffffffffffffffffffffffffffffffff16815260200190815260200160002060009054906101000a900460ff16611ce7576040517f08c379a0000000000000000000000000000000000000000000000000000000008152600401611cde90612f42565b60405180910390fd5b8060090160003373ffffffffffffffffffffffffffffffffffffffff1673ffffffffffffffffffffffffffffffffffffffff16815260200190815260200160002060009054906101000a900460ff1615611d76576040517f08c379a0000000000000000000000000000000000000000000000000000000008152600401611d6d90613800565b60405180910390fd5b80600301543414611dbc576040517f08c379a0000000000000000000000000000000000000000000000000000000008152600401611db39061386c565b60405180910390fd5b3481600a0160003373ffffffffffffffffffffffffffffffffffffffff1673ffffffffffffffffffffffffffffffffffffffff1681526020019081526020016000206000828254611e0d919061357f565b9250508190555034816005016000828254611e28919061357f565b925050819055503373ffffffffffffffffffffffffffffffffffffffff16827f865c884d49c8cecaef108efb20f7d282f26c0f9b0d24dd48e5592d4e02ec658d34604051611e769190612a42565b60405180910390a350611e876124c1565b50565b606060016000838152602001908152602001600020600701805480602002602001604051908101604052809291908181526020018280548015611f2257602002820191906000526020600020905b8160009054906101000a900473ffffffffffffffffffffffffffffffffffffffff1673ffffffffffffffffffffffffffffffffffffffff1681526020019060010190808311611ed8575b50505050509050919050565b603281565b600060018411611f78576040517f08c379a0000000000000000000000000000000000000000000000000000000008152600401611f6f906138d8565b60405180910390fd5b60008311611fbb576040517f08c379a0000000000000000000000000000000000000000000000000000000008152600401611fb29061396a565b60405180910390fd5b60008211611ffe576040517f08c379a0000000000000000000000000000000000000000000000000000000008152600401611ff5906139d6565b60405180910390fd5b60006002600081548092919061201390613023565b9190505590506000600160008381526020019081526020016000209050818160000181905550604051806020016040528060008152508160010190816120599190613bd1565b508581600201819055508481600301819055508381600401819055506000816005018190555060008160060181905550600181600e0160006101000a81548160ff0219169083151502179055503381600e0160016101000a81548173ffffffffffffffffffffffffffffffffffffffff021916908373ffffffffffffffffffffffffffffffffffffffff1602179055503373ffffffffffffffffffffffffffffffffffffffff16827fdd48c6c19a510fa11b39bd93062ceb47b77965666d93eff740bcb9415b96087f88888860405161213493929190613ca3565b60405180910390a381925050509392505050565b60025481565b600060016000838152602001908152602001600020600601549050919050565b6121766124dc565b600073ffffffffffffffffffffffffffffffffffffffff168173ffffffffffffffffffffffffffffffffffffffff16036121e85760006040517f1e4fbdf70000000000000000000000000000000000000000000000000000000081526004016121df9190612d3c565b60405180910390fd5b6121f1816127c8565b50565b6101f481565b61220261245d565b61220a61249e565b600060016000838152602001908152602001600020905080600e0160009054906101000a900460ff16612272576040517f08c379a000000000000000000000000000000000000000000000000000000000815260040161226990612ed6565b60405180910390fd5b8060080160003373ffffffffffffffffffffffffffffffffffffffff1673ffffffffffffffffffffffffffffffffffffffff16815260200190815260200160002060009054906101000a900460ff1615612301576040517f08c379a00000000000000000000000000000000000000000000000000000000081526004016122f890613d26565b60405180910390fd5b806002015481600701805490501061234e576040517f08c379a000000000000000000000000000000000000000000000000000000000815260040161234590613d92565b60405180910390fd5b80600701339080600181540180825580915050600190039060005260206000200160009091909190916101000a81548173ffffffffffffffffffffffffffffffffffffffff021916908373ffffffffffffffffffffffffffffffffffffffff16021790555060018160080160003373ffffffffffffffffffffffffffffffffffffffff1673ffffffffffffffffffffffffffffffffffffffff16815260200190815260200160002060006101000a81548160ff0219169083151502179055503373ffffffffffffffffffffffffffffffffffffffff16827f78da64a590c3052953ad9e0a5546bbf12bb68ae7634e3fb2a774e22a8c6557c160405160405180910390a35061245a6124c1565b50565b612465611882565b1561249c576040517fd93c066500000000000000000000000000000000000000000000000000000000815260040160405180910390fd5b565b6124a66128ef565b60026124b86124b3612930565b61295b565b60000181905550565b60016124d36124ce612930565b61295b565b60000181905550565b6124e4612965565b73ffffffffffffffffffffffffffffffffffffffff16612502611c02565b73ffffffffffffffffffffffffffffffffffffffff161461256157612525612965565b6040517f118cdaa70000000000000000000000000000000000000000000000000000000081526004016125589190612d3c565b60405180910390fd5b565b61256b61296d565b60008060146101000a81548160ff0219169083151502179055507f5db9ee0a495bf2e6ff9c91a7834c1ba4fdd244a5e8aa4e537bd38aeae4b073aa6125ae612965565b6040516125bb9190612d3c565b60405180910390a1565b6000808212156126a857816125d990613dbc565b60016000808152602001908152602001600020600d0160008573ffffffffffffffffffffffffffffffffffffffff1673ffffffffffffffffffffffffffffffffffffffff16815260200190815260200160002054101561263a5760006126a3565b8161264490613dbc565b60016000808152602001908152602001600020600d0160008573ffffffffffffffffffffffffffffffffffffffff1673ffffffffffffffffffffffffffffffffffffffff168152602001908152602001600020546126a29190612fc0565b5b612708565b8160016000808152602001908152602001600020600d0160008573ffffffffffffffffffffffffffffffffffffffff1673ffffffffffffffffffffffffffffffffffffffff168152602001908152602001600020546127079190613e04565b5b905060648111612718578061271b565b60645b90508060016000808152602001908152602001600020600d0160008573ffffffffffffffffffffffffffffffffffffffff1673ffffffffffffffffffffffffffffffffffffffff168152602001908152602001600020819055508273ffffffffffffffffffffffffffffffffffffffff167ffc577563f1b9a0461e24abef1e1fcc0d33d3d881f20b5df6dda59de4aae2c821826040516127bb9190612a42565b60405180910390a2505050565b60008060009054906101000a900473ffffffffffffffffffffffffffffffffffffffff169050816000806101000a81548173ffffffffffffffffffffffffffffffffffffffff021916908373ffffffffffffffffffffffffffffffffffffffff1602179055508173ffffffffffffffffffffffffffffffffffffffff168173ffffffffffffffffffffffffffffffffffffffff167f8be0079c531659141344cd1fd0a4f28419497f9722a3daafe3b4186f6b6457e060405160405180910390a35050565b61289461245d565b6001600060146101000a81548160ff0219169083151502179055507f62e78cea01bee320cd4e420270b5ea74000d11b0c9f74754ebdbfc544b05a2586128d8612965565b6040516128e59190612d3c565b60405180910390a1565b6128f76129ad565b1561292e576040517f3ee5aeb500000000000000000000000000000000000000000000000000000000815260040160405180910390fd5b565b60007f9b779b17422d0df92223018b32b4d1fa46e071723d6817e2486d003becc55f0060001b905090565b6000819050919050565b600033905090565b612975611882565b6129ab576040517f8dfc202b00000000000000000000000000000000000000000000000000000000815260040160405180910390fd5b565b600060026129c16129bc612930565b61295b565b6000015414905090565b600080fd5b6000819050919050565b6129e3816129d0565b81146129ee57600080fd5b50565b600081359050612a00816129da565b92915050565b600060208284031215612a1c57612a1b6129cb565b5b6000612a2a848285016129f1565b91505092915050565b612a3c816129d0565b82525050565b6000602082019050612a576000830184612a33565b92915050565b6000819050919050565b612a7081612a5d565b8114612a7b57600080fd5b50565b600081359050612a8d81612a67565b92915050565b60008060408385031215612aaa57612aa96129cb565b5b6000612ab8858286016129f1565b9250506020612ac985828601612a7e565b9150509250929050565b600081519050919050565b600082825260208201905092915050565b60005b83811015612b0d578082015181840152602081019050612af2565b60008484015250505050565b6000601f19601f8301169050919050565b6000612b3582612ad3565b612b3f8185612ade565b9350612b4f818560208601612aef565b612b5881612b19565b840191505092915050565b60008115159050919050565b612b7881612b63565b82525050565b600073ffffffffffffffffffffffffffffffffffffffff82169050919050565b6000612ba982612b7e565b9050919050565b612bb981612b9e565b82525050565b600061012082019050612bd5600083018c612a33565b8181036020830152612be7818b612b2a565b9050612bf6604083018a612a33565b612c036060830189612a33565b612c106080830188612a33565b612c1d60a0830187612a33565b612c2a60c0830186612a33565b612c3760e0830185612b6f565b612c45610100830184612bb0565b9a9950505050505050505050565b600080600060608486031215612c6c57612c6b6129cb565b5b6000612c7a868287016129f1565b9350506020612c8b868287016129f1565b9250506040612c9c86828701612a7e565b9150509250925092565b6000602082019050612cbb6000830184612b6f565b92915050565b60006020820190508181036000830152612cdb8184612b2a565b905092915050565b612cec81612b9e565b8114612cf757600080fd5b50565b600081359050612d0981612ce3565b92915050565b600060208284031215612d2557612d246129cb565b5b6000612d3384828501612cfa565b91505092915050565b6000602082019050612d516000830184612bb0565b92915050565b600081519050919050565b600082825260208201905092915050565b6000819050602082019050919050565b612d8c81612b9e565b82525050565b6000612d9e8383612d83565b60208301905092915050565b6000602082019050919050565b6000612dc282612d57565b612dcc8185612d62565b9350612dd783612d73565b8060005b83811015612e08578151612def8882612d92565b9750612dfa83612daa565b925050600181019050612ddb565b5085935050505092915050565b60006020820190508181036000830152612e2f8184612db7565b905092915050565b600080600060608486031215612e5057612e4f6129cb565b5b6000612e5e868287016129f1565b9350506020612e6f868287016129f1565b9250506040612e80868287016129f1565b9150509250925092565b7f47726f7570206973206e6f742061637469766500000000000000000000000000600082015250565b6000612ec0601383612ade565b9150612ecb82612e8a565b602082019050919050565b60006020820190508181036000830152612eef81612eb3565b9050919050565b7f4e6f742061206d656d626572206f6620746869732067726f7570000000000000600082015250565b6000612f2c601a83612ade565b9150612f3782612ef6565b602082019050919050565b60006020820190508181036000830152612f5b81612f1f565b9050919050565b7f4e487b7100000000000000000000000000000000000000000000000000000000600052603260045260246000fd5b7f4e487b7100000000000000000000000000000000000000000000000000000000600052601160045260246000fd5b6000612fcb826129d0565b9150612fd6836129d0565b9250828203905081811115612fee57612fed612f91565b5b92915050565b7f4e487b7100000000000000000000000000000000000000000000000000000000600052603160045260246000fd5b600061302e826129d0565b91507fffffffffffffffffffffffffffffffffffffffffffffffffffffffffffffffff82036130605761305f612f91565b5b600182019050919050565b6000613076826129d0565b9150613081836129d0565b925082820261308f816129d0565b915082820484148315176130a6576130a5612f91565b5b5092915050565b7f4e487b7100000000000000000000000000000000000000000000000000000000600052601260045260246000fd5b60006130e7826129d0565b91506130f2836129d0565b925082613102576131016130ad565b5b828204905092915050565b7f496e73756666696369656e7420706f742062616c616e63650000000000000000600082015250565b6000613143601883612ade565b915061314e8261310d565b602082019050919050565b6000602082019050818103600083015261317281613136565b9050919050565b600081905092915050565b50565b6000613194600083613179565b915061319f82613184565b600082019050919050565b60006131b582613187565b9150819050919050565b7f526566756e64206661696c656400000000000000000000000000000000000000600082015250565b60006131f5600d83612ade565b9150613200826131bf565b602082019050919050565b60006020820190508181036000830152613224816131e8565b9050919050565b7f57696e6e65722063616e6e6f742062696420616761696e000000000000000000600082015250565b6000613261601783612ade565b915061326c8261322b565b602082019050919050565b6000602082019050818103600083015261329081613254565b9050919050565b7f47726f7570206475726174696f6e20656e646564000000000000000000000000600082015250565b60006132cd601483612ade565b91506132d882613297565b602082019050919050565b600060208201905081810360008301526132fc816132c0565b9050919050565b7f416c6c206269647320726563656976656420666f722074686973206d6f6e7468600082015250565b6000613339602083612ade565b915061334482613303565b602082019050919050565b600060208201905081810360008301526133688161332c565b9050919050565b7f4e487b7100000000000000000000000000000000000000000000000000000000600052602260045260246000fd5b600060028204905060018216806133b657607f821691505b6020821081036133c9576133c861336f565b5b50919050565b7f4f6e6c792061646d696e2063616e2073656c6563742077696e6e657200000000600082015250565b6000613405601c83612ade565b9150613410826133cf565b602082019050919050565b60006020820190508181036000830152613434816133f8565b9050919050565b7f416c6c206d656d62657273206d757374207375626d6974206269647300000000600082015250565b6000613471601c83612ade565b915061347c8261343b565b602082019050919050565b600060208201905081810360008301526134a081613464565b9050919050565b7f4e6f2076616c6964206269647320666f756e6400000000000000000000000000600082015250565b60006134dd601383612ade565b91506134e8826134a7565b602082019050919050565b6000602082019050818103600083015261350c816134d0565b9050919050565b7f57696e6e696e6720626964206578636565647320706f74000000000000000000600082015250565b6000613549601783612ade565b915061355482613513565b602082019050919050565b600060208201905081810360008301526135788161353c565b9050919050565b600061358a826129d0565b9150613595836129d0565b92508282019050808211156135ad576135ac612f91565b5b92915050565b60006040820190506135c86000830185612a33565b6135d56020830184612a33565b9392505050565b6000819050919050565b6135f76135f2826129d0565b6135dc565b82525050565b6000819050919050565b61361861361382612a5d565b6135fd565b82525050565b600061362a82856135e6565b60208201915061363a8284613607565b6020820191508190509392505050565b7f426964206e6f7420666f756e64206f7220616c72656164792072657665616c6560008201527f6400000000000000000000000000000000000000000000000000000000000000602082015250565b60006136a6602183612ade565b91506136b18261364a565b604082019050919050565b600060208201905081810360008301526136d581613699565b9050919050565b7f4e6f206469766964656e647320746f2077697468647261770000000000000000600082015250565b6000613712601883612ade565b915061371d826136dc565b602082019050919050565b6000602082019050818103600083015261374181613705565b9050919050565b7f5472616e73666572206661696c65640000000000000000000000000000000000600082015250565b600061377e600f83612ade565b915061378982613748565b602082019050919050565b600060208201905081810360008301526137ad81613771565b9050919050565b7f57696e6e65722063616e6e6f7420636f6e747269627574652066757274686572600082015250565b60006137ea602083612ade565b91506137f5826137b4565b602082019050919050565b60006020820190508181036000830152613819816137dd565b9050919050565b7f496e636f727265637420636f6e747269627574696f6e20616d6f756e74000000600082015250565b6000613856601d83612ade565b915061386182613820565b602082019050919050565b6000602082019050818103600083015261388581613849565b9050919050565b7f4d7573742068617665206174206c656173742032206d656d6265727300000000600082015250565b60006138c2601c83612ade565b91506138cd8261388c565b602082019050919050565b600060208201905081810360008301526138f1816138b5565b9050919050565b7f436f6e747269627574696f6e206d75737420626520677265617465722074686160008201527f6e20300000000000000000000000000000000000000000000000000000000000602082015250565b6000613954602383612ade565b915061395f826138f8565b604082019050919050565b6000602082019050818103600083015261398381613947565b9050919050565b7f4475726174696f6e206d7573742062652067726561746572207468616e203000600082015250565b60006139c0601f83612ade565b91506139cb8261398a565b602082019050919050565b600060208201905081810360008301526139ef816139b3565b9050919050565b7f4e487b7100000000000000000000000000000000000000000000000000000000600052604160045260246000fd5b60008190508160005260206000209050919050565b60006020601f8301049050919050565b600082821b905092915050565b600060088302613a877fffffffffffffffffffffffffffffffffffffffffffffffffffffffffffffffff82613a4a565b613a918683613a4a565b95508019841693508086168417925050509392505050565b6000819050919050565b6000613ace613ac9613ac4846129d0565b613aa9565b6129d0565b9050919050565b6000819050919050565b613ae883613ab3565b613afc613af482613ad5565b848454613a57565b825550505050565b600090565b613b11613b04565b613b1c818484613adf565b505050565b5b81811015613b4057613b35600082613b09565b600181019050613b22565b5050565b601f821115613b8557613b5681613a25565b613b5f84613a3a565b81016020851015613b6e578190505b613b82613b7a85613a3a565b830182613b21565b50505b505050565b600082821c905092915050565b6000613ba860001984600802613b8a565b1980831691505092915050565b6000613bc18383613b97565b9150826002028217905092915050565b613bda82612ad3565b67ffffffffffffffff811115613bf357613bf26139f6565b5b613bfd825461339e565b613c08828285613b44565b600060209050601f831160018114613c3b5760008415613c29578287015190505b613c338582613bb5565b865550613c9b565b601f198416613c4986613a25565b60005b82811015613c7157848901518255600182019150602085019450602081019050613c4c565b86831015613c8e5784890151613c8a601f891682613b97565b8355505b6001600288020188555050505b505050505050565b6000606082019050613cb86000830186612a33565b613cc56020830185612a33565b613cd26040830184612a33565b949350505050565b7f416c7265616479206a6f696e656420746869732067726f757000000000000000600082015250565b6000613d10601983612ade565b9150613d1b82613cda565b602082019050919050565b60006020820190508181036000830152613d3f81613d03565b9050919050565b7f47726f75702069732066756c6c00000000000000000000000000000000000000600082015250565b6000613d7c600d83612ade565b9150613d8782613d46565b602082019050919050565b60006020820190508181036000830152613dab81613d6f565b9050919050565b6000819050919050565b6000613dc782613db2565b91507f80000000000000000000000000000000000000000000000000000000000000008203613df957613df8612f91565b5b816000039050919050565b6000613e0f82613db2565b9150613e1a83613db2565b925082820190508281121560008312168382126000841215161715613e4257613e41612f91565b5b9291505056fea2646970667358221220b59fe5baf73f6595d2cae71b2639b65524dd24eff2d95e981010fffa86bb039064736f6c63430008140033",
  "linkReferences": {},
  "deployedLinkReferences": {}
}